:020000040800F2
:10000000081000205D7E0008397B00083B7B00085B
:100010003D7B00083F7B0008417B0008000000009A
:10002000000000000000000000000000437B00080A
:10003000457B000800000000477B0008497B000862
:10004000817E0008857E0008897E0008937B000879
:100050008D7E0008917E0008877B00088D7B00085C
:10006000957E0008997E0008817B00089D7E00082F
:10007000A17E0008A57E00084D7B0008A97E00082F
:10008000AD7E0008B17E0008B57E0008B97E00088C
:10009000BD7E0008C17E0008C57E0008C97E00083C
:1000A000CD7E0008D17E0008D57E0008D97E0008EC
:1000B000DD7E0008E17E0008E57E0008E97E00089C
:1000C000ED7E0008F17E0008F57E0008F97E00084C
:1000D000537B0008597B0008FD7E0008017F000863
:1000E000057F0008097F00080D7F0008117F0008C8
:1000F0005F7B0008637B0008677B0008157F0008B2
:10010000197F00081D7F0008217F0008257F000857
:10011000297F00082D7F0008317F0008357F000807
:10012000397F00083D7F00086B7B0008417F000895
:10013000457F0008497F00084D7F00082DE9F14FF9
:10014000B0B0924604910DF142013A9A2B91994632
:100150004A7000200AE01AF8011B0498309A904770
:100160000028049000F0A6860D98401C0D909AF887
:10017000000050B12528EED10021002207910892FD
:1001800009910A920B910C9204E00D9800F094BE34
:1001900041F001011AF8010F2028F9D023280CD0D2
:1001A0002B2804D02D2805D0302809D00BE041F0B1
:1001B0000201EFE741F00401ECE741F00801E9E753
:1001C00041F01001E6E72A280FD1D9F8002052F8B3
:1001D000040BC9F8002000280F9003D540420F906F
:1001E00041F004010AF1010A14E00F92DFF824380B
:1001F0000AE00F98984205DA00EB800402EB440213
:10020000303A0F920AF1010A9AF80020A2F1300068
:100210000A28EED39AF800002E2803D04FF0FF32C0
:100220000E9229E01AF8010F2A2809D1D9F8000006
:1002300050F8042BC9F800000E920AF1010A1BE0E5
:100240002D280CBF0AF1010A002000220E92DFF8CF
:10025000C4470BE040B90E9AA24205DA02EB8205D0
:1002600003EB4503303B0E930AF1010A9AF8003084
:10027000A3F130020A2AEDD3ADF84010DFF8980759
:10028000784400F294709AF8001000F047FF08B12B
:100290001AF8010B8DF842009DF84200682805D13C
:1002A0009AF8000068280CD1622106E06C2804BF8F
:1002B0009AF800006C2804D171218DF842100AF1DF
:1002C000010A12A806901AF801BBBBF125012CD037
:1002D0001C3900F0CF81091F022940F2CB8113396C
:1002E00000F01385093900F0C581891E00F0A8854A
:1002F000491E00F05585491E022940F2BB81091FA5
:1003000000F04E85491F00F02881491E00F0FD8451
:10031000491E00F0D080C91E0DD0891E00F0F58462
:10032000C91E00F0F28400F096BD25238DF84830F8
:10033000012100F09BBDD9F8000050F8044BC9F82A
:100340000000002C059440F0A3802B9948780028E9
:1003500000F099804FF0FF340FF6643000F0EAFEB1
:10036000201A40F0A78500F082BD6D1E40F09985EF
:100370003096079D12AF75B1309E17F8012B02A978
:10038000304600F063FE002801D46D1EF5D1002830
:10039000309640F08F850A9D3020002D8DF80400A6
:1003A0000CDD309E012301AA02A9304600F05EFE5A
:1003B000002840F07F856D1EF4D13096059F089D82
:1003C00075B1309E17F8012B02A9304600F03EFEB1
:1003D000002801D46D1EF5D10028309640F06A85C2
:1003E0000B9D3020002D8DF804000CDD309E012384
:1003F00001AA02A9304600F039FE002840F05A85D3
:100400006D1EF4D1309605980899099D471875B16D
:10041000309E17F8012B02A9304600F017FE002885
:1004200001D46D1EF5D10028309640F043850C9D17
:100430003020002D8DF804000CDD309E012301AA30
:1004400002A9304600F012FE002840F033856D1EF0
:10045000F4D130969DF8400041077FF588AE20200A
:10046000002C8DF804007FF782AE309D012301AA95
:1004700002A9284600F0FAFD002840F01B85641E02
:10048000F4D1309573E60FF64440059000F0EFBCD0
:100490000E9D002D04D5204600F06CFE044607E0BA
:1004A0002A46204600F082FE002814BF041B2C467A
:1004B000089400F0DCBCD9F8001051F8040BC9F81E
:1004C000001020F00004002121F0FF3512ABCDE92F
:1004D00002450593DDE9022306993C2413B90AB9C4
:1004E0000E9898B102F00F053035641EEEB23A2E28
:1004F000A8BF2735120942EA03721B090D5508BF30
:10050000002A03D005980D19A842EBD308190590CD
:10051000C4F13C020E98089282420ADABDF84010FB
:10052000821A4FF6EF7001400A92ADF8401000F0C9
:100530009EBC002840F19B849DF8400000F0140010
:10054000102840F094840F9B07990A985B1A1B1A95
:100550009A1A002A40F38B84D5E32B99487820B16E
:100560004FF0FF340FF63430F8E69DF84200622871
:1005700061D0682817D06A283FD06C2806D071282F
:1005800047D074282CD07A281DD064E0D9F8001008
:1005900051F8040BC9F80010002868D14FF0FF345F
:1005A0000FF61030DAE6D9F8001051F8040BC9F84C
:1005B000001020B94FF0FF340FF6F820CEE60D9969
:1005C000018000F054BCD9F8001051F8040BC9F8B0
:1005D000001000284BD14FF0FF340FF6D820BDE6B5
:1005E000D9F8001051F8040BC9F8001000283ED1CA
:1005F0004FF0FF340FF6BC20B0E6D9F8001051F8E8
:10060000040BC9F8001080B94FF0FF340FF6A42096
:10061000A4E6D9F8001051F8040BC9F8001020B96D
:100620004FF0FF340FF68C2098E60D9AD317C0E9EF
:10063000002300F01CBCD9F8001051F8040BC9F8D5
:10064000001020B94FF0FF340FF6682086E60D99B0
:10065000017000F00CBCD9F8001051F8040BC9F877
:10066000001020B94FF0FF340FF6482076E60D99C0
:100670000160FCE3D9F80020D21D22F00702C9F87E
:100680000020D2E900010832C9F80020CDE90201BA
:10069000C80F02D007982D210AE0BDF8400081075D
:1006A00002D507982B2103E0C00705D50798202124
:1006B00012AA1154401C079012A807994BF020026F
:1006C0004318DDE90201CDE92C01612A059321AC33
:1006D0000BD00E98002802D506200E9005E001BF31
:1006E0004BF02000672801210E91DDE9020148004E
:1006F0004015401C0A460DD109030BD0ABF1610532
:1007000003201A2D089002D20FF6C4110DE00FF647
:10071000C4110AE070B912030CD1ABF161050320DA
:100720001A2D08901AD30FF6B4110322184600F0C0
:1007300069FD9CE3DDE90201CDE92E01DDE92E230F
:1007400023F00047B7F5801F22F000060DD20022EB
:10075000002F08BF002E009203D116E00FF678118B
:10076000E3E76A4600F05AFD0FE0DFF8C008DFF863
:10077000C01800EB17500090DDE92E234FF0FF303A
:100780001940DFF8B07810403943CDE902014BF051
:10079000200061280DD1059830210170821CBBF129
:1007A000610F05920CBF7821582141700798801C79
:1007B0000790DDE9020120F0000231F0004308BF9C
:1007C000002A02D10026002568E14BF02008B8F18C
:1007D000610F40F0B4800E98002847BF212101919D
:1007E000401C0190019FDDE92C017F1C00220023A9
:1007F000DDE9024500F04AFD00998DF8842038BFFC
:1008000085F00045091F002F00910DF1850653DD8D
:10081000204629460022002300F050FD4CD248001B
:10082000400D00F11C0312D0002B10DD40F2FF70D0
:10083000834206DBDFF8001805F000421143002078
:1008400011E06FF31E5141EA035120460BE024F002
:10085000000035F0004108BF00280FBF29461C22C8
:10086000294600F043FD04460D4600F0DDFDFF1F64
:10087000002F804609DD00F0F5FD02460B462046BC
:10088000294600F001FE04460D46F01D0721B8F18F
:10089000000F0CDD491E5EBF08F00F0200F8012DAD
:1008A0004FEA2818F3D502E0002200F8012D491E76
:1008B000FAD5C61D002FABDC0DF18500361A019864
:1008C0008642D8BF304600280DF1850430D4B042AE
:1008D00006DA0DF185010A5C082AA8BF0F2100DAAB
:1008E0000021024621AB134400E0401E13F80159D9
:1008F000521E8D42F9D00F2904D10DF185018B5C78
:100900005B1C8B54002A04D50099091D21AC401CA6
:100910000091411E0CD46218ABF13A0613783033C3
:10092000DDB23A2DA8BFF318491E02F80139F5D5FA
:100930000E99002940F1B080421E0E92ACE0009961
:10094000DFF8F82647F29750414391FBF2F2DDE9D8
:100950002C45009225F00045D2F1070204DD204627
:10096000294600F040FB0BE052420020DFF8D01691
:1009700000F039FB02460B462046294600F0F6FD02
:100980000446B8F1660F0E9806BF009F0A37062787
:100990003F18142FC8BF142730200D468DF884004F
:1009A0000DF18506002F39DD2046294600F002FFB3
:1009B00001460A4606F1080304200A26B2FBF6F6B1
:1009C00006EB860EA2EB4E02303203F8012C0A220F
:1009D000B6FBF2F202EB820EA6EB4E063036401E5C
:1009E00003F8026DE9D1083F002F03F10806D9DDB5
:1009F000084600F0F3FE02460B462046294600F06A
:100A000043FD0022DFF83C3600F0F6FE04460D46BA
:100A1000CAE700BFCBCCCC0C607400000DF18500A0
:100A2000361A0DF1850404E00098401E761E0090F1
:100A3000641C20783028F7D0B8F1660F02D10099F5
:100A4000491C04E0B8F1650F0CBF012100210E988C
:100A500008188642B8BF701E00281DD4B04204DAC0
:100A6000215C3429C8BF392100DC30210246631ED5
:100A70009D1800E0401E15F80169521E8E42F9D003
:100A8000392902D1A15C491CA154002A04D500993E
:100A9000491C1C46401C00910646009D0E9F30B22A
:100AA000002802DC01260FF238644BF02000662893
:100AB00008BF6D1C15D067280FFA85F841D118F1D1
:100AC000040F44DBB84542DA9DF840006D1C010775
:100AD00003D430B2B842B8BF074628B23F1A48BF65
:100AE00000270FFA85F8B8F1000F00F3AF800898DF
:100AF000411C0891302205990A54002F03DC9DF80F
:100B00004000010705D50898411C08912E2205993F
:100B10000A5417EB080FB8BF7D4228B2C51932B28C
:100B2000414295420B91B8BF2E46059B089836B2BC
:100B3000099632462146184400F064FBAD1B0C9523
:100B4000CCE0BBF1610F15D14FF0700B17E030B264
:100B5000B84204DA9DF840100A0758BF07467F1EC6
:100B600048BF0027BBF1670F14BF4FF0450B4FF094
:100B7000650B04E0BBF1410F08BF4FF0500B089824
:100B8000411C0891002F059914F8012B0A5403DC2D
:100B90009DF84000010719D50898411C08912E22A4
:100BA00005990A54002F11DD761E30B28742059850
:100BB000089BB8BF3E4632B22146184400F022FBE3
:100BC000089836B23018BF1B08900B970598089903
:100BD0000844B8F1000F80F800B003D42B22427013
:100BE000821C04E02D2145464170821C6D4200218B
:100BF0002CAB28460AE004460A2094FBF0F000EBF8
:100C00008005A4EB450403F8014B491C00B2002801
:100C1000F1DC012906DC4BF02000652804BF302000
:100C200002F8010B00292CAB08D1302002F8010B8F
:100C300006E0491E585C303002F8010B0029F8DC50
:100C4000059908980844121A099247E030B229B26F
:100C500088421BDA0598089B32B22146184400F0FE
:100C6000D1FA089936B27118A8EB0606002F089140
:100C70000B9603DC9DF84000020705D5059A2E204F
:100C800050540999491C09910C9727E00598089B35
:100C90002AB22146184400F0B5FA0898761B404461
:100CA000002F089003DC9DF840100A0704D5411C72
:100CB00008912E2205990A5430B287420598089B64
:100CC000B8BF3E4632B204EB0801184400F09AFA6D
:100CD000089836B23018BE1B08900B969DF840005D
:100CE00000F01400102840F0C280079A08990B9871
:100CF0008A18099982180C988A1882180F988242CB
:100D000080F2B580821A0A92B1E09DF84200622812
:100D100008D068280ED06A2814D06C281FD07128FB
:100D200010D01CE0D9F8001051F8040BC9F80010DD
:100D3000C0B21AE0D9F8001051F8040BC9F800103D
:100D400080B212E0D9F80020D21D22F00702C9F8C3
:100D50000020D2E900010832C9F8002006E0D9F8E5
:100D6000001051F8040BC9F800100021CDE9020170
:100D70009DF8400001075AD5DDE90223002B08BF8A
:100D8000002A54D04BF02000782850D1079812A99F
:100D900030220A54401C431C079301F800B046E07F
:100DA0009DF84200622808D068280ED06A2814D026
:100DB0006C281FD0712810D01CE0D9F8001051F811
:100DC000040BC9F8001040B21AE0D9F8001051F82D
:100DD000040BC9F8001000B212E0D9F80020D21DAF
:100DE00022F00702C9F80020D2E900010832C9F850
:100DF000002006E0D9F8001051F8040BC9F80010E3
:100E0000C117CDE90201002902D507982D210AE07A
:100E1000BDF84000810702D507982B2103E0C007E9
:100E200005D50798202112AA1154401C079012A83A
:100E300007990144059102A8594600F04FF816E0C1
:100E400001200790D9F8000050F8041BC9F80000F1
:100E50008DF848100BE025210122BBF1000F8DF821
:100E60004810079203D08DF849B0022107910F9ADC
:100E700007980A990C9C121A0898521A0B99121A80
:100E80000998521A121A9DF84000141B41073FF5A9
:100E900070AA2020002C8DF804007FF76AAA309EEB
:100EA0002546012301AA02A9304600F0DFF80028F8
:100EB0003FF45BAA4FF0FF3031B0BDE8F08F000087
:100EC0007072696E74665F733A2062616420257384
:100ED00020617267756D656E740000002DE9FC433A
:100EE00007466F293E6908BF082405D041F020005D
:100EF000782814BF0A2410243C25D7E9002364294C
:100F000018BF69299046994605D1002B03D5D8F121
:100F1000000869EB4909B9F1000F08BFB8F1000FEB
:100F20000CD1386B50B9082C39D197F8380001072B
:100F300035D530203B2586F83B0030E08DF8001099
:100F4000404649462246E31700F028FD3032D0B231
:100F50006D1E3A28019504DB9DF80000A0F15101B7
:100F60008A187255404649462246E31700F016FD9E
:100F700080465FEA010908BFB8F1000F03D0F868A6
:100F800071198842DCD3082C09D197F83800010781
:100F900005D5705D302802D06D1E30207055C5F12A
:100FA0003C02BA617119F960386B824208DA821A20
:100FB0003A624FF6EF70398F01403987BDE8F3830D
:100FC00000280ED597F8380000F01400102808D13A
:100FD0007B6B7969386A5B1A1B1A9A1A002AC8BF98
:100FE0003A62BDE8F3832DE9D04306460F46144626
:100FF0004FF00008DFF8509012E0E00707D54246B6
:101000004B463046394600F0F7FB06460F46404651
:10101000494642464B4600F0EFFB64108046894645
:10102000002CEAD130463946BDE8D08302FCFFFFF0
:10103000FFFF0F800000E03F0000F07FA08601006E
:101040000000F03F84D797410000244010B50346CC
:101050000C461146A0689847A06020B1E06A401C89
:10106000E062002010BD4FF0FF3010BDF8B505461E
:101070000E4617461C4600205CB117F8011BB068ED
:10108000A847B06030B1F06A401CF0620020641ED6
:10109000F3D1F2BD4FF0FF30F2BD00007072696E07
:1010A00074665F733A20256E20646973616C6C6F9F
:1010B000776564007072696E74663A2062616420BC
:1010C000256E20617267756D656E7400000000000A
:1010D0006E616E004E414E00696E6600494E4600DC
:1010E000300030B4002513E050F8042BD30744BF80
:1010F000A9F101039A18091F042942F8045BFAD2E6
:1011000013468C0744BF15809B1CC90748BF1D7040
:1011100050F8041B0029E7D130BC7047C9B20278EF
:101120008A421AB11CBF10F8012FF9E718BF00203E
:101130007047704780B500B906A005490B681BB120
:1011400022220021984701E000F0ABFC222002BDE2
:1011500088260020636F6E73747261696E742068F4
:10116000616E646C65723A20626164206D657373B0
:101170006167650000F10103810704D010F8011BCD
:10118000820781B1FAD10268A2F10131914311F0D5
:10119000803104BF50F8042FF6E709BAB1FA81F1A3
:1011A00000EBD100401CC01A70477047C9B28307DA
:1011B00006D0521E22D310F8013B9942F7D11FE00E
:1011C000083A13D302F1040241EA012141EA014144
:1011D00050F8043B121F21BF4B40A3F1013C2CEA05
:1011E000030C1CF0803FF3D0C9B2001F083210F886
:1011F000013B521E28BF91EA030FF8D818BF012007
:10120000401E70474AB1000011F8013B521E00F821
:10121000013B1CBF11F8013BF8E7704710B51446BD
:1012200000F002F8226010BDC1F30A5343B14A0036
:1012300012F5001F28D2A3F2FE32A1EB0251704733
:1012400050EA410C20D001F0004C31EA0C01B1FA17
:1012500081F204BFB0FA80F3D2180B3AB2F1200346
:101260002CBF00FA03F1914041EA0C013EBFC2F1EC
:10127000200C20FA0CF319439040524240F2FD3307
:10128000D21A01EB03517047002270474FF4001C43
:101290001CEB410F94BF1CEB430F09E041EA030C28
:1012A00050EA4C0C52EA0C0C03D2994208BF90420F
:1012B000704714BF8B428242704700004FF4001CFD
:1012C0001CEB410F94BF1CEB430F09E041EA030CF8
:1012D00050EA4C0C52EA0C0C03D28B4208BF8242FB
:1012E000704714BF9942904270470000124254D494
:1012F00040F2FF7C1CEA11530FD0634531D09B189C
:1013000063453CBF01EB0251704701F0004141EAE7
:101310000C510020AFF30080704750EA410320D009
:1013200001F0004C91EA0C011CD0B1FA81F30B3BA7
:101330009A420DD9D21A994051EA0C01C3F1200CFE
:1013400020FA0CFC61449840531C40F2FF7CD7E724
:10135000914041EA0C01C2F1200C20FA0CF3194330
:1013600090407047B0FA80F31533202BE0D3202A49
:10137000EED3203A203B9A4209D9D21A00FA03F15F
:1013800041EA0C010020531C40F2FF7CB8E700FA50
:1013900002F141EA0C0100207047524240F2FF7C0A
:1013A0001CEA11530DD06345DBD0B2EB030C3CBFFC
:1013B000A1EB025170470CF1010221EA035141F403
:1013C000801150EA410CCCD001F0004C352A27DCCA
:1013D00030B481EA0C01B2F1200309DAC2F1200332
:1013E000044601FA03F5D0402843D1409C400CE06C
:1013F000C3F12002450020FA03F418BF44F00104B1
:1014000021FA03F091400C43002174F1004550F1A2
:10141000000051EB0C01244230BC7FF47BAF7047DD
:101420006146002076E70000C1F30A5340F2FE3225
:101430009B1A14DDD3F120034FEAE17208DDC902E3
:1014400041EA505141F00040D84080185040704768
:1014500003F2E13010B1D24382F000407047002027
:1014600070470000C11768B14840401AB0FA80F2D6
:101470009040D21CC907C2F5846241EA025202EBD5
:10148000D02140057047000070B44FF0004591EA4C
:10149000030F40F109836B40841A71EB030603D2FA
:1014A000001BB141121973414FF4001C1CEB410F9A
:1014B00034BF7CEB430442E00C0DA4EB1356352EF5
:1014C0004FDC45EAC323DB0A45EAC121C912B6F164
:1014D00020050DDD63FA05F6EB4086EA03051242AE
:1014E00018BF45F00105C01851F100010CD213E0FE
:1014F00062FA06F5F2405540F3415A40B340F340DA
:101500005A408018594107D349085FEA30005FEA22
:10151000350528BF45F0010501F58011420875F138
:10152000004250F1000041EB04514E0016F5001F3F
:1015300070BC38BF70470020090D090570471CEBCF
:10154000410F10D252EA43060BD0BCEB410F05D835
:101550000C0DAB43661E342EB6DD02E0AB438018A3
:10156000594170BC704770BC70470000F0B540F244
:10157000FF7581EA030C0CF0004C15EA11541DBFF5
:1015800015EA1357AC42AF42E5E0BC41C1F3130189
:10159000C3F31303801A994143F4801304D2641EE9
:1015A0004000494180185941C90241EA5051B1FBFC
:1015B000F3F603FB1611A2FB0675D7EBC020A94179
:1015C00002D2761E80185941C90241EA5051B1FB3E
:1015D000F3FE03FB1E11A2FB0E75D7EBC020A94141
:1015E00003D2AEF1010E80185941890241EA9051AF
:1015F000760546EA8E2EB1FBF3F603FB1611A2FB2D
:101600000675D7EB8020A94102D2761E8018594179
:10161000C90241EA50514EEA060EB1FBF3F603FB54
:101620001611A2FB0675D7EBC020A94102D2761E87
:1016300080185941C90241EA5051B1FBF3F703FB4D
:101640001711A2FB0735D3EBC020A94167F10007B2
:101650000CBF004247F0010766F3D5274FEA1E3161
:10166000B80814F5806412DDBD0775F1004250EB37
:101670000E5051EB045111F5801F5CBF41EA0C0183
:10168000F0BD4CF07F6141F0E0410020F0BDBD07AE
:101690006D0840EA0E5041F48011D4F10104B4F118
:1016A00020060ADAC4F120060200E04001FA06F33F
:1016B000E1401843B24015430EE0342C13DCC6F170
:1016C000200445EA40056D0820FA06F2154321FA88
:1016D00006F0A1400D43002175F1004250F10000D9
:1016E00051EB0C01F0BD00205FEA0C01F0BDCFB959
:1016F00092185B41B3FA83F704BFB2FA82F6BF19BE
:101700000B3FB7F120062FBF02FA06F3BB40C7F12B
:10171000200622FA06F638BF3343BA401CB1E4195A
:10172000641E33E77F4231F00041B1FA81F404BF17
:10173000B0FA80F6A4190B3CB4F120062FBF00FAD2
:1017400006F1A140C4F1200620FA06F638BF314365
:10175000A0403C1B1AE7AC421ABF05EA1357AF4240
:1017600012E050EA41061CBF52EA4306BFE750EAC6
:101770004107304661461CBF41EA0551F0BD52EABF
:10178000430C08BFC143F0BD00204FF4001616EB18
:10179000410F98BF16EB430F08BF16EB410F24BF54
:1017A000C14305E016EB430F0CBF61464CEA0551FF
:1017B000F0BD0000400D491840EA81200CD2490DCF
:1017C000A1F58061491C40F0004005DBD1F11F010B
:1017D00054BFC840C017704700207047014648B149
:1017E000B0FA80F18840C91CC1F58461090501EB9C
:1017F000D021400570470000B0B581EA030C0CF021
:10180000004C40F2FF7515EA11541DBF15EA13573D
:10181000AC42AF4239E0E41923EA455343F4801364
:10182000C90241F0004141EA505EC7021100A7FB26
:10183000020200284FF00000EEFB01204FF00001F3
:10184000E3FB072118BF42F0010240180021494183
:10185000E3FB0E01A4F580640F0302D25200404165
:10186000494154F101046CDD470872F1004250F126
:10187000000051EB0451A1F580115CBF41EA0C015D
:10188000B0BD4CEA05510020B0BD05EA1357AC428B
:1018900014BFAF4241E050EA410E1CBF52EA430E72
:1018A00002E061460020B0BD24423C441BD15FEA07
:1018B000070EF6D0090302BF01460020AEF1140E58
:1018C000B1FA81F7AEEB070401FA07FE0C37C7F156
:1018D000200100FA07F7C8404EEA000E23EA4553FC
:1018E00043F48013A2E733F00043B3FA83F704BF55
:1018F000B2FA82FE77440B3FE41BB7F1200E2FBFF4
:1019000002FA0EF3BB40C7F1200E22FA0EFE38BFDA
:1019100043EA0E03BA40641C82E750EA410E14BF4A
:1019200052EA430E6FF000014FF4001717EB430F1C
:101930008ABF194617EB410FB5E74CEA0551002065
:10194000B0BDD4F10104B4F120070FDAC4F12007CF
:10195000520828BF42F0010210FA07F501FA07F712
:10196000E1BF2A43E0403843E1400FE0352C98DCEA
:10197000C7F1200452EA400220FA07F218BF42F0F1
:10198000010231FA07F0A1400A43002172F100423E
:1019900050F1000051EB0C01B0BD0000D3BBD9B138
:1019A000B2F5803F5BD2022A1ED98C46B1FBF2F120
:1019B00002FB11C31B0443EA1043B3FBF2FC02FB1E
:1019C0001C3380B240EA0343B3FBF2F002FB103257
:1019D00040EA0C4000237047022A05D98446B0FB38
:1019E000F2F002FB10C270474AB105D100F00102CB
:1019F00049085FEA3000704700220023704700F07A
:101A000009B90B000200002100207047F7D3002223
:101A100000237047904271EB030CF2D370B5B1FA1A
:101A200081F4B3FA83F52C1BA340C4F1200532FAEC
:101A300005F63343A2405FF00046E64002E05B0853
:101A40005FEA3202841A71EB030524BF204629465F
:101A50007641F4D302000B003000002170BD70B558
:101A6000B1FA81F4B2FA82F5C4F120046419B4F138
:101A70002006DAD3B2405FF00044F440002502E0D3
:101A800052085FEA3303C61A71EB020E24BF3046D8
:101A9000714664416D41F3D302000B002000290020
:101AA00070BD012000F0B8B8841A71EB030604D2AF
:101AB0006E40001BB141121973414FF4001C1CEB26
:101AC000410F34BF7CEB430683E00C0DA4EB1356AF
:101AD000362E00F37C80012E45EAC32341DC43EA25
:101AE000525312BFD20292025B08240545EAC1217B
:101AF00041EA5051D2EBC020994125D407D1B0FA28
:101B000080F610FA06F162D00020203608E0B1FA23
:101B100081F6B140C6F1200220FA02F21143B04032
:101B20004FEAF474B4EB465434F001064FEA7404FF
:101B30000AD8D6F50016760D04F00044F04061FA9C
:101B400006F25040F1404840C00A40EA415021F0BE
:101B5000004128BF5FEA500550F1000044EBD1215D
:101B600035E0DB0A45EAC121C90AB6F120050EDDE0
:101B700042EA0242120CC5F1200603FA06F6EB40D7
:101B800042EA06056D42984161F100010DE062FAFA
:101B900006F5F240554063FA06FC82EA0C02F34077
:101BA0005A406D42904161EB030111F4801F05D151
:101BB000641E620502D06D004041494121F480114C
:101BC000430875F1004350F1000041EB045170BC33
:101BD00070471CEB410F15D223F0004352EA430635
:101BE0000BD04FEA4C0CBCEB410F04D80C0D661E19
:101BF000342EB7DDEBE7801A994150EA410608BF61
:101C00000021E4E708BF1CEB430F28BF6FF0000181
:101C1000DDE700007047000020210903263118206D
:101C2000ABBEF9E738B5040009D004F18005696856
:101C300009B900F01EF800F021F8012801D10120B7
:101C400032BDA06A08B100F02AF800F00AF821F0CD
:101C50002A01FFE7816000F01BF8BDE8324000F088
:101C600070BB2068416821F4904141602068816820
:101C7000704700202870204600F0F6BC24216960DF
:101C800020680268520852000260204600F0ECB959
:101C90002068016841F0010101602046704720463C
:101CA00000F0ECBA70B5044604F18005134668688C
:101CB00020283AD151B3180028D02878012834D0F0
:101CC00001222A7004F154062165338073800020BC
:101CD000E86021216960706AD0B1DFF87413C162D5
:101CE000DFF87003716A0863716ADFF86C03486398
:101CF0000020716A88632068216D00F12802706AF3
:101D000000F0E4FD20B100F0A5FB6A60012070BD89
:101D100021684020086200222A7000F008F841F093
:101D2000800100F00FF8F8D170BD022070BD20686E
:101D300000F1080151E8001F00F108037047DFF8C7
:101D40002005014043E80010002870472DE9F041CC
:101D5000054640F60F022B68DE69D3F800C09F6885
:101D6000324005F15C040CF0200006F020010DD19A
:101D7000002913D010B9F80040F18A806169002968
:101D800000F03A812846BDE8F0410847DFF87027A7
:101D9000174204BFDFF86CE71CEA0E0F78D05FEA49
:101DA000C67E48BF5FEACC5807D54FF0010EC3F896
:101DB00020E0236B43F001032363B3070AD5FB073D
:101DC00008D5D5F800800223C8F82030236B43F0F3
:101DD0000403236373070AD5FB0708D5D5F80080F1
:101DE0000423C8F82030236B43F002032363330736
:101DF0000AD5002808BF174206D02B6808221A62AD
:101E0000226B42F008022263320548BF5FEA4C139E
:101E100007D52E684FF400623262226B42F0200236
:101E20002263226B002A32D031B108B9F80003D501
:101E3000616909B128468847206B29688A6851067C
:101E400002D410F0280F1DD0284600F02BFB286884
:101E50008168480611D500F0DBF8FCD1206A60B13A
:101E60000FF251718163206A00F0A3FD00280ED0AB
:101E7000206A816BBDE8F04108472846BDE8F04183
:101E800000F090BE284600F08DFE00202063B3E0F5
:101E9000206901286ED1F00648BF5FEACC6169D5A0
:101EA000102018622968886841062ED5216A0868C2
:101EB000406880B20028EAD022889042E7DA608049
:101EC000086801688A061AD400F0B0F821F480711D
:101ED00000F09AF8F8D100F0B0FAFCD100F0ABF8BD
:101EE000FCD12020E0620021216100F09FF821F068
:101EF000100100F089F8F8D1206A00F026FD218851
:101F00006088091A89B2284630E022886188608892
:101F1000511A00281CBF88B200286DD02A461068CC
:101F200050E8003F054623F4907300F067F8F6D1BF
:101F3000106800F1080300F1080653E8003FDFF8DD
:101F40001C03034046E800300028F1D12020E06265
:101F5000002323616361136853E8003F146823F092
:101F6000100300F07DF8F6D189B21046BDE8F041CB
:101F700000F019BEF00209D5790207D54FF48010A0
:101F800018622846BDE8F04100F08ABE30060AD546
:101F90005FEA0C6101D4380205D5A16961B3284616
:101FA000BDE8F0410847700648BF5FEA4C610FD5B5
:101FB00000F03CF821F0400100F026F8F8D1202094
:101FC000A0620021A1612846BDE8F04100F081BE79
:101FD000300248BF5FEA4C0104D52846BDE8F04115
:101FE00000F088BEF00148BFBCF1000F04D52846C0
:101FF000BDE8F04100F07FBEBDE8F08145E800306B
:102000000028704721F4F07142E800100028704762
:10201000296801F1080252E8001F286800F108034E
:1020200021F0400143E8001000287047286850E87C
:10203000001F02467047286800F1080151E8001FA0
:1020400000F1080321F0400143E800100028704728
:102050001D2500085D2500086525000823F4807310
:1020600044E8003000287047F8B50446DFF86805FA
:102070002268DFF868E51368A168DFF8647503403B
:1020800020690B4361690343E0690B430343136019
:1020900000255168E06821F4405101435160A36973
:1020A000DFF840158A421CBF206A03439668DFF8B8
:1020B00038050640334393606AA6D36A606A1B09F9
:1020C00040EA0313D3627245DFF820054FF4004362
:1020D00039D13F6807F00307032F4DD8DFE807F039
:1020E000024643494FF0010CE169B1F5004F4FF64C
:1020F000F07740F08080BCF1010F09D0BCF1020FF5
:102100000AD0BCF1040F71D0BCF1080F71D099E076
:1021100001F0A1F9002815D0626A616836F8123022
:10212000B0FBF3F04A0802EB4002B2FBF1F080B2E0
:10213000A0F11001B942EAD20740C0F342000743C0
:102140002068C7607FE08A4216D13F6817F4406775
:1021500023D0B7F5806F09D0B7F5006F03D0B7F57E
:10216000406F06D008E04FF0020C07E04FF0040C7F
:1021700004E04FF0080C01E04FF0100C8A42B3D19C
:10218000BCF1000F09D0BCF1020F0AD0BCF1040F62
:1021900015D0BCF1080F15D054E001F054F9002817
:1021A00051D0616A36F81120B0FBF2F6626802EB9A
:1021B00042018E4246D31303B34205D242E001F0FE
:1021C000F8F8ECE71846ECE75008002110EB062081
:1021D00051EB16610023FFF7E1FBA0F54076DFF835
:1021E0001074BE422ED22168C8602CE001F0E1F8E4
:1021F00090E7184690E7BCF1010F09D0BCF1020F3F
:1022000009D0BCF1040F18D0BCF1080F18D019E0A8
:1022100001F021F9B8B1626A36F812306168B0FB9A
:10222000F3F000EB5100B0FBF1F080B2A0F110012F
:10223000B94207D22268D06005E001F0BAF8E9E7B8
:102240001846E8E7012504F16800012100234180D8
:1022500001808360C3602846F2BD0000FEFFFFEFEF
:10226000FEFF7FEF010002000400060008000A00E4
:102270000C001000200040008000000190F82810A1
:10228000CA0706D502685368C16A23F400330B43BA
:10229000536090F828108A0706D502685368016BCE
:1022A00023F480330B43536090F828104A0706D577
:1022B00002685368416B23F480230B43536090F80A
:1022C00028100A0706D502685368816B23F400437F
:1022D0000B43536090F82810CA0606D5026893682D
:1022E000C16B23F480530B43936090F828108A0647
:1022F00006D502689368016C23F400530B43936086
:1023000090F828104A0610D502685368416C23F4EF
:1023100080130B435360436CB3F5801F05D15368A2
:10232000816C23F4C0030B43536090F828100A0615
:1023300006D501684A68C06C22F4002202434A6054
:102340007047F8B5044604F180050020E8606FF09E
:102350007E4701F015F90646206801680A0708D58E
:102360000097334600224FF40011204600F017F882
:1023700060B9206801684A070AD5009733460022F1
:102380004FF48001204600F00AF808B10320F2BDA6
:1023900020206860A8600020E0662870F2BD2DE96A
:1023A000F041069C05460E4690461F462868C169C6
:1023B0003140B1420CBF01200020404529D114F129
:1023C000010FF3D001F0DCF8C01B844200D34CB9FC
:1023D00000F028F800F031F8FCD100F01DF80021E1
:1023E000017014E0286801684A07DFD5C169080553
:1023F000DCD52A684FF40061116200F013F800F098
:102400001CF8FCD100F008F8C16000220270032023
:1024100000E00020BDE8F08105F18000202141604E
:1024200081607047286850E8001F024621F4D0718F
:1024300042E800100028F5D17047286800F1080133
:1024400051E8001F490800F10803490043E8001063
:10245000002870471020E860002129702022704772
:1024600010B500F008F8FCD100F00FF8FCD12021E5
:10247000C0F8841010BD016851E8002F0B4622F00F
:10248000C00243E8002100297047016801F10802F9
:1024900052E8002F01F1080422F4000244E8002170
:1024A0000029704710B500F011F8FCD100F018F8C1
:1024B000FCD1C16E012902D100F026F8FCD1202107
:1024C000C0F888100022C266026710BD016851E89A
:1024D000002F0B4622F4907243E800210029704738
:1024E000016801F1080201F1080452E8002FDFF849
:1024F00004110A4044E80021002970470000000050
:102500000100001020010004026852E8002F036857
:1025100022F0100243E800210029704710B501465F
:10252000886A09680A68930614D40021A0F8561036
:10253000026802F1080151E8002F036803F1080462
:1025400022F0800244E800210029F1D100F03AF89D
:10255000FCD110BDBDE8104000F0BBBB806A01F0AB
:1025600015B80000F8B5846A04F1840504F1560733
:1025700028686E6821688A68110606D5212804D16A
:10258000002038802046FFF76BFF216888684106ED
:1025900006D5222E04D1002038812046FFF782FF85
:1025A000A86840F01000A8602046BDE8F24000F0A6
:1025B000F9BA0000806A00F1560100220A810A80FF
:1025C00000F0F0BA016851E8002F0B4642F04002DB
:1025D00043E8002100297047F369FFCF003801402C
:1025E0008800005800800040FFF4FF110024F40030
:1025F00000FD0F00FEFFFFEF714900E0714981B05F
:102600000A6802430A60096808400090009801B017
:10261000704780B54FF40020FFF7F0FF0022002143
:102620002E2000F0CFFFBDE802402E2000F0E8BFD2
:1026300000686549884200D0704780B54FF480102B
:10264000FFF7DCFF002200212C2000F0BBFF2C2034
:1026500000F0D6FF002200212D2000F0B3FFBDE8DE
:1026600002402D2000F0CCBF38B58AB004461421BA
:10267000684601F01BF82068544A554990423CD105
:102680000868544D40F001000860096801F001013C
:10269000059105980120FFF7AFFF0221019100226B
:1026A00002920C20032100900391082204926946B3
:1026B0004FF0904000F0FEFF47482860112100F0E5
:1026C0004EF808B101F066FA4FF0885000210690EC
:1026D0000791ADF820100122099206A9284601F0C1
:1026E0005BFA08B101F056FAA567AC62002200213E
:1026F000252000F067FF25202DE0384A90422CD19C
:102700004868374D40F480404860486800F4804095
:10271000059005980220FFF76FFF02210191012229
:102720000292C0200321009003910722049269467F
:102730002C4800F0BFFF2C4828600F2100F00FF854
:1027400008B101F027FAA567AC620022002124201D
:1027500000F038FF242000F053FF0BB030BD69605B
:1027600000201022E86080216861A861E861286289
:10277000AA602961284600F03DB81CB504461B49F3
:10278000206888421AD101F02FFA01F02DFA18487A
:10279000816B41F440718163816B41F4004181633D
:1027A000026842F480620260006800F48060009079
:1027B00000982046BDE8164001F029BA13BD00007C
:1027C0004C00005850000058000C00580080004099
:1027D0005C000058202400204400024000380140E2
:1027E00080240020000400484404024000280040E7
:1027F0005800005838B5040001D1012032BD2168CD
:10280000DFF87823914204F1240500F046F8022114
:10281000697020680268A068E16823686FF30E128F
:10282000024320690A4361690243A0690A43E169DE
:102830000243206A0A4302431A60204600F071F9FD
:10284000A068B0F5804F04BF002161602079696AFB
:1028500000F03F0000F014F838B1052805D22046FA
:1028600000F07CF900F012F803E0002028636863B0
:10287000A8630021A961012068702970002032BD81
:102880000860A96AE86A486060687047296B0020A0
:102890000860696BA86B486070470BD2DFF8E002F4
:1028A00041181423B1FBF3F18900DFF8D822296223
:1028B000EA617047DFF8D00241181422B1FBF2F14F
:1028C0008900DFF8C8022962E8617047F8B504465C
:1028D00004F1240600253078012801D10220F2BD40
:1028E000012030707778012F2BD102207070B561F4
:1028F000206807687F087F000760204600F0F5F831
:102900002168F06820B10A6842F00E020A6008E00F
:10291000086820F0040008602068016841F00A019E
:102920000160706A0168CA0301D500F078F8306B65
:1029300008B100F074F82068016841F001010160FD
:1029400001E0357002252846F2BD40B100F12401B6
:102950004A78022A05D00420886100220A700120EA
:1029600070470268136823F00E0313604A6A136805
:1029700023F48073136000680268520852000260FA
:10298000012091F82020CB6902F01C029040586091
:102990008A6AC86A5060086B30B1026822F480729B
:1029A0000260486B8A6B426001224A700020087006
:1029B000704738B500F1240200245178022903D071
:1029C00004209061012428E001680B6823F00E03C5
:1029D0000B6001680D686D086D000D60516A0B6831
:1029E00023F480730B60012192F82030D56903F045
:1029F0001C0399406960936AD16A5960116B31B1C7
:102A00000B6823F480730B60516B936B4B60012355
:102A100053701470516901B18847204632BD016876
:102A200041F4807101607047F8B500F1240104237E
:102A3000CA6914680268156891F8206006F01C06DF
:102A400003FA06F73C4210D06F070ED51468A506AE
:102A500003D4146824F00404146000F03DF8C9683D
:102A6000002938D0BDE8F4400847022303FA06F7EE
:102A70003C4213D0AF0711D51468A50605D41468DD
:102A800024F00A04146001224A7000F025F80022A4
:102A90000A708968F9B1BDE8F4400847082303FAD1
:102AA00006F6344217D02B0715D5146824F00E040F
:102AB0001460012291F82030CC6903F01C039A4085
:102AC000626001228A614A7000220A70096911B1AC
:102AD000BDE8F4400847F1BD91F82020CC6902F030
:102AE0001C02934063607047000070B5C56C046DB4
:102AF0006C60446D14B1856DC46D6C60012490F8F8
:102B00004450066C05F01C05AC40746004686360BA
:102B10008068102802D1A260E16070BDA160E2600F
:102B200070BD10B5416C0268144B89089A4239BFD8
:102B3000174C04EB8101174B03EB8101816402F018
:102B4000FF02083A1421B2FBF1F1012301F01F0149
:102B5000114AC26403FA01F1016510BD01790F4AFF
:102B60000F4B836501F03F0102EB81024265491E74
:102B7000012201F003018A40C26570470804024047
:102B8000F8FFFDBF00000240F8FBFDBF000402405B
:102B9000000802401C08024080080240FC08024075
:102BA000400902407047704710B500F180010A7873
:102BB000012A01D1022010BD01220A7024234B609A
:102BC0000268136814686408640014600022426696
:102BD00023F000530068036020224A6000230B703A
:102BE000002010BD70B500F01FF801D1022070BDAB
:102BF00000F020F822F0604209E070B500F014F80F
:102C000001D1022070BD00F015F822F0606211437E
:102C10008160204600F01CF8206806602021696071
:102C200000222A70002070BD044604F18005287837
:102C3000012870470120287024226A6020680668F5
:102C400002685208520002602068826870470000E3
:102C500030B5416E00F1680211B90120508015E0D5
:102C6000006800BF0FF228040BA381688068400F42
:102C7000490E255C185CED0001F0070195FBF0F0B2
:102C80005080645C585CE40094FBF0F0108030BD30
:102C90000101010307010000080402040801010109
:102CA0007047000038B5002488B90F4D0F482B60DD
:102CB0000F4B0360FEF7F6FF012805D007D303286A
:102CC00004D038BF022402E0012400E0032420469F
:102CD00032BD00680649884204D1034A10680028C2
:102CE00018BF00477047000084260020FC21002008
:102CF00000380140704770474FF0B040006800F066
:102D0000F000B02888BFB0207047DFF804080068E2
:102D1000000100F0F00070472DE9F041040051D0AF
:102D2000207881064FF0B04537D5A868E96810F0E3
:102D30000C0001F0030103D00C2808BF012943D186
:102D40002868810702D5E06900283BD0FFF7D4FF4F
:102D5000616A88420CD2084600F08EFB002831D10F
:102D60002968606A21F0F001014300F033FA09E0BC
:102D7000286820F0F000014300F02CFA606A00F0AF
:102D80007BFBF8B900F051FBDFF888170860DFF82B
:102D90008807006800F054FFA0B92078C1076CD5FF
:102DA000A868E96800F00C00082801F0030103D0CE
:102DB0000C2808BF032937D1286881035DD56068D6
:102DC00000285AD10120FFE1E069E8B1296841F00B
:102DD000010100F0EBFA06462868800706D400F0EF
:102DE000CFFB801B0328F7D30320EDE12868616A3D
:102DF00020F0F000084328606868216A20F47F40D2
:102E000040EA01206860C8E728684008400000F0F8
:102E10009DFB0646286800F0D9F9BED000F0B0FB53
:102E2000801B0328F6D3DFE76068B0F5803F04D14C
:102E3000296841F48031296003E0286820F480305B
:102E40002860606858B100F09BFB06462868800344
:102E500013D400F095FB801B6528F7D3C4E700F07E
:102E60008FFB06462868400C10F0010005D000F0EA
:102E700087FB801B6528F5D3B6E72078810718D536
:102E8000A868E96800F00C00042801F0030103D0F1
:102E90000C2808BF02292AD12868410502D5E0681C
:102EA00000288FD06868216920F0FE4040EA016068
:102EB00068602168DFF8646611F0180F58D0606907
:102EC000002879D0C806706859D5800731D4716858
:102ED00041F00101716000F053FB07467068800704
:102EE00027D400F04DFBC01B0328F7D37CE7E06834
:102EF00070B1296841F4807100F058FA06462868DC
:102F00004005CFD400F03CFB801B0328F7D36BE7D0
:102F1000286820F4807000F019FB06462868800AB3
:102F200010F00100C5D000F02BFB801B0328F5D367
:102F30005AE7706840F0040000F055F907467068E1
:102F4000000705D400F01CFBC01B0428F7D34BE797
:102F50007068A16920F4706040EA012070607068B8
:102F60004008400000F03FF90746706800F02EF975
:102F700033D000F005FBC01B0328F6D334E740F044
:102F8000010000F030F907467068800705D400F0B2
:102F9000F7FAC01B0328F7D326E7706820F0040077
:102FA00070607068C00810F0010016D000F0E8FAF8
:102FB000C01B0428F5D317E7706820F0040000F068
:102FC00012F907467068C00810F00100C7D000F081
:102FD000D7FAC01B0428F5D306E7207841074BD564
:102FE000DFF83C753868C1050ED400F0FDFD00F037
:102FF000C7FA80463868C10506D400F0C1FAA0EBD4
:1030000008000328F6D3EFE6A068012804D1306851
:1030100040F00100306010E00528306806D140F033
:1030200004003060316841F0010105E040084000D3
:103030003060316821F004013160A06841F28937C5
:1030400060B100F09DFA80463068800714D400F02B
:1030500097FAA0EB0800B842F6D3C5E600F090FA64
:103060008046306800F0B2F806D000F089FAA0EB94
:103070000800B842F5D3B7E62078410620D5A06A0B
:103080000028B0680DD040F0010000F088F9074634
:10309000B068800714D400F073FAC01B0328F7D37C
:1030A000A2E64008400000F07AF90746B06800F058
:1030B0008DF805D000F064FAC01B0328F6D393E620
:1030C000E06A002800F07F80A968EA68022801F021
:1030D0000C015CD1236B02F00300984202BF02F0A6
:1030E0007000636B984213D1A36BC2F30620984221
:1030F00002BF02F47810E36B984209D1236C02F00E
:103100006060984202BF02F06042606C82423AD036
:103110000C293DD0286841013FF554AE286820F0C5
:10312000807000F013FA06462868810105D500F08A
:1031300027FA801B0328F7D356E6E868DFF8E41384
:10314000226B0840616B1043A26B0843E16B40EABD
:103150000220226C0843616C10430843E860286831
:1031600040F080702860E96841F08051E96000F02B
:1031700007FA04462868810125D400F001FA001BF3
:103180000328F7D330E6286881011CD4E7E70C292F
:103190003FF418AE286820F080702860E968DFF8F6
:1031A000880389088900E960E9680140E96000F066
:1031B000E7F904462868810105D500F0E1F9001B14
:1031C0000328F7D310E60020BDE8F081400810F096
:1031D0000100704729606968206A21F47F4141EA53
:1031E000002169607047706000F0CAB92DE9F843AA
:1031F0000400884600F0AE80DFF8305300F0CAF8D3
:103200000CD200F0CFF8064600F0C4F806D000F06B
:10321000B7F9801B0228F7D90320B9E0207881078D
:103220004FF0B04611D5B268A06822F0F002024318
:10323000B26000F0A5F90746B068C00305D400F0FD
:103240009FF9C01B0228F7D9E6E72078DFF8C072A3
:10325000810612D53A68606922F0F00202433A60B2
:1032600000F08EF981463868800306D400F088F9B2
:10327000A0EB09000228F6D9CEE72078410613D545
:103280003868A1690009000140EA1110386000F0B7
:1032900077F981463868C00306D400F071F9A0EBD5
:1032A00009000228F6D9B7E72078410711D5B2689E
:1032B000E06822F4E0620243B26000F061F9074680
:1032C000B068800305D400F05BF9C01B0228F7D971
:1032D000A2E72078010711D5B068216920F4605079
:1032E00040EAC10000F05BF80746B068400305D42F
:1032F00000F046F9C01B0228F7D98DE72078C107F6
:103300002AD56068022818D13168890322D5B268AD
:10331000920840EA820000F042F80746B06861680F
:1033200000F00C00B0EB810F16D000F029F9C01BA3
:1033300041F289318842F1D36EE7032802D1316826
:10334000890103E00028316802D18907DFD401E058
:103350004905DCD401201BE0286800F00700804507
:103360000BD200F01FF8044600F014F805D000F06E
:1033700007F9001B0228F7D94EE700F056F8DFF8EE
:103380009411086000F092FCBDE8F24300F058BCD4
:10339000BDE8F283286800F0070040457047B06040
:1033A00000F0EEB82968C90848EAC101296000F0B8
:1033B000E7B838B54FF0B0445E4DA16811F00C018C
:1033C00006D1FFF799FCC0F3031055F8200032BD79
:1033D0000429594A05D00829584804D12168C9024E
:1033E00022D5104632BDE16801F00301022904D064
:1033F000032904D12168C90207D5104605E0FFF76B
:103400007BFCC0F3031055F82000E168E268E36834
:10341000C1F306214843C2F30211491C5B0FB0FB04
:10342000F1F05B1CB0FBF3F032BD80B5FFF7C1FFDC
:103430003F49FFE7424A0968C1F3031152F82110DE
:10344000B0FBF1F002BD80B5FFF7EFFF00F010F820
:10345000C1F3022106E080B5FFF7E7FF00F008F8AE
:10346000C1F3C22112F8211001F01F01C84002BDB2
:103470002F49344A0968704770B52E49B1282EBFCC
:10348000CC6AC0F3031051F82040FFF73EFC05461C
:1034900000F026FC2A49C5F3031251F822102A4AEB
:1034A000B4FBF1F15FF00004B1FBF2F1B0F5007F85
:1034B0002FA220461FD100BF26A353F820508D42D3
:1034C00016D2401C0328F8D9184D2868C00844EAD1
:1034D000C00000F03BF80646286800F00700A04254
:1034E00013D000F04DF8801B0328F5D3032070BDE6
:1034F00052F82040E8E700BF1AA353F820508D424D
:10350000F6D2401C0328F8D3DEE7002070BD00008F
:1035100008010058782000205C200020900000580E
:10352000000400588C80C111FFFFFEEE00400058DF
:1035300008000058F87A00080024F4000048E80168
:10354000B87A0008D87D000840420F00286000F0DB
:1035500017B8000012000000240000003600000030
:1035600040000000060000000C00000010000000F9
:103570000000000001000000020000000300000045
:1035800001484068704700BF542000207047000089
:103590000901020002D43C48815470473B4B02F0C1
:1035A0000F021A4402F8041C7047394B19684FF691
:1035B000FF020002114000F4E0600843354908436F
:1035C0001860704770B5324B1C68C4F302230124A5
:1035D000C3F10705052D2EBF0F2504FA05F56D1E55
:1035E0001E1D072E34BF0023DB1E2940994004FA1C
:1035F00003F3BDE870405B1E1A401143C8E70000AA
:10360000010007D4012200F01F01234B8A4040092A
:1036100043F82020704701000BD4012200F01F0165
:103620001E4B8A40400943F82020BFF34F8FBFF361
:103630006F8F704710B5401EB0F1807F01D301201D
:1036400010BD174C60600F214FF0FF30FFF7A0FF57
:103650000021A16007202060002010BD010007D4D8
:10366000012200F01F010F4B8A40400943F820203F
:103670007047010007D4012200F01F010A4B8A4065
:10368000400943F82020704700E400E018ED00E016
:103690000CED00E00000FA0500E100E080E100E050
:1036A00010E000E000E200E080E200E0002200F034
:1036B0001FBB00002DE9F04F00276C4A6C4B4FF008
:1036C0000F0805460E4634E06A4CA54214BF072495
:1036D00004248C40684944EA0E0441F82C40C1435C
:1036E0001C6801EA040C7468E40248BF40EA0C0C50
:1036F000C3F800C05C6801EA040C7468A40248BF07
:1037000040EA0C0CC3F804C0146801EA040C7468A5
:10371000E40348BF40EA0C0CC2F800C0546801EA58
:10372000040C7168890348BF40EA0C0CC2F804C05D
:103730007F1C316831FA07F000F081800124BC4021
:1037400014EA0100F4D04FEA470C032101FA0CF10E
:103750006FEA010E716801F00309B9F1010F1CBF96
:1037600001F00301022912D1A968D6F80C900EEAE3
:10377000010109FA0CF949EA0101A960696821EA25
:1037800004047168C1F30011B9400C436C60B900C6
:10379000347904F00304032C21D0EC68D6F80890A7
:1037A0000EEA040409FA0CF949EA0404EC603479DD
:1037B00004F00304022C12D1FC0805EB840401F090
:1037C0001C09D4F820A008FA09FB2AEA0B0AD6F84B
:1037D00010B00BFA09F949EA0A09C4F820902C68DC
:1037E0000EEA040E347904F0030404FA0CF444EAFB
:1037F0000E042C60746814F4403F99D0DFF878E030
:103800004FEA970C5EF82C4001F00C0108FA01FE1B
:1038100024EA0E0EB5F1904F08BF00240ED0174CCD
:10382000A54208BF012409D0154CA54208BF0224B7
:1038300004D0144CA5427FF447AF032449E7BDE808
:10384000F08F0069084018BF0120C0B270470AB16C
:1038500081617047816270470B4A136803421CBF45
:10386000106000F07DBB7047000000008008005829
:1038700000080058001000480800014000040048FB
:1038800000080048000C00480C080058B14900E04E
:10389000B14981B00A6802430A6009680840009093
:1038A000009801B070471CB5AC49AD4C4FF40040D6
:1038B000086000F0E7F9606C40010ED5606CC00054
:1038C0000BD400F091F900F08FF9206C40F48030B7
:1038D0002064206C20F480302064206840F4801044
:1038E0002060216801F4801100913F2100989D48DB
:1038F00041604161016841F47C110160026942F458
:103900007C120261016841F03F010160026942F0EE
:103910003F020261002000F083FB40B180799249B0
:10392000E164E26C22F47C5242EA0022E26400F09C
:1039300017F800F073F88D480168002202600369EF
:1039400003F05003036100F0E2F800F0C4F800F067
:10395000A2F800F0E7F94FF0FF3000F075FBFAE74E
:1039600080B5AEB048211CA8FFF7A0FE1C2101A81D
:10397000FFF79CFE502108A8FFF798FE00F034F9ED
:103980007B48016821F0180101604FF480337948C9
:10399000026822F4C06242F40072026007220068EA
:1039A00000F4C06000901CA800991C9201214FF403
:1039B00080721E911F92402100221D932091279218
:1039C000FFF7AAF908B100F0E5F86F200221019095
:1039D000029100220392049205920692079201211D
:1039E00001A8FFF703FC08B100F0D4F800210E9104
:1039F0000F914FF480424FF440711891199243F6A1
:103A000003000890022110221A911B9208A800F0CE
:103A100015FC08B100F0BEF82FB000BD80B55648C7
:103A20005649016000F088FD10B1BDE80140B1E0E9
:103A300001BD10B5524C534820604FF4E1310C20C9
:103A4000606100224FF40040E06100F01BF8204666
:103A5000FEF7E8F808B100F09DF800212046FFF7D6
:103A6000C1F808B100F096F800212046FFF7C5F82C
:103A700008B100F08FF82046FFF796F808B172B64B
:103A8000FEE710BD6160A260E2602261A261226275
:103A90006262A262704700210F2210B53A4841606D
:103AA000826047F6FF710022384CC160026182617A
:103AB000C2614261046000F077FD08B172B6FEE7B2
:103AC000CA20606253216162FF21A068C008C00063
:103AD000A060616210BD80B50420FFF7D7FE022010
:103AE000FFF7D4FE0120FFF7D1FE00220F210E20A8
:103AF000FFF768FD0E20FFF783FD00220F213A201B
:103B0000FFF760FDBDE802403A20FFF779BD80B5C0
:103B10000420FFF7BDFE0120FFF7BAFEBDE802401A
:103B20000220B5E638B50446FFF72AFD14F1010F6F
:103B3000054609D000F0BDF8241805E014480168D6
:103B400021F00401016030BFFFF71AFD401BA042C5
:103B5000F4D331BD480000584C00005810400058C4
:103B600050000058040C0058FECAFECA80080058D5
:103B7000900000580004005820250020000C005838
:103B8000FC2100200038014088250020002800404A
:103B900010ED00E072B6FEE770B500F1240358782E
:103BA00001281CD11A78012A01D1022070BD5C6A5B
:103BB0000C4A187025680868CE6815400543761EC3
:103BC00048680A7A45EAC6450543487A45EA024507
:103BD00045EA4025256000211970002070BD0120B4
:103BE00070BD0000FFFD00E00248016841F48071F3
:103BF00001607047000400588A60FF21026851622A
:103C000080F82130002180F820100020704790F8C3
:103C10002010012901D102207047012180F82010D5
:103C2000022280F82120CA210368596253220168C8
:103C30004A62012301688A6842F02002FFF7DCBF74
:103C400070B50F4E044630780025A8B1FFF7EDFBA4
:103C500032784FF47A71B1FBF2F2B0FBF2F0FFF779
:103C6000E9FC48B9102C07D2002221464FF0FF3062
:103C7000FFF7A8FCB46000E00125284670BD00BF36
:103C800054200020134810B5016841F48071016090
:103C90000320FFF78AFC0020FFF7D2FF0024002852
:103CA00014BF0124FEF7B5FC204610BD0A48806809
:103CB0007047094800787047084805E007480168E0
:103CC00041F0020101607047016841F001010160AB
:103CD000704700000040005854200020042004E0F9
:103CE000DFF80800006800F4C06070470004005866
:103CF00000B500BF130096469446103928BFA0E8CF
:103D00000C50FAD85FEA417C28BF0CC048BF40F88D
:103D1000042BC90728BF20F8022B48BF00F8012B4D
:103D200000BD000010B57048704C88B0016841F4C7
:103D30000041016000F0D6FC6D480168C908C90067
:103D400041F00401016000206A4900F004FE00F027
:103D5000AAFF0121012000F0CAFC00F0D3F800F016
:103D6000E0F801F045F8644A00214FF4804000F08B
:103D7000D1F904F23C51009169460FF231020FF281
:103D80003100019201F022F904F25471029104F51C
:103D9000C96240F23C5103920591049402A801F0DB
:103DA000AFF801F023F808B010BD00007047000024
:103DB00070B5054688B0696801F10B06684601F0E8
:103DC000C8F94E4C9DF802309DF801209DF8001076
:103DD0004FEA040001F0FCF99DF804100FF2B41052
:103DE00001F0F6F99DF80C309DF80B209DF80A10B3
:103DF0006FA001F0EDF930884FF41241401A0CD059
:103E0000401E3ED0401E4CD0801E57D0401E5AD07F
:103E1000401E5BD0401E60D063E00E2104A8FFF777
:103E200045FC68680D300078F8B904F5807001F041
:103E3000CFF900F0B5FF0D217F2231488DF8101029
:103E40008DF81220D0F800406DA0240C214601F01E
:103E5000BFF9ADF81C4004A801F074F901F0CCF9E9
:103E60000021012000F043FC3BE0012806D104F5CD
:103E7000987001F0ADF90020287032E004F5AE70C2
:103E80002DE0686800F10D0504F5C470297801F093
:103E90009FF92878002814BF04F5F67004F5DA704D
:103EA0001DE004F1240001F093F9D6F80620D6F8BD
:103EB000021004F1500001F08BF912E0D6F8021064
:103EC00004F1940006E000BF3FA008E0D6F802101D
:103ED00004F1C80001F07CF903E000BF41A001F04B
:103EE00077F908B070BD00000800005830000320CA
:103EF00080040058882500200F500008E87400084E
:103F0000002004E080B5002001F018FE012001F03F
:103F100015FE022001F012FEBDE80240012001F072
:103F20002FBE80B50121002001F044FE01210120B7
:103F300001F040FEBDE804400121022001F03ABE3C
:103F400070474FF0FF3000F07FB800214FF4804001
:103F500000F0EDB8022000F00CB9022000F011B919
:103F600080B5012807D0022809D0102810D1BDE85B
:103F7000014001F034BABDE8014001F032BA00213D
:103F80004FF4806000F0D3F8BDE8014001F02BBA97
:103F900001BD0000576972656C65737320466972D4
:103FA0006D77617265206275696C642025640A0012
:103FB0004655532076657273696F6E2025642E25F1
:103FC000642E25640A0A0000534843495F53554252
:103FD0005F4556545F4E564D5F454E445F575249BC
:103FE00054450A00534843495F5355425F45565470
:103FF0005F4E564D5F454E445F45524153450A0062
:104000004442474D43555F4765745265766973690D
:104010006F6E49443D20256C78200A0A000000009C
:1040200020B501460648074D00E00838C2798A42AB
:1040300018BFA842F9D18A4218BF002020BD00BF96
:10404000F873FF1F0070FF1F2DE9F0475D4CDFF88C
:104050007891A5692840A0614FF0FF3A21694FF09F
:10406000010833E0521C54F83200616919400142E2
:10407000F8D0616904EBC206084072681840024239
:1040800008BFC6F804A07768384000F09FF808FA27
:1040900000F18F4377606062EFF3108172B608FA27
:1040A00000F22069D24310402061022004EBC003DB
:1040B00053F8086C1640401E43F8086CF6D181F3A3
:1040C0001088606A59F8201088472169A3696069DF
:1040D0000140194205D0E069216A084208BF002268
:1040E000C1D0C4F824A001F0C3FDEFF3108972B66B
:1040F00021696069A2690140114201BFE069216A3A
:104100000842FFF71DFF89F31088C046C046A5612D
:10411000BDE8F08738B51446EFF3108572B600F0AD
:1041200055F8294941F8204085F3108831BD30B554
:10413000EFF3108272B6234B1C6904431C6153F8E1
:104140003150284343F8310082F3108830BDEFF33B
:10415000108172B61B4A536923EA000005E0EFF3B1
:10416000108172B6174A53691843506181F3108861
:104170007047EFF3108172B6124AD3691843D061C9
:10418000F4E7F8B50F4C666A256A374616F1010F59
:104190000EBF0026012101FA06F6206202E0304639
:1041A000FFF7CFFE216AE0690842F8D06762EFF3BB
:1041B000108172B6E269206A8243E26181F310885D
:1041C0002562F1BD2C200020A02300200246002003
:1041D000110C090404BF1020120412F07F4F04BF19
:1041E0000830120206A312F0704F04BF001D120126
:1041F000120FC0F11F00995C401AC0B27047000056
:10420000040302020101010100000000000000009F
:10421000DFF820130A68030903F47F2300019A439F
:1042200000F47F2000F082B9DFF808231368010C46
:1042300023EA014343EA0043136070472DE9F84342
:10424000054600242878DFF8EC624106A0464FF0CE
:10425000B04742D5286B70B1B0F5800F06D0B0F5ED
:10426000000F18BFB0F5400F2DD034E0F96841F4CD
:104270008031F96028E0386820F080603860FFF70E
:104280007FF9814600F045F907D0FFF779F9A0EBF7
:1042900009000228F6D9032415E000F02BF9A968DB
:1042A00020F4781000F03AF981463868000106D40D
:1042B000FFF766F9A0EB09000228F6D9EBE73869A9
:1042C0006969084338613CB93168286B21F44001C1
:1042D0000143316001E00124A0462868010531D581
:1042E000B06800F44078286C80452AD0FFF77CFC49
:1042F000B8F1000FB16805D1286C21F44071014379
:10430000B1601EE0B06840F48030B06021F44071CC
:10431000B06820F48030B060286C0143B160B068B0
:10432000C0070ED5FFF72CF98046B068800708D487
:10433000FFF726F9A0EB080041F289318842F4D357
:104340000324A0462878C10705D53268A8699208D9
:1043500040EA820232602978880705D53168E86929
:1043600021F44061014331602978C80644BFA86A3E
:10437000FFF75AFF2878810644BFE86AFFF754FF29
:104380002878410744BF286AFFF742FF28780107D1
:1043900044BF686AFFF73CFF2868C10531D5326821
:1043A000686B22F0406202433260696BB1F1006FCA
:1043B00000F09AF8686BB0F1806F22D100F0A3F89A
:1043C000044600F0A6F807D0FFF7DAF8001B022831
:1043D000F7D94FF0030814E000F08CF8E96820F0FA
:1043E000606000F09BF804463868000105D4FFF7D0
:1043F000C7F8001B0228F7D9EBE738696969084359
:104400003861286881051CD5A86BB0F1804F18BFB2
:10441000B0F1004F00D020B9316821F0404108438D
:1044200009E0316821F04041316020F0805032686D
:1044300022F0406210433060A86BB0F1C05F00F022
:1044400053F82868410534D53268E86B22F04052B1
:1044500002433260E96BB1F1005F03D1F86840F4C8
:104460008030F860E86BB0F1805F22D100F04BF84B
:10447000044600F04EF807D0FFF782F8001B022830
:10448000F7D94FF0030814E000F034F8296920F060
:10449000604000F043F804463868000105D4FFF797
:1044A0006FF8001B0228F7D9EBE738696969084300
:1044B00038612868C10405D5F268686C22F440426E
:1044C0000243F260296888040BD5796AE86C21F010
:1044D000300101437962796AA86C890840EA810158
:1044E00079624046BDE8F28303D1F86840F08070FD
:1044F000F86070473869696820F4FE4040EA01209E
:10450000386138697047396821F080613960FFF798
:1045100037B83868C00E10F00100704708433861A2
:10452000386840F080603860FFF72AB810430860B0
:104530007047000088000058F8B504460025ACB16B
:1045400004F13406307910B92046FEF771F80F4FA8
:10455000384600F021F8386840F0011038602046F5
:1045600000F007F835600121317100E0012528468F
:10457000F2BD10B50021064A064B00EB8104491C30
:1045800006296360E261F8D310BD0000000C0058FA
:10459000AB11000833110008002101604FF03F12F9
:1045A00042603F238360704770B5040049D094F89F
:1045B000210028B9002184F820102046FEF7DDF8FC
:1045C00000F04EF853202168486200F052F8FF25B1
:1045D00010B100F03FF834E02168DFF89C008A68F1
:1045E00002408A602268936866682169A0690E4368
:1045F0000643334393602068E168016120680169E4
:10460000A26841EA024101612068C16821F080018D
:10461000C1602068C16C89088900C1642168CA6CC6
:10462000E369606903431A43CA64216888688106A4
:1046300009D400F01CF830B100F00CF8002084F828
:104640002000012070BD20684562012184F82110FE
:10465000002070BD20684562042184F82110704755
:10466000022084F82100CA21226851627047204646
:1046700004E020461BE00000BFFF8FFF38B5044672
:104680002068C16821F0A001C160FEF779FF0546EE
:104690002068C168880608D4FEF772FF401B40F20C
:1046A000E9318842F4D3032032BD002032BD38B551
:1046B00004462068C1684A0612D44FF0FF31C16039
:1046C000FEF75EFF05462068C168480608D4FEF77D
:1046D00057FF401B40F2E9318842F4D3032032BD3A
:1046E000002032BD0D48002101604160704710B5C7
:1046F00000F007F85C6800F009F85C6082F310884D
:1047000010BDEFF3108272B6044B704719B1012946
:1047100002D10443704784437047000050260020B4
:10472000DFF840150A6892B200E00246086880B2DD
:104730008242FAD17047F0B5DFF82C35DFF82C55FE
:104740001E78182402466243B0422A4404D11878E5
:104750005870547D1C700FE0167D507D92F815C086
:1047600005F115076643062807F806C004D0167D34
:10477000143514FB00F42E55012010731A78062A04
:1047800002BF00294FF0FF305860F0BD10B5DFF8D0
:10479000D844606810F1010F10D0FFF7C1FF6168C5
:1047A000DFF8CC2481422FBF636861685388CB183F
:1047B00051781278181A4843D04000E0002080B2A7
:1047C00010BD2DE9F84FDFF8A854DFF8A8B4D5F8EC
:1047D0000880D8F80000DBF800104A0500F098F9CE
:1047E000DFF88464DFF884A421F4806181604FF0F5
:1047F000180934780AF1080019FB04F14758FFF74B
:10480000C5FF874202D20027012105E0A98841188F
:10481000B94203D2AF880021B17015E001223F1ADE
:10482000B27011E00A590AF10803121A1A5108E08D
:1048300019FB04F40AF108010A598242F2D200235A
:104840000B510AEB04014C7D062CF1D1B8B238B9FA
:10485000FFF766FF70600320BDE8F24FFEF7FEBE73
:10486000022802DA2878012800D07F1ED8F800003C
:10487000C1684A07FAD500F051F9DBF80C00000CCA
:10488000BFB247EA0047CBF80C70FFF749FF7060F2
:10489000A8680068816841F480618160AFF300809E
:1048A000BDE8F18F2DE9F843EFF3108872B6DFF819
:1048B000C053DFF8B833A8680168CA224A6253209F
:1048C000486218208A6822F480628A60DFF89823A0
:1048D0001678374647431F44387B022823D13C686B
:1048E000D7F810909078D8B17A7B012A0AD10121AB
:1048F0003046FFF720FF88F310887968304600F0D3
:104900001AF904E088F31088304600F0C7F8A86868
:1049100000F01BF831462246484600F0B5F90EE09B
:10492000FFF74FFF09E0C8684207FCD500F087F8A1
:104930004FF40020DFF84013086088F31088FF224E
:10494000A86801684A62BDE8F1830068CA21416233
:10495000532242627047F8B5C54CA160CA2209686B
:104960004A625323C34A4B62156845F0200515601F
:10497000136803F00703C3F10403237095682D0C3B
:1049800005F07F056D1C6570EDB29268C2F30E02F2
:10499000521C628092B2521E6A43A2F5A072DA40A3
:1049A0004FF6FF739A422CBFA380A280B34A1368CC
:1049B00043F400231360B24B1D6845F400251D60CD
:1049C00048BBA948012383704FF0FF3545600023A1
:1049D000A64D00260C355FFA83FC182717FB0CFC4C
:1049E0005B1CDFB205F80C60062FF4DB06230370B6
:1049F000886820F48060886000F021F84FF400217E
:104A0000D1600320FEF735FEA0680068816841F49C
:104A10008041816005E0C868410544BF0320FEF77E
:104A20001DFEA1680A68FF205062002203210320B6
:104A3000FEF7C8FDBDE8F2400320FEF7E1BDC868FF
:104A400000F0800060F49060C86070472DE9F0418C
:104A500004460025EFF3108672B61827DFF80CC263
:104A60000CF10C0E07FB05F81EF8080010B16D1CC8
:104A7000062DF5DB062D0CD06F430CEB070001274C
:104A8000077386F310880461427303600D70002081
:104A900002E086F310880120BDE8F081F8B50746F2
:104AA000EFF3108472B60320FEF7B5FD704DAE68CB
:104AB0003068FFF74BFF3B46182072494343CA5CFE
:104AC000022A1BD100213846FFF735FE66480178DF
:104AD00006290ED1306867490A68530500F018F8B6
:104AE00021F480618160C1684A07FCD500F016F8A6
:104AF00004E04078884218BFFFF763FEA9680A689F
:104B0000FF2050620320FEF77BFD84F31088F1BD87
:104B100002D5C1684A07FCD481687047C16801F0BA
:104B2000800161F49061C1604FF400205249086037
:104B30000320FEF79EBD2DE9F04704461825DFF857
:104B40002CA168430AEB00070E46397B022904BFFB
:104B50002046FFF7A3FFEFF3108972B60320FEF79C
:104B60005AFDDFF80C81D8F80800FFF7EEFE0220AE
:104B70003873BE607E603C4E3078062808D13178AC
:104B80007170347078754FF0FF317160002052E021
:104B9000FFF7FCFDB9680918B9600AF10803B968A4
:104BA00032786A439A58914228D3327803E00AF166
:104BB00015036A439A5C0AF1150315FB02FC13F80E
:104BC0000C30062B06D00AF1080C6B435CF803305E
:104BD0009942ECD2114669430AF1150E1EF80130D4
:104BE000062B05D00AF1140C15FB03F50CF8054053
:104BF0007B753A750AF1150254541CE0317833780C
:104C0000994215FB01F20FD00AF1140E0AF1150CAE
:104C10001EF8023015FB03F50CF8054079753B755D
:104C20000AF114018C5403E00AF1140379759C54C1
:104C3000317871703470317872788A4202D0FFF71F
:104C4000C0FD02E0B968081AB860FF20D8F8081063
:104C50000A6850620320FEF7D3FC89F31088BDE890
:104C6000F087000028280040782600208C220020B1
:104C70003C260020082800400C0800580008005876
:104C80008008005898220020104700003E4900E0AC
:104C90003E4981B00A6802430A60096808400090F2
:104CA000009801B07047F0B585B0FFF705F8FFF741
:104CB00005F83748016841F480310160002600F0B2
:104CC000F4FF14216846FEF7F1FC002500240021C2
:104CD000304A02EBC102907988B11368B3F1904F6A
:104CE0000BD02D4FBB4205D02C4FBB4207D1908833
:104CF000044304E09288154301E090880643491C70
:104D00002629E5DB00210291012203210192039172
:104D1000B0B288B100900120FFF7B8FF0120FFF783
:104D2000B7FF69464FF09040FEF7C4FC0022B1B2D5
:104D30004FF09040FEF78BFDA8B280B100900220AA
:104D4000FFF7A4FF0220FFF7A3FF134E694630468A
:104D5000FEF7B0FC0022A9B23046FEF778FDA0B203
:104D600080B100900420FFF791FF0420FFF790FF2F
:104D70000A4D69462846FEF79DFC0022A1B228464E
:104D8000FEF765FD05B0F0BD4C0000584C01005821
:104D9000900800586878000800040048000800489F
:104DA00000B587B04FEA0D0009A11C22FCF72AFAD2
:104DB00000F0DBF8684600F0BDF907B000BDFEF773
:104DC00038BE13460A4601460020FDF76BBF0000BF
:104DD00000000000000000000000000068780008EB
:104DE000280003202C0003202604040001F00DB845
:104DF0006C486D49016001F12002426001F130030D
:104E0000836001F13C02026201F14403436201F15B
:104E10004C02C26001F15403036101F1700242616E
:104E200001F1740383618031C16101F00CB838B5C0
:104E300004465E4D284601F069F85A494868A16861
:104E40000160E2685A49C2604160856001F017F86C
:104E500058482AE080B55348426813680121197206
:104E6000406801F012F8002002BD38B5514C4F4D9A
:104E700004E000F041F8009821688847284601F0D6
:104E800048F80028F5D031BD4A484168084738B590
:104E90000446494D2846006040604249C868A16800
:104EA0000160456000F0F6FF4448216801606268D7
:104EB0004260002032BD80B53A48C26813681021B4
:104EC0001972C06800F0ECFF002002BD3548C168CF
:104ED000C2683A4910680B68184738B5374C364DE8
:104EE00004E000F009F8009861688847284601F05E
:104EF00010F80028F5D031BD6946284601F032B8D7
:104F000038B504462E4D284601F000F82D480060C3
:104F1000406024480069A1688160E268C260056160
:104F20002168016062684260216941616269826151
:104F300031BD80B50146234800F0FEFFBDE80240C8
:104F40000FF2050000F0B5BF38B5164C1D4D06E058
:104F5000FFF7D2FF00992069006900F0EDFF2846B5
:104F600000F0D7FF0028F3D031BD10B5164C204615
:104F7000006040600B4948690460BDE8104000F0E3
:104F8000ACBF1CB5104C06E06946204600F0EAFFB5
:104F90000098C046C046204600F0BBFF0028F3D072
:104FA00013BD000000000320AC090320480A0320C1
:104FB0009008032060260020500A03206826002065
:104FC000380A032058260020400A03207FB50C46EB
:104FD0004E4D61684E4EE8612962284600F0D4FFCC
:104FE0002468746006F1080000604060012000F051
:104FF00069F801203070296841B10FF2ED020FF21B
:10500000F103009201930294684688477FBD1FB563
:105010003F4C04F1080000F07CFFD8B92078C8B1FB
:10502000694604F1080000F09DFF3848C169E9B104
:10503000009A029201238DF8043001A888479DF858
:105040000400010013D10020207004F10800009931
:1050500000F068FF04F1080000F05BFF28B9207839
:1050600018B104F10800FEF770FF1FBD0120207089
:105070000098FFF75EFFEDE72DE9F04105460E468B
:1050800090461C46002000F01DF8214F7868A0F8DB
:105090000950C672324641460C30FCF7B3F81B4A41
:1050A000136900210020984748F2E800FEF755FFF9
:1050B00079688A78D21C04F10800FCF7A3F8BDE8EF
:1050C000F041012010B51149124C096A20B901B113
:1050D00088470021217010BD0120207011B1BDE86A
:1050E0001040084710BD00000020FEF733BF00004D
:1050F00010B50146064C04F1080000F01DFF04F154
:105100000800BDE81040FEF720BF0000AC250020DD
:105110002C2600208C260020FFF7AEFF9DF80E0005
:1051200005B000BDF8B500F10C026B4625214FF625
:105130006640F1E7F8B500F10C026B460F214FF61F
:105140006840E9E7F8B502466B460E214FF6754018
:10515000E2E7F0B51B491C4B0A681C49C2F30D027B
:1051600001EB82010C6822689A4205D16569A16948
:10517000E269E368246904E025696169A2696368FA
:10518000A4682E0E06702F0C47702E0A86700172CE
:105190004272C5F3031605F00F0505711A0C0D0ECA
:1051A000C6704571C2720E0C0D0A190E81721B0A6F
:1051B000210E220C8671C571037341738273C4730F
:1051C0000020F0BD3C400058B95646A9000003201D
:1051D0000EB4C0B5024603A800210190009101ABB6
:1051E0000121044878440C30FAF7A8FF06BC5DF8AA
:1051F00010FB00BF532C000070B596B009A8DFF873
:10520000F415DFF8F4453422FBF7FCFF0FF20150F0
:105210000190009469460FF2E14000F0BFFE0121C9
:105220000220FFF764FADFF8D42500212020FEF7E2
:1052300071FF09A8FFF776FF08B1FEF7ABFC0FF28C
:10524000FC50DFF8BC550088DFF8B845ADF81A000F
:1052500000F07CFF286810F1010F0DD06968207004
:10526000090A000A60700A0A6868E170A070090CF7
:1052700022716171204605E00020FEF7D1FE08B9D9
:105280000FF6540002460621002001F023F84EF6E6
:105290006E51089107AA2868DFF86C55DFF86C6535
:1052A000079006212E2001F015F80FF63402102188
:1052B000182001F00FF80FF638021021082001F035
:1052C00009F81821012001F029F801F058F80DF132
:1052D000160006A90190009105AB072200210120CC
:1052E00001F055FA0FF25850BDF81810009009233C
:1052F000BDF81400002201F0FFF80DF11A00009033
:105300000223BDF81610BDF81400002201F0F4F8D5
:105310000120287001F0DDF900F032F8012028703A
:1053200001F0D7F900F02CF8A87808B101F098FA4C
:1053300001F048FB0120207400210FF221324FF4CC
:105340000060FEF7E7FE0FF29533002204F1110131
:105350000020FFF77BFB0FF2950200214FF48050F5
:10536000FEF7D8FE002085F8800001F08BFA01F0EE
:105370009BFB00214FF40060FEF7D9FE16B070BD14
:105380000120687008211020297168710121012015
:10539000E970A870002110200823049101220190D7
:1053A00000930292AE60039600230121012001F0D8
:1053B000A4B930B50346002000240BE09A5C5040AD
:1053C00008224500000654BF284685F09700521E6B
:1053D000F7D1641CE2B28A42F0D3C0B230BD01F012
:1053E00093BB01F096BB01F099BB000010B50FF222
:1053F0005C40DFF81444FFF7EBFEE08A40F6480219
:10540000FB2100F0D0FE18B10FF25440FFF7E0FE90
:10541000E08ABDE8104001F06DBC2DE9F84F2DED9C
:10542000028B044600206178DFF8DC53DFF8E0A34C
:10543000052905D03E290BD0FF2900F09680E9E030
:105440000FF23C40FFF7C4FE00214FF40060B2E0D1
:10545000E1780FF2A0490FF28448DFF8A8630A2729
:1054600001290FF2FC2BB7EE048A11D0022947D094
:1054700003292CD00C29E2D1217929B90FF21C4043
:10548000FFF7A6FE58469EE05046FFF7A1FE9CE0BF
:10549000B4F80500E8820FF22440FFF799FEB4F853
:1054A0000F0000F0C5F800F0CDF8B4F81110484630
:1054B000FFF78EFEB4F8130000F0B1F800F0C7F863
:1054C0005846FFF785FE00214FF4805073E001201D
:1054D00030740FF23440FFF77BFEB4F8070000F0A1
:1054E000A7F800F0AFF8B4F809104846FFF770FECF
:1054F000B4F80B0000F093F800F0A9F8584687E0E4
:10550000617994F80DB0002941D18046D8453EDA42
:1055100004EB0800C17B877BFF2923D1072F21DB08
:10552000007C01281ED10FF2FC30FFF751FE04EB86
:105530000800407C882815D10AF14800FFF748FE92
:10554000012085F88000E1793172207A7072617AE9
:10555000B172A07AF072E17A3173207B707302200D
:1055600001F0A9F97F1CB844D0E7B4F8030040F279
:105570000141401A25D0401E2BD0401F08D0801E6C
:1055800030D040F60D01401A08BF01F0CCFA41E0DE
:105590006279022A3ED1A07910B10AF16C0037E09D
:1055A00000F0F6FA95F8800040B10AF19800FFF794
:1055B0000FFE00210220FEF7BAFD2BE00AF1C80021
:1055C00026E00FF28030FFF703FE0420FEF7D1FD46
:1055D00020E00AF58670FFF7FBFDE88A8B4901F0B1
:1055E000BBF817E00AF59C70FFF7F2FDD4F807103E
:1055F0000FF26430FFF7ECFDD4F807100FF27030B3
:10560000FFF7E6FDE88A012101F0B3F90FF27430EB
:10561000FFF7DEFDBDEC028B0120BDE8F28F4743B2
:1056200000EE107AB8EEC00A10EE100A01F09ABB34
:1056300000EE100AB8EE400A20EE080A10EE100A3A
:1056400001F090BB02460B464046FFF7C1BD024643
:105650000B460AF12400FFF7BBBD000030B587B050
:10566000082006210690059100220FF29440694C13
:1056700004920A21002302900191009203933022A8
:105680002021002000F0D4FFA0B900BFC2A5284609
:10569000FFF79EFD2046FFF79BFD2846FFF798FD8C
:1056A000BFA0FFF795FD00BFC5A0FFF791FD00BFAC
:1056B000C5A001E004F12400FFF78AFD0FF24C4180
:1056C000162001F0B3F830B10DF11C0DBDE83040EB
:1056D000C4A0FFF77DBD07B030BD000000218020D1
:1056E000FEF725BD00212020FEF721BD0120FEF799
:1056F00040BD0120FEF745BD10B50446616801F1CB
:10570000080001F06FF900B10120207010BD000009
:1057100043F6FF7110B1012803D070470846FEF729
:1057200016BD0846FEF71BBD3648017C012900D096
:10573000704738B5002202744FF4FA7000900023CD
:10574000314D354CE88A0622062101F02FFB002856
:105750000CBF204604F13000BDE83240FFF738BDF1
:105760000D0A0D001CB5284CE08A01AA0DF10501B7
:1057700000F05BFD50BB00BF0FF28820FFF728FD53
:105780009DF804209DF805100FF28420FFF720FDFE
:105790009DF80510A5A0022904BF9DF80410022958
:1057A00007D101220121FFF713FD00200090012302
:1057B00006E002220221FFF70BFD002000900223E9
:1057C000E08A1A46002100F063FD13BD9DA0FFF79B
:1057D000FFFC13BD80B50C49C88A01F00EF8BDE886
:1057E000024000280CBF0FF278200FF29420FFF740
:1057F000EFBC0000B47C0008A0080320DB5F0008B9
:105800008075FF1F082600201C23002007B201001E
:10581000087700086C7C0008C47B000880B501F0A4
:1058200031F8BDE8024000280CBF0FF270200FF2E3
:105830008C20FFF7CDBC01F077BB000040030000D7
:1058400044545F6465766963650000007365742085
:1058500064617461206C656E677468200A000000E2
:105860007365742064617461206C656E6774682070
:10587000636F6D6D616E64206572726F72200A00D5
:10588000444953434F4E4E454354494F4E20434F96
:105890004D504C455445200A000000002A2A55501E
:1058A000444154452050485920434F4D504C455495
:1058B000452053554343455353200A00434F4E4E12
:1058C000454354494F4E20434F4D504C4554454459
:1058D000202D20534C415645200A00002A2A494ECB
:1058E00054455256414C203D20252E3266206D7382
:1058F000200A00002A2A4C4154454E4359203D209D
:1059000030782578200A0000434F4E4E45435449D5
:105910004F4E2055504441544520434F4D504C4527
:1059200054450A002D2D2D205354204D414E5546EF
:1059300041435455524552204944202D2D2D200AD3
:105940000000000050616972696E6720636F6D70BE
:105950006C657465200A00006E756D657269635F21
:1059600076616C7565203D20256C640A000000009E
:105970004865785F76616C7565203D20256C780AF6
:10598000000000000D0A0D2A2A20434F4E464952BE
:105990004D20594553200A0020200D0A0D0000001B
:1059A0002A2A2053544152542041445645525449C6
:1059B00053494E47202A2A20200D0A0D00000000DE
:1059C00020200D0A000000002A2A204E414D4520CB
:1059D0003A20445420534552564552202A2A20202A
:1059E0000D0A0D002A2A2061646420414456206477
:1059F000617461202A2A20204661696C6564200D4B
:105A00000A0D00005245414420504859203A2000D8
:105A100050485920506172616D202054583D202516
:105A2000642C2052583D202564200A002A2A54580C
:105A30003D2025642C202A2A52583D202564200A26
:105A4000000000005265616420636F6E66206E6F17
:105A500074207375636365657373200A000000002A
:105A6000736C617665207265712073656375726908
:105A7000747920636D64204F4B206F6B0A00000027
:105A8000736C6176652072657120736563757269E8
:105A9000747920636D64204E4F4B0A00636C65611E
:105AA0007220736563757269747920646220636D16
:105AB00064204F4B206F6B0A00000000636C65612F
:105AC0007220736563757269747920646220206343
:105AD0006D64204E4F4B0A003333332222220000E4
