:020000040800F2
:10000000081000207D9300084D9100084F910008D2
:10001000519100085391000855910008000000001C
:1000200000000000000000000000000057910008E0
:1000300059910008000000005B9100085D910008E4
:100040009F930008A3930008A793000861910008FC
:10005000AB930008AF930008659100086B9100080E
:10006000B3930008B793000871910008BB93000890
:10007000BF930008C393000877910008C793000856
:10008000CB930008CF930008D3930008D7930008C0
:10009000DB930008DF930008E3930008E793000870
:1000A000EB930008EF930008F3930008F793000820
:1000B000FB930008FF9300080394000807940008CE
:1000C0000B9400080F94000813940008179400087C
:1000D0007D910008839100081B9400081F9400087C
:1000E00023940008279400082B9400082F940008FC
:1000F000899100088D9100089191000833940008BF
:10010000379400083B9400083F940008439400088B
:10011000479400084B9400084F940008539400083B
:10012000579400085B940008959100085F940008BC
:1001300063940008679400086B94000810B590B0B1
:1001400002A80FF2A801DFF80C46382201F008F9E6
:100150000FF25D600190009469460FF23D6001F07E
:100160000BF90121022001F0F0F9DFF8EC25002164
:10017000042001F06CFA02A801F0F6FA08B101F0CF
:1001800088FC00F03DF901F085FCDFF8D0450FF266
:100190001D52002084F8800000214FF6FF70E0829D
:1001A000012001F054FA0FF23D520021022001F02B
:1001B0004EFA062001F0DEFC28B101460FF2046081
:1001C00001F00AFD03E00FF2406001F005FDDFF8E9
:1001D0009005002101700121417001F0A2FD002075
:1001E0002083012000F030FA10B010BD00000000A4
:1001F00000000000000000000000000000000000FF
:10020000440008004005020112279C00F401000090
:10021000FFFFFFFF480101000020000000037206FD
:10022000000000002DE9F0412DED028B044684B062
:100230006078DFF82C65DFF82455052804D03E28C7
:100240001BD0FF286FD0CBE0A088E98A88420DD16F
:100250000020E88285F880000FF2E45001F0BCFC39
:10026000A279A1880FF2046001F0B6FC012000F031
:10027000EBF901203071E88A50E0E0780FF25C6819
:100280000A2701289FED5C8B17D0032814D10FF2A9
:10029000186001F0A1FCB4F80B0047430197B4F8D3
:1002A00009000090B4F8070001F0B2FD53EC182BE0
:1002B00001F0D8FD00F09AF892E0B4F805100FF2C2
:1002C000886001F089FC607A0290A07A0190E07A5F
:1002D0000090237B627BA17B0FF2B46001F07CFC79
:1002E000B4F8130047430197B4F811000090B4F834
:1002F0000F0001F08DFD53EC182B01F0B3FD00F061
:1003000075F895F8800004280CBF0620052085F8B4
:1003100080000021B4F80500E8823171F080301DC2
:1003200001F0FEFC5CE0B4F8030040F20141401A29
:1003300043D0401E12D0401F0AD0801E1FD0401E46
:1003400009D040F2F631401A4AD10120707047E0DE
:100350000FF28C6042E00FF2B0603FE00FF2D86025
:1003600001F03AFCE88ADFF8FC1301F0F3FE01002B
:1003700018BF0FF2EC601AD10FF218702EE00FF2D6
:100380003C7001F029FCD4F807100FF2647001F002
:1003900023FCD4F807100FF2747001F01DFCE88AFA
:1003A000012101F08DFF28B101460FF2787001F0B4
:1003B00013FC15E00FF2BC7010E00FF6000001F026
:1003C0000BFCE17929B1227A0FF61C0001F004FC44
:1003D00003E00FF6500001F0FFFBC1A001F0FCFBB1
:1003E00004B00120BDEC028BBDE8F08102460B4653
:1003F000404601F0F1BB0000000000000000F43FA7
:1004000018B587B00020ADF81A000FF6300001F0E3
:10041000E3FB01F080FF010004D00FF64C0001F077
:10042000DBFB03E00FF6700001F0D6FBCE4801685D
:1004300011F1010F0DD0CD4C42682170120A090A4A
:1004400061704068A070E270100A120C2071627135
:1004500006E0002001F0BEFF040008BF0FF2C01448
:1004600022460621002001F050FB28B101460FF67C
:10047000480001F0B1FB10E00FF6980001F0ACFB72
:100480002078029060780190A0780090E37822793B
:1004900061790FF6CC0001F09FFB0FF28C12102156
:1004A000182001F032FB28B101460FF6F00001F0F0
:1004B00093FB03E00FF63C1001F08EFB0FF2781275
:1004C0001021082001F021FB28B101460FF66C1025
:1004D00001F082FB03E00FF6BC1001F07DFB192157
:1004E000012001F039FB28B101460FF6F01001F0B0
:1004F00073FB03E00FF6242001F06EFB01F07CFF9C
:1005000028B101460FF6442001F066FB03E00FF628
:10051000702001F061FB0DF1160006A90190009119
:1005200005AB09220021012001F031FE28B101466E
:100530000FF67C2001F050FB03E00FF6A42001F041
:100540004BFB0FF66020BDF8181000900923BDF892
:100550001400002202F010F80DF11A00009002239E
:10056000BDF81610BDF81400002202F005F80222B2
:100570000221002001F0EFFE28B101460FF6842091
:1005800001F02AFB03E00FF6B82001F025FB734CC5
:100590000120207001F092FD28B101460FF6CC2019
:1005A00001F01AFB03E00FF6043001F015FB012007
:1005B0006070002108202071A170102060710491EA
:1005C0000020E07010216748A060039008220020FE
:1005D00001910092029000230122012101F087FD88
:1005E00028B101460FF6F42001F0F6FA03E00FF609
:1005F000383001F0F1FAA07860B101F00BFE28B1BB
:1006000001460FF6603001F0E7FA03E00FF6943090
:1006100001F0E2FA0FF6BC3001F0DEFA08B010BDCE
:100620006C7AD8AC57720000123456789ABCDEF05F
:10063000123456789ABCDEF0FEDCBA098765432195
:10064000FEDCBA0987654321444900B581F8800082
:1006500087B0002000230690059004900393029039
:1006600001900090A022802101F0DFFC010004D065
:100670000FF68C3001F0B0FA03E00FF6BC3001F059
:10068000ABFA3B49132001F0B2FD010006D007B0E0
:100690005DF804EB0FF6CC3001F09EBA07B05DF8C0
:1006A00004EB0FF6F43001F097BA000010B52B4CB4
:1006B00094F88000052812D001F0A5FC002184F8F0
:1006C000801010B10FF6F83005E00FF6184001F079
:1006D00083FA0FF61840BDE8104001F07DBA10BD56
:1006E0000A0000001CB51D4C94F88000012818BFBA
:1006F00000282DD01A484178012929D100220178FB
:100700004270491C01EBD1725210A1EB4201017001
:10071000F7EE040A017800EB81004FF4FA7190EDD6
:10072000020AE08A0091C0EE200AFDEEE00A10EE17
:10073000902A92B20023114601F089FFBDE81640CD
:10074000002814BF0FF6C0300FF6E43001F044BAB1
:1007500013BD0000AC080320B7130008A82A00202E
:10076000E025002007B201008075FF1FAC2E00209D
:10077000CC25002001F037BB70470021022000F09B
:1007800073BF0021042000F06FBF012000F092BF72
:10079000012000F097BF000010B50446616801F128
:1007A000080001F087FF00B10120207010BD00009B
:1007B00010B1012803D070473F2000F069BF3F20EF
:1007C00000F06EBF20204661696C2020203A206135
:1007D00063695F68616C5F7365745F726164696FA0
:1007E0005F61637469766974795F6D61736B2063AF
:1007F0006F6D6D616E642C20726573756C743A2038
:1008000030782578200A0D002020537563636573C6
:10081000733A206163695F68616C5F7365745F72CE
:100820006164696F5F61637469766974795F6D6132
:10083000736B20636F6D6D616E640A0D00000000C4
:100840003E3E3D3D204843495F444953434F4E4E51
:10085000454354494F4E5F434F4D504C4554455FBF
:100860004556545F434F44450A0000002020202095
:10087000202D20436F6E6E656374696F6E20486132
:100880006E646C653A202020307825780A2020207C
:1008900020202D20526561736F6E3A202020203079
:1008A0007825780A0D0000003E3E3D3D2048434932
:1008B0005F4C455F434F4E4E454354494F4E5F5545
:1008C00050444154455F434F4D504C4554455F5350
:1008D00055424556545F434F44450A00202020208E
:1008E000202D20436F6E6E656374696F6E20496EB4
:1008F00074657276616C3A202020252E3266206D58
:10090000730A20202020202D20436F6E6E656374B3
:10091000696F6E206C6174656E63793A20202020C7
:1009200025640A20202020202D20537570657276C2
:100930006973696F6E2054696D656F75743A20250F
:1009400064206D730A0D00003E3E3D3D2048434942
:100950005F4C455F434F4E4E454354494F4E5F43B6
:100960004F4D504C4554455F5355424556545F4397
:100970004F4445202D20436F6E6E656374696F6E22
:100980002068616E646C653A20307825780A000032
:1009900020202020202D20436F6E6E656374696FC8
:1009A0006E2065737461626C697368656420776931
:1009B00074682043656E7472616C3A20403A253049
:1009C00032783A253032783A253032783A2530324A
:1009D000783A253032783A253032780A0000000023
:1009E0003E3E3D3D204143495F4741505F50524F9D
:1009F000435F434F4D504C4554455F565345565405
:100A00005F434F4445200D003E3E3D3D204143495C
:100A10005F4741505F4B455950524553535F4E4FCE
:100A200054494649434154494F4E5F5653455654E5
:100A30005F434F44450A00003E3E3D3D204143494F
:100A40005F4741505F504153535F4B45595F52459B
:100A5000515F56534556545F434F4445200A0000AA
:100A60003D3D3E3E206163695F6761705F70617309
:100A7000735F6B65795F72657370203A20466169B8
:100A80006C2C20726561736F6E3A20307825780A7D
:100A9000000000003D3D3E3E206163695F6761707C
:100AA0005F706173735F6B65795F72657370203A15
:100AB0002053756363657373200A00003E3E3D3D1D
:100AC000204143495F4741505F4E554D4552494390
:100AD0005F434F4D50415249534F4E5F56414C5525
:100AE000455F56534556545F434F44450A00000046
:100AF00020202020202D206E756D657269635F7641
:100B0000616C7565203D20256C640A002020202042
:100B1000202D204865785F76616C7565203D202525
:100B20006C780A003D3D3E3E206163695F676170FD
:100B30005F6E756D657269635F636F6D7061726919
:100B4000736F6E5F76616C75655F636F6E666972F9
:100B50006D5F7965736E6F2D2D3E594553203A2098
:100B60004661696C2C20726561736F6E3A20307833
:100B700025780A003D3D3E3E206163695F676170F4
:100B80005F6E756D657269635F636F6D70617269C9
:100B9000736F6E5F76616C75655F636F6E666972A9
:100BA0006D5F7965736E6F2D2D3E594553203A2048
:100BB00053756363657373200A0000003E3E3D3D3C
:100BC000204143495F4741505F50414952494E4798
:100BD0005F434F4D504C4554455F56534556545F07
:100BE000434F44450A00000020202020202D2050A3
:100BF000616972696E67204B4F200A2020202020F7
:100C00002D205374617475733A20307825780A204A
:100C1000202020202D20526561736F6E3A2030789D
:100C200025780A0020202020202D2050616972693B
:100C30006E6720537563636573730A003D3D3E3EE6
:100C400020537461727420426C655F4863695F472A
:100C500061705F476174745F496E69742066756E78
:100C60006374696F6E0A000020204661696C202061
:100C7000203A206863695F726573657420636F6DE5
:100C80006D616E642C20726573756C743A203078D7
:100C90002578200A000000002020537563636573E7
:100CA000733A206863695F726573657420636F6D62
:100CB0006D616E640A00000020204661696C20208E
:100CC000203A206163695F68616C5F77726974655F
:100CD0005F636F6E6669675F6461746120636F6DE7
:100CE0006D616E64202D20434F4E4649475F44415D
:100CF00054415F505542414444525F4F464653452C
:100D0000542C20726573756C743A203078257820E5
:100D10000A0000002020537563636573733A2061F5
:100D200063695F68616C5F77726974655F636F6E3A
:100D30006669675F6461746120636F6D6D616E6485
:100D4000202D20434F4E4649475F444154415F5058
:100D50005542414444525F4F46465345540A0000B1
:100D600020205075626C696320426C7565746F6FEA
:100D7000746820416464726573733A202530327858
:100D80003A253032783A253032783A253032783A7E
:100D9000253032783A253032780A0000202046612A
:100DA000696C2020203A206163695F68616C5F771D
:100DB000726974655F636F6E6669675F64617461B1
:100DC00020636F6D6D616E64202D20434F4E464948
:100DD000475F444154415F49525F4F464653455433
:100DE0002C20726573756C743A2030782578200A4F
:100DF000000000002020537563636573733A20611F
:100E000063695F68616C5F77726974655F636F6E59
:100E10006669675F6461746120636F6D6D616E64A4
:100E2000202D20434F4E4649475F444154415F497E
:100E3000525F4F46465345540A0000002020466149
:100E4000696C2020203A206163695F68616C5F777C
:100E5000726974655F636F6E6669675F6461746110
:100E600020636F6D6D616E64202D20434F4E4649A7
:100E7000475F444154415F45525F4F464653455496
:100E80002C20726573756C743A2030782578200AAE
:100E9000000000002020537563636573733A20617E
:100EA00063695F68616C5F77726974655F636F6EB9
:100EB0006669675F6461746120636F6D6D616E6404
:100EC000202D20434F4E4649475F444154415F45E2
:100ED000525F4F46465345540A00000020204661A9
:100EE000696C2020203A206163695F68616C5F73E0
:100EF00065745F74785F706F7765725F6C65766537
:100F00006C20636F6D6D616E642C20726573756CFF
:100F1000743A2030782578200A000000202053758C
:100F200063636573733A206163695F68616C5F73C3
:100F300065745F74785F706F7765725F6C657665F6
:100F40006C20636F6D6D616E640A00002020466145
:100F5000696C2020203A206163695F676174745F67
:100F6000696E697420636F6D6D616E642C207265AB
:100F700073756C743A2030782578200A00000000E0
:100F80002020537563636573733A206163695F67FB
:100F90006174745F696E697420636F6D6D616E64F6
:100FA0000A0000004D595F435553544F4D00000057
:100FB00020204661696C2020203A206163695F67C8
:100FC00061705F696E697420636F6D6D616E642C12
:100FD00020726573756C743A2030782578200A0089
:100FE0002020537563636573733A206163695F679B
:100FF00061705F696E697420636F6D6D616E640A04
:101000000000000020204661696C2020203A206802
:1010100063695F6C655F7365745F64656661756C59
:10102000745F70687920636F6D6D616E642C2072DF
:101030006573756C743A2030782578200A000000BA
:101040002020537563636573733A206863695F6C2E
:10105000655F7365745F64656661756C745F706805
:101060007920636F6D6D616E640A00002020466117
:10107000696C2020203A206163695F6761705F734B
:1010800065745F696F5F6361706162696C697479CF
:1010900020636F6D6D616E642C20726573756C7466
:1010A0003A2030782578200A00000000202053756F
:1010B00063636573733A206163695F6761705F732F
:1010C00065745F696F5F6361706162696C6974798F
:1010D00020636F6D6D616E640A0000002020466120
:1010E000696C2020203A206163695F6761705F73DB
:1010F00065745F61757468656E7469636174696F46
:101100006E5F726571756972656D656E7420636F6F
:101110006D6D616E642C20726573756C743A20304D
:10112000782578200A0000002020537563636573DA
:10113000733A206163695F6761705F7365745F61B3
:10114000757468656E7469636174696F6E5F7265EA
:1011500071756972656D656E7420636F6D6D616E1A
:10116000640A000020204661696C2020203A20613A
:1011700063695F6761705F636F6E666967757265EB
:101180005F77686974656C69737420636F6D6D61F6
:101190006E642C20726573756C743A2030782578F3
:1011A000200A00002020537563636573733A206141
:1011B00063695F6761705F636F6E666967757265AB
:1011C0005F77686974656C69737420636F6D6D61B6
:1011D0006E640A003D3D3E3E20456E6420426C65D3
:1011E0005F4863695F4761705F476174745F496E10
:1011F00069742066756E6374696F6E0A0D00000075
:101200003D3D3E3E206163695F6761705F73657459
:101210005F646973636F76657261626C65202D200F
:101220006661696C2C20726573756C743A20307835
:101230002578200A000000003D3D3E3E20616369A4
:101240005F6761705F7365745F646973636F766510
:101250007261626C65202D20537563636573730A38
:10126000000000003D3D3E3E2053746172742046F4
:10127000617374204164766572746973696E672066
:101280004661696C6564202C20726573756C743AD4
:10129000202564200A0D00003D3D3E3E205375632D
:1012A000636573733A20537461727420466173747A
:1012B000204164766572746973696E67200A0D0057
:1012C0002A2A2053544F50204144564552544953E2
:1012D000494E47202A2A20204661696C6564200D0A
:1012E0000A0D000020200D0A0D0000002A2A2053BC
:1012F000544F50204144564552544953494E47207B
:101300002A2A20200D0A0D00424C455F5356435FA8
:101310004C324341505F436F6E6E5F557064617431
:101320006528292C204661696C6564200D0A0D0032
:10133000424C455F5356435F4C324341505F436FCD
:101340006E6E5F55706461746528292C2053756337
:101350006365737366756C6C79200D0A0D0000006F
:101360004AB1000011F8013B521E00F8013B1CBFBE
:1013700011F8013BF8E770477FB50C466D4D616889
:101380006D4EE8612962284601F0BEF9246805F136
:10139000240001F0C3F9746006F1080001F0BEF901
:1013A00001203070296829B10FF255100090029485
:1013B000684688477FBD1FB55F4C04F1080001F007
:1013C000B0F900BB2178F1B1694604F1080001F0E1
:1013D000D1F95848C16949B10098029001228DF8AD
:1013E000042001A888479DF8040000E00120207037
:1013F000207818B1009801F072FA04E0009904F125
:10140000080001F097F904F1080001F08AF928B901
:10141000207818B104F10800FFF7B3F91FBD2DE9DA
:10142000F8430646002000F05FF874883088B26800
:10143000DFF80081C4F3090444EA8024F068A4B210
:10144000C1B2204600F03CF8002748F2E8094846BF
:10145000FFF79EF908E06888A04202D13169287838
:101460000870687800B1012708F1240001F059F9EB
:10147000F0B9694608F1240001F07CF9009800F108
:101480000B05407A0F28E6D0B5F80110A1420DD126
:101490000098817AC81E7169C0B28842C8BF0846E8
:1014A000706102463069E91CFFF75AFF2878D9E7D6
:1014B0003800CCD0012000F017F80020BDE8F283FE
:1014C00010B513461C4A5468A4F80900E1720A4694
:1014D000194604F10C00FFF743FF164A1369BDE8F3
:1014E00010400021002018471249096A82B008B94B
:1014F00021B101E011B1012002B0084702B07047EC
:1015000010B50146487A0F2818BF0E2807D10B489E
:1015100001F01AF9BDE810400020FFF736B9064C7B
:1015200004F1080001F010F904F10800BDE81040D2
:10153000FFF727B9002E0020802E0020242E002047
:101540000C48002101604160704710B500F00CF8B4
:101550005C6819B1012904D1204301E024EA0000AC
:10156000586082F3108810BDEFF3108272B6014B01
:1015700070470000BC2E00202DE9F843644CDFF8D2
:101580009491A5692840A0614FF0FF372169E26975
:101590006069236A4FF0010837E0491C54F8313084
:1015A0001A42FAD054F831201040304004EBC10602
:1015B0007168014208BF77607168084000F0ACF8BC
:1015C00060627068616A08FA01F188437060EFF345
:1015D000108172B6626A206908FA02F2D2431040A2
:1015E0002061022004EBC00353F8086C1640401E33
:1015F00043F8086CF6D181F31088606A59F820101E
:1016000088472169E2696069236AA669014031421D
:1016100005D01A4203D1002100EA0602BEE7676244
:1016200001F0ABF9EFF3108972B62269E1696069E4
:101630000240A069024202BF226A114201F0FBFA95
:1016400089F3108801F0A4FCA561BDE8F18338B5E9
:101650001446EFF3108572B600F05EF82D4941F89C
:10166000204085F3108831BD10B500F00BF804431D
:101670001C6153F83140204343F83100FFE782F307
:10168000108810BDEFF3108272B6214B1C697047B1
:10169000EFF3108172B61E4A536923EA000005E099
:1016A000EFF3108172B61A4A53691843506181F3FF
:1016B00010887047EFF3108172B6154AD36918434A
:1016C000D061F4E72DE9F041114C666A276A0546BE
:1016D000B04616F1010F0EBF0026012000FA06F6F3
:1016E000256203E02946304601F0A6FAE069284267
:1016F000F8D0C4F82480EFF3108072B6E16921EAD3
:101700000505E56180F310882762BDE8F0810000DF
:10171000842500202C2B002002460020110C0904F7
:1017200004BF1020120412F07F4F04BF08301202D1
:101730000FF2180112F0704F04BF001D1201120FBA
:10174000C0F11F00895C401AC0B270470403020256
:1017500001010101000000000000000001F06FFC29
:101760009DF80E0005B000BDF8B500F10C026B4607
:101770002C214FF66640F1E7F8B500F10C026B46FC
:101780000F214FF66840E9E7F8B502466B460E2197
:101790004FF67540E2E770B51B491C4B0A681C49BF
:1017A000C2F30D0201EB82010C6822689A4205D156
:1017B0006569A169E269E368246904E025696169F2
:1017C000A2696368A4682E0E067001722E0C467022
:1017D00042722E0A8670C473C5F3031605F00F0516
:1017E0000571C6700D0E45710D0C85710D0A190E2F
:1017F0008172C571190CC1721B0A210E41730373EA
:10180000210C8173002070BD3C400058B95646A998
:10181000000003208B4900E08B4981B00A68024335
:101820000A60096808400090009801B0704778B5D8
:1018300085B001F053FC01F0A1F800F093F800F03E
:10184000D0F8824C8248834DA0634FF4881604F18F
:10185000380001F06DFC6846142101F0A1FC042061
:10186000FFF7DAFF0120FFF7D7FF0820FFF7D4FFCB
:101870000220FFF7D1FF00222021284601F058FD69
:10188000102000F069F8744801F08EFC032000F08D
:1018900063F8724801F088FC20200121009001913A
:1018A00000200221029003912846694601F07CFC49
:1018B00000220021062001F077FD062001F092FDB4
:1018C00000220021072001F06FFD072001F08AFDB2
:1018D000002200210A2001F067FD0A2001F082FDAC
:1018E0000420FFF797FF0120FFF794FF0220FFF786
:1018F00091FF00220F210E2001F056FD0E2001F075
:1019000071FD00220F213A2001F04EFD3A2001F036
:1019100069FD53482060002060600F20A06047F6FA
:10192000FF70E06000202061A061E06160612046FE
:1019300001F0AEFD00220021204601F04DFE494895
:1019400060620020A06204F1240001F0D5FE01F0E5
:101950003DF801F06FF9FCE700900196012002903C
:101960006946704780B59AB008A8482101F018FC74
:1019700001A81C2101F014FC01F0DEFE3A480168C8
:1019800021F01801016047213848026822F4C06242
:1019900042F4007202604FF48032006800F4C060CC
:1019A00000900098089101200A904FF480711290E5
:1019B0000B9100204021139009920C9108A801F08E
:1019C000CCFE6F2001900221002002910390049030
:1019D000059006900790012101A802F070F91BB054
:1019E00000BD10B594B06846502101F0D9FB4FF40A
:1019F000804011900221102013904FF44054129116
:101A00000094684602F034FB14B010BD10B5184CB9
:101A1000184800F031F84FF40040E06100202062E7
:101A20006062A062204602F0A1FC0021204603F083
:101A30005CF90021204603F063F92046BDE8104020
:101A400003F036B9480000584C0000582C2C0020F8
:101A5000000C00580004004800080048000C004832
:101A60000028004000100058900000580004005862
:101A7000882900200038014020604FF4E130606088
:101A80000020A060E06020610C2060610020A06167
:101A90007047704707490020087700220648027007
:101AA00000F00CB803490A7F41F82200087F401C6F
:101AB00008777047502E0020002F002080B503F0DB
:101AC00072F903F071F903F070F903F06FF903F0A4
:101AD0006EF903F06DF903F06CF903F06BF903F0A4
:101AE0006AF903F069F903F068F903F067F903F0A4
:101AF00066F903F065F903F064F903F063F903F0A4
:101B000062F9BDE8014003F0C4B918B50C46C7B08E
:101B1000114600228DF800208DF81C008DF81D4024
:101B200022460DF11E0003F075FB00F03FF83F2048
:101B30000C21ADF80400ADF8061007A801210390B0
:101B40000691A41C049400F041F800284CBFFF202B
:101B50009DF8000048B010BD00B5C7B000F01FF8F8
:101B60000F2000F028F800284CBFFF209DF800004F
:101B700047B000BD00B5C7B00021ADF81C008DF81E
:101B80000010182201A803F04BFB182000F013F8F6
:101B900000284CBFFF209DF8000047B000BD002288
:101BA0008DF800208DF81C008DF81D1018220021E2
:101BB00001A803F035BBADF8060007A90220049088
:101BC0003F22012003910690ADF80420CDF814D0F7
:101BD000002101A8FFF723BC0EB4C0B5024603A83C
:101BE00000210190009101AB0121044878440C30A0
:101BF00003F020FB06BC5DF810FB00BF5F77000020
:101C0000F8B507466F4D38786F4E704C072836D8B8
:101C1000DFE800F00406262F3678857F20466DE049
:101C200004F13C00FFF7D8FF7868427890F8001084
:101C30006FA0674CFFF7D0FF78684178012904D185
:101C400001222021204601F073FB796848780028A2
:101C500065D12046BDE8F8400022202101F068BB94
:101C600004F16800FFF7B8FF01202870BDE8F140DB
:101C700074E004F19800FFF7AFFF00202870F1BD79
:101C800004F1C800FFF7A8FF012068704FF48073CB
:101C9000B288F188A2F14400062808D23078521C9C
:101CA000002811BF491C19460123337001E044226A
:101CB0001946F180B28006210520B1700091707044
:101CC000F288B188052304F58A70FFF785FF414843
:101CD00009210170B1884170090A8170F188C170D1
:101CE000090A017171784171B2788271687818B10E
:101CF000BDE8F440384973E004F52670BDE8F240D1
:101D0000FFF76ABF04F5A870FFF766FF0020687050
:101D1000F1BD04F5CE70FFF75FFF00203070F1BD1C
:101D200070471CB502228DF800206946032003F09D
:101D300005FA2A4C2146012003F000FA2146022030
:101D400003F0FCF90FF2150200210820FFF77FFCD9
:101D50001C4800210170817013BD000070B5194D41
:101D60001A4C2878002804BF6878002821D004F590
:101D7000EE70FFF731FF04F50770FFF72DFFA8782D
:101D8000154E20B9012000213170707001E0002053
:101D90003080A87004F51670FFF71EFF08A0FFF74B
:101DA0001BFF3146012003F0C9F9BDE87040094925
:101DB00016E004F52670BDE87040FFF70DBF000087
:101DC000200A0D00E42E0020FC25002034840008A9
:101DD00000040048002800200827002010260020CA
:101DE000022003F0ABB900210820FFF73DBC000042
:101DF0000D0A0D2A2A2057726974652044617461A6
:101E00003A203078253032582025303258200A00C8
:101E1000014648B1B0FA80F18840C91CC1F584611F
:101E2000090501EBD0214005704730B4002513E0CF
:101E300050F8042BD30744BFA9F101039A18091FD6
:101E4000042942F8045BFAD213468C0744BF15807C
:101E50009B1CC90748BF1D7050F8041B0029E7D11F
:101E600030BC7047B0B581EA030C0CF0004C40F276
:101E7000FF7515EA11541DBF15EA1357AC42AF4266
:101E800039E0E41923EA455343F48013C90241F0D1
:101E9000004141EA505EC7021100A7FB0202002880
:101EA0004FF00000EEFB01204FF00001E3FB0721A3
:101EB00018BF42F00102401800214941E3FB0E0126
:101EC000A4F580640F0302D252004041494154F10D
:101ED00001046CDD470872F1004250F1000051EB43
:101EE0000451A1F580115CBF41EA0C01B0BD4CEA80
:101EF00005510020B0BD05EA1357AC4214BFAF42F4
:101F000041E050EA410E1CBF52EA430E02E0614636
:101F10000020B0BD24423C441BD15FEA070EF6D03E
:101F2000090302BF01460020AEF1140EB1FA81F799
:101F3000AEEB070401FA07FE0C37C7F1200100FAE7
:101F400007F7C8404EEA000E23EA455343F48013D6
:101F5000A2E733F00043B3FA83F704BFB2FA82FE7C
:101F600077440B3FE41BB7F1200E2FBF02FA0EF3AC
:101F7000BB40C7F1200E22FA0EFE38BF43EA0E0323
:101F8000BA40641C82E750EA410E14BF52EA430E85
:101F90006FF000014FF4001717EB430F8ABF19468B
:101FA00017EB410FB5E74CEA05510020B0BDD4F165
:101FB0000104B4F120070FDAC4F12007520828BF4A
:101FC00042F0010210FA07F501FA07F7E1BF2A43D0
:101FD000E0403843E1400FE0352C98DCC7F12004A5
:101FE00052EA400220FA07F218BF42F0010231FA29
:101FF00007F0A1400A43002172F1004250F10000B5
:1020000051EB0C01B0BD00B587B000F06AF900F0EB
:1020100052F9812000F010F900F01BF900284CBFA4
:10202000FF209DF8000007B000BD2DE9F84DC7B0B6
:102030009446DDF840E1519A559D569EDDF84CA13D
:10204000ADF81D108DF81C004FF0000BADF81FC04F
:102050008DF821308DF822E000F024F800F017F818
:1020600024F8095F668000F026F93F20832100F004
:1020700013F9574406910D37049700F0EDF8002846
:102080004CBFFF209DF8000048B0BDE8F08D88F8F7
:1020900000A007AC5499E419524608F101005444D9
:1020A00003F0B8B88DF82320174652998DF800B088
:1020B0000DF1240809A8B84403F0ACB800B5C7B0C6
:1020C00000F00CF8852000F0CDF800F0C2F80028F0
:1020D0004CBFFF209DF8000047B000BD00218DF8E7
:1020E0001C008DF80010182201A803F099B82DE902
:1020F000F841C7B04FF0000800F026F80DF12300BA
:10210000DDF844E14E9F4F9E509D529C8DF81F304C
:10211000C0F800E08DF800808DF820708DF8216007
:102120008DF822508DF8274000F0C5F88620ADF8D4
:10213000060007A90C2000F088F800284CBFFF20FB
:102140009DF8000000F0CAB88DF81C0007A8417087
:102150008270704700B5C7B00022ADF81C008DF842
:1021600000200DF11E001822016001A8002103F0DB
:1021700057F88820ADF8060007A9062000F065F89A
:1021800000284CBFFF209DF8000047B000BDF8B507
:10219000C8B005460E4617461C4600F023F808A8AE
:1021A000467087708DF8205000F071F88A21ADF8E4
:1021B0000A103F20032100F05DF8002848BFFF20EF
:1021C0000ED49DF8000058B94F994E98BDF80120E3
:1021D0002280BDF803200280BDF8050008800020A1
:1021E00049B0F0BD07220021684603F019B818B5C0
:1021F000C7B000F085F800F05EF83F208E2100F0B7
:1022000074F800F029F800284CBFFF209DF800006A
:1022100048B010BD00B587B000F063F800F04BF88F
:10222000922000F009F800F014F800284CBFFF20BD
:102230009DF8000007B000BDADF806003F22012068
:102240007047ADF8060007A9032004903F22012043
:1022500003910690ADF80420CDF814D0002101A818
:10226000FFF7DDB8ADF8060007A901203F22039172
:1022700004907047ADF80800059108A80721049064
:102280000791CDF818D0002102A8FFF7C8B818228E
:10229000002102A802F0C4BFADF80400ADF806109A
:1022A00007A801210390704700228DF80020ADF8A7
:1022B0001C008DF81E101822002101A802F0B0BFEA
:1022C00000B5C7B0FFF7F0FFA520FFF7BAFF002861
:1022D0004CBFFF209DF8000047B000BD48B0BDE8EE
:1022E000F08100208DF800007047ADF80400ADF8D3
:1022F000061007A8012103900691641C04947047FE
:10230000044600208DF800008DF81C4022460DF197
:102310001D0002F07FBF00B587B000F014F8012067
:1023200003220690ADF80420ADF8062000F03DF839
:1023300000284CBFFF209DF8000007B000BD182208
:1023400001A802F06DBF00208DF8000018220021C6
:1023500001A802F065BF00B5C7B000F00EF8FFF7A6
:10236000EEFF312000F013F800F01FF800284CBFFA
:10237000FF209DF8000047B000BD00238DF81C0031
:102380008DF8003007A84170827000217047ADF8C9
:10239000060007A90320049008220120039106905B
:1023A000ADF80420704703900691CDF814D00021B9
:1023B00001A8FFF734B8B1F5807F02D34FF0FF30AA
:1023C00070470170012070470078401E8041C04373
:1023D000C00F704701460648064AC3798B4218BFB2
:1023E000904218BF0838F8D18B4218BF00207047C0
:1023F000F873FF1F0070FF1F00B587B000208DF835
:10240000000000F0E0F840F20110ADF806003F22B5
:102410000120069000F013F900284CBFFF209DF822
:10242000000007B000BD2DE9F84107460128C7B0FC
:10243000884615461E4608BF022003D002280CBF5E
:10244000102000200DF11D010C1800F036F8012FAE
:102450008DF81C7002D0022F18D019E002273A46DE
:1024600041460DF11D0002F0D5FE2570667000F0AA
:10247000AAF83F204FF4817100F016F8FF1C049772
:1024800000F0DFF8002805D5FF2009E01027E6E777
:10249000972005E09DF8000010B94E9800F067F80D
:1024A000FFE748B0BDE8F081ADF80400ADF80610D4
:1024B00007A8032103900691704703220021684674
:1024C00002F0AEBE2DE9F64F0C460546012CC7B012
:1024D0009B4608BF022003D0022C0CBF1020002016
:1024E0000DF11F010E18FFF7E8FF012CADF81C508D
:1024F0008DF81E4002D0022C2CD02DE00227569CD5
:10250000559DDDF85091DDF84CA1DDF848814899E2
:102510003A4600F054F8A6F800B086F8028086F833
:1025200003A086F804907571B47100F04CF83F2058
:10253000ADF804004FF4827107A8ADF806100390BF
:1025400003210A370497069100F07BF8002805D58F
:10255000FF2009E01027D2E7972005E09DF8000052
:1025600010B9579800F003F849B0BDE8F08FBDF8F6
:10257000011001800020704730B5C7B01C464A9B4F
:1025800000F049F800258DF800508DF821402246D2
:1025900019460DF1220002F03DFE00F014F83F2034
:1025A0004FF4837100F042F8A41D049400F049F840
:1025B00000284CBFFF209DF8000047B030BD0DF152
:1025C0001F0002F027BE1822002101A802F028BE39
:1025D00078B5C7B04C9C4D9D00F01DF800268DF8D5
:1025E00021308DF800608DF822402246294600F007
:1025F00019F8FFF7E8FF3F204FF4937100F016F849
:10260000E41D049400F01DF800284CBFFF209DF845
:10261000000048B070BDADF81C00ADF81E108DF87C
:10262000202070470DF1230002F0F4BDADF8040046
:10263000ADF8061007A80121039006917047ADF888
:102640000420CDF814D0002101A8FEF7E8BE30B573
:10265000C7B00025ADF81C0007A84A9C41808280C5
:10266000ADF8223004818DF8005000F01EF80F21E3
:10267000029140F281100A21ADF80600049107A8EA
:1026800001213F220390069100F007F800284CBF7B
:10269000FF209DF8000047B030BDADF80420CDF814
:1026A00014D0002101A8FEF7BABE1822002101A80B
:1026B00002F0B6BD70B504466078FF2802BFB4F8DA
:1026C000031001F47F41B1F5406F12D100260D4D8A
:1026D00000E0761C297FF0B288420AD2F1B255F8A8
:1026E0002110204688470100F3D002D0022805D0EF
:1026F00006E02046BDE87040FDF794BD002070BDA7
:10270000012070BD502E0020024901600249016184
:10271000704700BFDB270008012800080060406008
:102720007047EFF3108172B6026882420CBF01203D
:1027300000201CE0EFF3108272B603680B60486063
:1027400001600868416023E0EFF3108272B6086010
:1027500043684B6041604868016019E0EFF3108105
:1027600072B642680368136002684368536081F37D
:102770001088704710B5EFF3108472B602680A60D3
:102780000068FFE7FFF7EAFF84F3108810BD0B60D5
:1027900082F310887047704703F063BD6C486D4941
:1027A000016001F12002426001F13002826001F11A
:1027B0004002026201F14802426201F15002C2602D
:1027C00001F15802026101F17402426101F17802E3
:1027D00082618431C16103F062BD38B504465E4D4B
:1027E0002846FFF79BFF5A484068A1680160E168EE
:1027F000C16085605949416003F06DFD58482AE089
:1028000080B553484268136801211972406803F08B
:1028100068FD002002BD38B5514C4F4D04E000F07A
:1028200041F80098216888472846FFF77AFF00287A
:10283000F5D031BD4A484168084738B50446494D8E
:102840002846FFF76BFF4248C068A16801604560F9
:1028500003F04CFD4448216801606168416000203C
:1028600032BD80B53A48C268136810211972C06839
:1028700003F042FD002002BD35483B4AC168C168F3
:1028800013680868184738B5374C364D04E000F037
:1028900009F80098616888472846FFF742FF00283A
:1028A000F5D031BD69462846FFF764BF38B5044608
:1028B0002E4D2846FFF732FF2D48FFF72FFF244803
:1028C0000069A1688160E168C160056121680160FB
:1028D00061684160216941616169816131BD80B593
:1028E00001462348FFF730FFBDE802400FF2050024
:1028F00003F00BBD38B5164C1D4D06E0FFF7D2FFB7
:10290000009920690069FFF71FFF2846FFF709FFBC
:102910000028F3D031BD10B5164C2046FFF7FEFE5F
:102920000B4841690C60BDE8104003F002BD1CB5C6
:10293000104C06E069462046FFF71CFF009800F0A7
:102940001BF82046FFF7EDFE0028F3D013BD000072
:1029500000000320B8090320580A03209C08032024
:10296000CC2E0020600A0320D42E0020480A032029
:10297000C42E0020500A03207047704710B5A049AC
:10298000A04C4FF400400860606840010ED56068BC
:10299000C0000BD400F0D0FE00F0CEFE206840F462
:1029A00080302060216821F48031216000F05CF8E3
:1029B0000020FFF70FFD40B180799349E160E168A5
:1029C00021F47C5141EA0021E16010BD10B58F482F
:1029D0008F4C88B0016841F050010160CA228D48D7
:1029E000C2615321C161FF220168C908C9000160A9
:1029F000C2618948016841F400410160FEF7A0FD11
:102A000086480168C908C90041F00401016000203E
:102A1000834903F01CFE03F040FF01210120FEF773
:102A200094FDFFF7BBFE7F4A00214020FEF70FFE1A
:102A300004F23C500FF275010090019169460FF2CB
:102A4000710000F0A7FA04F25470029004F5C96115
:102A500040F23C5005900391049402A8FFF726FF32
:102A6000FFF79AFE08B010BD6F4881B0016841F4CD
:102A7000801101603F21006800F4801000900098F0
:102A80006A4841604161016841F47C11016002695A
:102A900042F47C120261016841F03F010160026969
:102AA00042F03F02026101B0704700007047000031
:102AB00038B5044688B0616801F10B054FF4124245
:102AC0002888801A10D0401E63D0401E75D0801E0A
:102AD00000F08080401E00F08280401E00F0828066
:102AE000401E00F0868088E06846FEF754FE9DF8A0
:102AF00002309DF801209DF800100FF27410FFF7CE
:102B00006BF89DF804100FF28C10FFF765F89DF834
:102B10000C309DF80B209DF80A100FF29410FFF76F
:102B20005BF80FF2A410FFF757F804A8102100F08B
:102B300037FB60680D300078F8B90FF2AC30FFF762
:102B40004BF803F0B9FE0D208DF810007F213848B6
:102B50008DF8121004680FF2AC30240C2146FFF7F8
:102B60003BF8ADF81C4004A8FEF70EFEFDF7E6FAB0
:102B700000210120FEF7E9FC3FE0012806D10FF219
:102B8000A830FFF729F80020207036E00FF2CC3093
:102B900031E00FF25410FFF71FF8606800F10D04E8
:102BA0000FF2A0202178FFF717F82078002814BF33
:102BB0000FF2FC200FF2BC201DE00FF25010FFF7C7
:102BC0000BF8D5F80620D5F802100FF29010FFF799
:102BD00003F812E0D5F802100FF2A81006E00FF289
:102BE000E01008E0D5F802100FF2F810FEF7F4FF3D
:102BF00003E00FF22C20FEF7EFFF09B030BD00001C
:102C00001040005890000058FECAFECA90080058B4
:102C10003C000320082800400800005880040058A9
:102C20002C2C0020D72F000850000058040C00580E
:102C3000002004E001E0704700BF4FF0FF30FEF7D6
:102C40009BBC00214020FEF70FBD0220FEF732BDE5
:102C50000220FEF737BD012805D0022805D0102834
:102C600005D1FDF787BDFDF787BDFDF786BD704730
:102C7000576972656C657373204669726D7761720E
:102C8000652076657273696F6E2025642E25642E2B
:102C900025640A00576972656C6573732046697212
:102CA0006D77617265206275696C642025640A0025
:102CB0004655532076657273696F6E2025642E2504
:102CC000642E25640A0000003E3E3D3D20534843EB
:102CD000495F5355425F4556545F434F44455F52E9
:102CE000454144590A0D00003E3E3D3D20534843B6
:102CF000495F5355425F4556545F4552524F525FAC
:102D00004E4F544946200A0D000000003E3E3D3D16
:102D100020534843495F5355425F4556545F424CE8
:102D2000455F4E564D5F52414D5F555044415445AD
:102D3000202D2D20424C45204E564D2052414D20F5
:102D4000484153204245454E205550444154454446
:102D500020425920434D4F2B200A000020202020E4
:102D6000202D205374617274416464726573732002
:102D70003D20256C78202C2053697A65203D202544
:102D80006C640A003D3D3E3E20534843495F535525
:102D9000425F4556545F4E564D5F53544152545F07
:102DA0005752495445203A204E756D6265724F6600
:102DB000576F726473203D20256C640A0000000088
:102DC0003E3E3D3D20534843495F5355425F455683
:102DD000545F4E564D5F454E445F57524954450A25
:102DE0000D0000003D3D3E3E534843495F53554270
:102DF0005F4556545F4E564D5F53544152545F45A4
:102E000052415345203A204E756D6265724F6653AC
:102E10006563746F7273203D20256C640A000000A6
:102E20003E3E3D3D20534843495F5355425F455622
:102E3000545F4E564D5F454E445F45524153450ADF
:102E40000D0000003E3E3D3D20534843495F535531
:102E5000425F4556545F4552524F525F4E4F544960
:102E600046205749544820524541534F4E2025781B
:102E7000200A0D003E3E3D3D20534843495F5355D7
:102E8000425F4556545F4552524F525F4E4F544930
:102E900046205749544820524541534F4E202D203B
:102EA0004552525F424C455F494E4954200A00004A
:102EB0003E3E3D3D20534843495F5355425F455692
:102EC000545F4552524F525F4E4F54494620574926
:102ED000544820524541534F4E202D20424C45200E
:102EE0004552524F52200A003E3E3D3D2057495226
:102EF000454C4553535F46575F52554E4E494E47DA
:102F0000200A00003E3E3D3D204442474D43555F70
:102F10004765745265766973696F6E49443D202533
:102F20006C78200A0D0000003E3E3D3D2053484392
:102F3000495F5355425F4556545F434F44455F5286
:102F400045414459202D204655535F46575F525501
:102F50004E4E494E47200A0D000000003E3E3D3DCA
:102F600020534843495F5355425F4556545F434F92
:102F700044455F5245414459202D20554E455850F7
:102F800045435445442043415345200A0D00000069
:102F9000704770477FB50C464D4D61684D4EE861F6
:102FA0002962284603F0B6FD2468746006F1080023
:102FB000FFF7B4FB012000F068F8012030702968A9
:102FC00041B10FF2E9000FF2ED020090019202947C
:102FD000684688477FBD1FB53E4C04F10800FFF7E7
:102FE000A0FB00BB2178F1B1694604F10800FFF7AE
:102FF000C1FB3748C16949B10098029001228DF8A0
:10300000042001A888479DF8040000E001202070FA
:10301000207818B10098FFF762FC04E0009904F1F1
:103020000800FFF787FB04F10800FFF77AFB28B9D7
:10303000207818B104F10800FFF703FE1FBD2DE949
:10304000F04105460E4690461C46002000F01DF853
:10305000204F7868A0F80950C672324641460C30BD
:10306000FEF77EF91A4A136900210020984748F2BA
:10307000E800FFF7EDFD79688A78D21C04F10800BA
:10308000FEF76EF9BDE8F04101201CB51049124C65
:10309000096A20B901B188470020207013BD0120C2
:1030A000207011B1BDE81C40084713BD0020FFF798
:1030B000CCBD000010B50146064C04F10800FFF736
:1030C00043FB04F10800BDE81040FFF7BABD000063
:1030D0002C2E0020902E0020012F0020114810B52A
:1030E000016841F480710160032000F050F9002074
:1030F00003F01AFD0024002814BF012403F043FD4F
:10310000204610BD084880687047084805E0074819
:10311000016841F0020101607047016841F001015E
:103120000160704700400058F0250020042004E0B2
:10313000F8B504460025ACB104F13406307910B975
:10314000204603F02FFD0F4F384600F021F8386875
:1031500040F001103860204600F007F8356001208B
:10316000307100E001252846F2BD10B50021064A65
:10317000064B00EB8104491C06296360E261F8D329
:1031800010BD0000000C0058932F0008972700087E
:10319000002101604FF03F1141603F218160704785
:1031A000002203F025BE00002DE9F84F4FF0000982
:1031B000674A684B4FF00F0805460E4633E0664FEE
:1031C000BD4214BF072704278F4027434CF82E70B9
:1031D000C1431C6801EA040C7468E40248BF40EA79
:1031E0000C0CC3F800C05C6801EA040C7468A4020B
:1031F00048BF40EA0C0CC3F804C0146801EA040C90
:103200007468E40348BF40EA0C0CC2F800C054687C
:1032100001EA040C7168890348BF40EA0C0CC2F84B
:1032200004C009F10109316831FA09F000F07E802B
:10323000012404FA09F414EA0100F2D04FEA490C1F
:10324000032101FA0CF16FEA010E716801F0030726
:10325000012F1CBF01F00301022911D1A968F768F1
:103260000EEA010107FA0CF73943A960696821EAFF
:1032700004047168C1F3001101FA09F10C436C6098
:103280004FEA8901347904F00304032C1FD0EC6861
:10329000B7680EEA040407FA0CF73C43EC60347993
:1032A00004F00304022C12D14FEAD90705EB87047E
:1032B00001F01C07D4F820A008FA07FB2AEA0B0A41
:1032C000D6F810B00BFA07F747EA0A0727622C680E
:1032D0000EEA0407347904F0030404FA0CF43C43C6
:1032E0002C60746814F4403F9BD0DFF870C04FEA44
:1032F000990E5CF82E7001F00C0108FA01F427EA2F
:103300000404B5F1904F08BF00270ED0144FBD4202
:1033100008BF012709D0134FBD4208BF022704D0C0
:10332000114FBD427FF44BAF03274DE7BDE8F18F4E
:1033300081B0002A14BF8161816201B070470B4ADD
:10334000136803421CBF1060FFF785BC7047000084
:10335000800800580008005800100048080001408C
:103360000004004800080048000C00480C08005801
:103370000901020081B002D43C48815405E03C4878
:1033800002F00F02104400F8041C01B07047394AE3
:1033900013684FF6FF0100020B4000F4E060184391
:1033A000354908431060704738B5324B1C68C4F388
:1033B0000223C3F10704052C28BF04241D1D072D7B
:1033C00034BF0023DB1E012505FA04F4641E2140EE
:1033D000994005FA03F35B1E1A401143BDE83440DF
:1033E000C6E70000010007D4012200F01F01234BB3
:1033F0008A40400943F82020704701000BD4012285
:1034000000F01F011E4B8A40400943F82020BFF303
:103410004F8FBFF36F8F704710B5401EB0F1807FA4
:1034200001D3012010BD174C60600F214FF0FF3019
:10343000FFF79EFF0022A26007202060002010BD41
:10344000010007D4012200F01F010F4B8A40400900
:1034500043F820207047010007D4012200F01F012B
:103460000A4B8A40400943F82020704700E400E0FE
:1034700018ED00E00CED00E00000FA0500E100E0CE
:1034800080E100E010E000E000E200E080E200E027
:1034900038B5040044D094F8210028B9002184F8FC
:1034A0002010204603F059FC00F049F8FF2510B128
:1034B00000F03FF834E02168DFF8B0008A6802408D
:1034C0008A6021688A68636820690343A0690343AE
:1034D0001A438A602168E068086120680169A2686F
:1034E00041EA024101612068C16821F08001C160A8
:1034F0002068C16C89088900C1642168CA6CE369CD
:10350000606903431A43CA6420688168880609D445
:1035100000F020F830B120684562042100F01FF867
:10352000012032BD20684562012184F8211000206D
:1035300032BD20684562042184F8211070470220C2
:1035400084F82100CA202168486253202268506212
:10355000204626E020460BE02068C0F8248084F84E
:103560002110002084F8200070470000BFFF8FFF6B
:1035700070B5044640F2E9362068C16821F0A00128
:10358000C16003F04FFC05462068C168880606D478
:1035900003F048FC401BB042F6D3032070BD00206E
:1035A00070BD70B504462068C1684A0612D44FF059
:1035B000FF32C26040F2E93603F034FC0546206871
:1035C000C168480606D403F02DFC401BB042F6D378
:1035D000032070BD002070BD2DE9F84300F065F8B0
:1035E00008BF022038D000F067F814D503F01AFCA9
:1035F00007462068C16848070DD503F013FCC01BBF
:103600004845F6D300F039F826E003F00BFCC01B68
:10361000484507D3F6E700F02AF800F065F803F014
:1036200001FC07462068C1684A07EED5C0F814803F
:10363000206800F013F82A48016841F40021016075
:103640002848026842F4002202602068816841F440
:103650008041816000F01BF8BDE8F2838168C908F1
:10366000C9008160206881680D43856070472068CB
:10367000816821F48061816070472068466203217F
:1036800084F82110002084F820000320704720686F
:10369000816841F48061816001212068466284F87C
:1036A0002110002084F8200070470446884694F8D2
:1036B0002000012815467047012184F820100220BF
:1036C00084F82100CA202168486253202268506291
:1036D000FF2620688168480540F2E93970470000FC
:1036E00080080058000800582068C16801F0800177
:1036F00061F49061C160704710B5040001D10120F0
:1037000010BD607A20B900212172204603F008FB29
:103710000220607221680A68606822F02002024379
:103720000A602068016841F00401016001206072B4
:103730000020E06010BD00000248016841F4807183
:1037400001607047000400584FF0B040006800F07E
:10375000F000B02888BFB02070472DE9F041040088
:1037600054D0207881064FF0B04538D5A868E96874
:1037700010F00C0001F0030103D00C2808BF012950
:1037800046D12868800702D5E06900283ED0FFF7BF
:10379000DBFF616A884207D2084600F0D3FB0028AD
:1037A00034D100F075FA0FE0286820F0F0000143F2
:1037B00029606968206A21F47F4141EA002169603B
:1037C000606A00F0BFFB08BB00F095FBDFF8101843
:1037D0000860DFF81008006803F0A6F9B0B9207897
:1037E000C1070DD5A868E96800F00C00082801F0B1
:1037F000030103D00C2808BF03292DD128688003BA
:1038000040F139816068002840F03581012038E2BC
:10381000E06980B1296841F0010100F047FA0646ED
:103820002868800700F1248103F0FCFA801B03283C
:10383000F6D3032025E2286840084000286003F002
:10384000F1FA0646286800F01FFAC8D003F0EAFA39
:10385000801B0328F6D3ECE76068B0F5803F04D105
:10386000296841F48031296003E02A6822F480321B
:103870002A60606860B103F0D5FA064628688003C4
:1038800000F1F98003F0CEFA801B6528F6D3D0E76B
:1038900003F0C8FA06462868400C10F0010000F05A
:1038A000EA8003F0BFFA801B6528F4D3C1E703F078
:1038B000B9FAC01B0328C0F01281BAE7E06878B1FA
:1038C000296841F4807100F0F1F906462868400546
:1038D00000F1188103F0A6FA801B0328F6D3A8E7AD
:1038E000286820F48070286003F09CFA0646286857
:1038F000800A10F0010000F0DC8003F093FA801BD6
:103900000328F4D395E703F08DFAC01B0328C0F019
:103910000B818EE740F0010000F0CEF90746706899
:10392000800700F11C8103F07DFAC01B0328F6D349
:103930007FE7706820F0040000F0BEF90746706869
:10394000C00810F0010000F0198103F06BFAC01BF1
:103950000428F4D36DE70528306806D140F0040050
:103960003060316841F0010105E0400840003060FE
:10397000316821F004013160A06841F2893768B1F3
:1039800003F050FA80463068800700F10C8103F0A4
:1039900049FAA0EB0800B842F5D34AE703F042FA2F
:1039A0008046306800F070F900F0FD8003F03AFACC
:1039B000A0EB0800B842F4D33BE703F033FAC01B96
:1039C0000328C0F0FE8034E7B06840084000B060D3
:1039D00003F028FA0746B06800F056F900F0F580C9
:1039E00003F020FAC01B0328F5D322E703F01AFAEC
:1039F000801B0328C0F01F811BE703F013FA001B94
:103A00000328C0F0398114E7286881010CD42968A3
:103A100041F080712960E86840F08050E86003F070
:103A200001FA04462868810100F12A8103F0FAF9BD
:103A3000001B0328F6D3FCE60C2931D0286820F0BF
:103A400080702860E968DFF8A00589088900E960CE
:103A5000E9680140E96003F0E5F90446286881015E
:103A600040F10E8103F0DEF9001B0328F6D3E0E6F7
:103A700000F00EF9B3E6207881071AD5A868E96846
:103A800000F00C00042801F0030104D00C2808BF4A
:103A900002297FF413AF2868400503D5E0680028A9
:103AA0003FF4B4AE6968206921F0FE4141EA00614B
:103AB00069602168DFF8346511F0180F38D060694B
:103AC00000283FF436AFC90670687FF523AF800742
:103AD00009D4706840F0010000F0EEF80746706805
:103AE00080077FF5E4AE706840F0040000F0E4F871
:103AF0000746706800070DD403F094F9C01B042832
:103B0000F7D396E66868216920F0FE4040EA01603C
:103B10006860CEE77068A16920F4706040EA012017
:103B2000706000F0C6F8074600F0ADF87FF4EBAE29
:103B30002078410737D5DFF8B8743868C10529D433
:103B4000FFF7FAFD03F06EF980463868C10521D40D
:103B500003F068F9A0EB08000328F6D369E6706863
:103B600020F0040070607068C00810F00100DFD021
:103B700003F058F9C01B0428F5D35AE600F099F871
:103B8000074600F080F8D3D003F04CF9C01B03289F
:103B9000F7D34EE6A06801287FF4DDAE306840F030
:103BA00001003060E8E6217848060ED5A06A0028BA
:103BB0003FF40AAFB16841F00101B16003F032F99E
:103BC0000746B06880077FF5F8AEE06A002857D056
:103BD000A968EA68022801F00C017FF42DAF236B7D
:103BE00002F00300984202BF02F07000636B98423B
:103BF00014D1A36BC2F30620984202BF02F47810DE
:103C0000E36B98420AD1236C02F06060984202BFD5
:103C100002F06042606C82423FF4F6AE0C293FF441
:103C2000F5AD286841013FF5F1AD296821F08071BB
:103C300000F03CF80646286881013FF5D7AEE968F8
:103C4000DFF8B003A26B0140206B0143606B0143BE
:103C5000E06B41EA02210143206C0143606C0143A7
:103C6000E960286840F080702860E96841F0805180
:103C7000E96003F0D7F80446286881017FF5BDAEFE
:103C80000020BDE8F0817068400810F00100704726
:103C90002968606A21F0F001014329606868216A9F
:103CA00020F47F4040EA012068607047296003F0FB
:103CB000B9B8706840084000706003F0B3B82DE9EF
:103CC000F8430400884644D0DFF82C6300F0CBF8BA
:103CD00047D200F0CDF8074600F0C5F841D003F018
:103CE000A1F8C01B0228F7D90320BAE003F09AF824
:103CF000401B022843D9F7E703F094F8A0EB090032
:103D000002284CD9F0E703F08DF8A0EB0900022857
:103D100054D9E9E703F086F8401B02285DD9E3E7B0
:103D200003F080F8401B022867D9DDE703F07AF83A
:103D3000401B484577D3D7E7032802D1396889016A
:103D400003E00028396802D1890762D401E04905FF
:103D50005FD4012085E003F065F8C01B022872D90A
:103D6000C2E7207881074FF0B0470BD5B968A0684B
:103D700021F0F0010143B96003F054F80546B8683A
:103D8000C003B3D52078DFF8545281060AD52968DC
:103D9000606921F0F0010143FFF788FF8146286840
:103DA0008003A9D5207841060BD52968A0690909A7
:103DB000090141EA1011FFF779FF81462868C00325
:103DC000A1D5207841070BD5B968E06821F4E061FE
:103DD0000143B96003F026F80546B868800399D519
:103DE000207801070CD5B868216920F4605040EABA
:103DF000C100B86003F016F80546B86840038FD5D7
:103E00002078C10717D56068022895D139688903E1
:103E10009FD5B968890840EA8100B86041F28939C4
:103E200003F000F80546B868616800F00C00B0EBDC
:103E3000810F7FF47BAF306800F00700804505D22A
:103E400000F016F8074600F00EF884D100F053F8A1
:103E5000DFF88C110860FFF755F9BDE8F24302F076
:103E600063BEBDE8F283306800F00700404570474C
:103E70003168C90848EAC101316002F0D3BF38B5E2
:103E80004FF0B0445E4DA16811F00C0106D1FFF770
:103E90005BFCC0F3031055F8200032BD0429594AD9
:103EA00005D00829584804D12168C90222D51046F6
:103EB00032BDE16801F00301022904D0032904D1D5
:103EC0002168C90207D5104605E0FFF73DFCC0F3A5
:103ED000031055F82000E168E268E368C1F30621A9
:103EE0004843C2F30211491C5B0FB0FBF1F05B1CAD
:103EF000B0FBF3F032BD80B5FFF7C1FF3F49FFE7EC
:103F0000424A0968C1F3031152F82110B0FBF1F0E5
:103F100002BD80B5FFF7EFFF00F010F8C1F30221FA
:103F200006E080B5FFF7E7FF00F008F8C1F3C22113
:103F300012F8211001F01F01C84002BD2F49344A78
:103F40000968704770B52E49B1282EBFCC6AC0F3FE
:103F5000031051F820402148056802F069FF2B4901
:103F60002C4A05F00F0551F82510B4FBF1F100249F
:103F7000B1FBF2F1B0F5007F0FF2B802204609D193
:103F80000FF2940353F820508D4214D2401C0328A2
:103F9000F8D912E00FF2900353F820508D420AD264
:103FA000401C0328F8D308E002F03CFF801B0328E4
:103FB0000CD3032070BD52F820400F4D2868C00874
:103FC00044EAC000286002F02DFF0646296801F08F
:103FD0000701A142E8D1002070BD0000080100588F
:103FE0000C260020F8250020FFFFFEEE9000005870
:103FF000000400588C80C11100400058080000588F
:10400000B48B00080024F4000048E801748B000819
:104010000493000840420F0012000000240000003A
:104020003600000040000000060000000C00000008
:10403000100000000000000001000000020000006D
:1040400003000000DFF820130A68030903F47F234C
:1040500000019A4300F47F2000F082B9DFF80823C2
:104060001368010C23EA014343EA004313607047DD
:104070002DE9F843054600242878DFF8EC62410674
:10408000A0464FF0B0472DD5286B70B1B0F5800F2A
:1040900006D0B0F5000F18BFB0F5400F17D01FE0E5
:1040A000F86840F48030F860EDE0386820F0806017
:1040B000386002F0B7FE81463868000140F1D080D8
:1040C00002F0B0FEA0EB09000228F5D90324D7E0E6
:1040D00002F0A8FEA0EB0900022840F2C980F5E733
:1040E0000124A0462868010531D5B06800F4407865
:1040F000286C80452AD0FFF71FFBB8F1000FB1688C
:1041000005D1286C21F440710143B1601EE0B06814
:1041100040F48030B06021F44071B06820F4803009
:10412000B060286C0143B160B068C0070ED502F0E2
:1041300079FE804641F28939B068800706D402F0E2
:1041400071FEA0EB08004845F6D30324A04628786A
:10415000C10705D53168A869890840EA8101316045
:104160002878810705D53168E86921F44061014369
:1041700031602878C10644BFA86AFFF76FFF28782E
:10418000810644BFE86AFFF769FF2878410744BF0A
:10419000286AFFF757FF2878010744BF686AFFF7CE
:1041A00051FF2868C1051BD53168686B21F040615B
:1041B00001433160686BB0F1006F00F0BDF8686BCF
:1041C000B0F1806F75D100F0BDF804463868000189
:1041D00060D502F027FE001B0228F7D94FF0030834
:1041E00067E002F01FFE001B02285BD9F6E731688A
:1041F00021F04041316020F08050326822F040626E
:1042000010433060A86BB0F1C05F00F095F82868EB
:1042100041056DD53168E86B21F0405101433160B3
:10422000E86BB0F1005F03D1F96841F48031F960C7
:10423000E86BB0F1805F5BD100F084F80446386829
:10424000000146D502F0EEFD001B0228F7D94FF021
:1042500003084DE002F0E6FD001B022841D9F6E715
:1042600000F061F8A86821F4781100F071F8814637
:10427000386800017FF52CAF3969686901433961FD
:10428000002C7FF42EAF3168286B21F440010143EC
:10429000316027E700F047F8E86821F0606100F03E
:1042A00057F80446386800019BD5396968690143AD
:1042B000396128688105AAD5A86BB0F1804F1CBF71
:1042C000B0F1004F002892D1316821F040410843FD
:1042D00097E700F028F8286921F0604100F038F8ED
:1042E000044638680001B5D5396968690143396108
:1042F0002868C10405D5F168686C21F44041014388
:10430000F160286881040BD5796AE86C21F03001EE
:1043100001437962796AA86C890840EA810179626F
:104320004046BDE8F2833869696820F4FE4040EAFF
:10433000012038613969704703D1F96841F0807113
:10434000F9607047396821F08061396002F06ABD18
:1043500001433961386840F08060386002F062BD26
:1043600010430860704700008800005838B504000A
:1043700009D004F18005686808B900F01EF800F063
:1043800021F8012801D1012032BDA06A08B100F056
:104390002AF800F00AF821F02A01FFE7816000F016
:1043A0001BF8BDE8324000F03EBB2068416821F4B4
:1043B0009041416020688168704700212970204643
:1043C00002F00CBC2420686020680168490849009C
:1043D0000160204600F0BCB92068016841F001018D
:1043E000016020467047204600F0BABA70B5044616
:1043F00004F180051346686820283DD169B3180090
:104400002BD02878012837D001222A7004F15406D5
:104410002165338073800020E86021206860706A25
:10442000E8B1DFF82013C162DFF81C03716A08638A
:10443000716ADFF8180348630020716A8863206896
:10444000216D00F12802706A02F063FD38B110207E
:10445000E8600020287020206860012070BD21687D
:10446000402008620020287000F008F841F0800128
:1044700000F061FBF8D170BD022070BD206800F132
:10448000080151E8001F00F108027047216851E857
:10449000002F7047206800F1080151E8001F00F16B
:1044A000080221F0400142E8001000287047F8B5EA
:1044B000044640F60F002668F1693268B368084088
:1044C00004F15C050ED1880602D5900602D4D8000E
:1044D00040F181806969002900F029812046BDE80A
:1044E000F4400847DFF8E006034204BFDFF8DC765B
:1044F0003A4270D0CF0707D5D70505D501273762D7
:104500002E6B46F001062E638E0708D5DE0706D512
:10451000276802263E622E6B46F004062E634E0785
:1045200008D5DE0706D5276804263E622E6B46F0C6
:1045300002062E630E070AD5960601D4034206D062
:10454000266808203062286B40F0080028630805C0
:1045500009D5500107D526684FF400603062286BFA
:1045600040F020002863286B002833D0890607D547
:10457000900601D4D80003D5696909B1204688475F
:10458000286B21688A68510602D410F0280F1CD0CD
:10459000204600F0EFFA00F0D1F811D5FFF77AFFCE
:1045A000FCD1286A60B10FF2B1618163286A02F020
:1045B00029FD00280ED0286A816BBDE8F440084729
:1045C0002046BDE8F24002F00FBE204602F00CFE8D
:1045D00000202863F1BD286901286AD1CF0668D57B
:1045E000D00666D51020306200F0A8F82DD5296AD3
:1045F0000868406880B20028ECD02A889042E9DA46
:104600006880086801688A061BD4FFF73FFF22F420
:10461000807200F08FF8F8D1206800F07DFAFBD1AD
:10462000FFF738FFFCD12020E86200202861FFF767
:104630002DFF22F0100200F07DF8F8D1286A02F078
:10464000ABFC29886888091A2DE028886988411AF6
:10465000688800281CBF88B2002868D0226852E809
:10466000003F23F4907342E800300028F6D1206820
:1046700000F1080200F1080352E8002FDFF8C4023D
:10468000024043E800200028F1D12020E862002009
:1046900028616861226852E8003F23F0100342E875
:1046A00000300028F6D12046BDE8F44089B202F07F
:1046B0009CBDC80209D5580207D54FF4801030625E
:1046C0002046BDE8F24000F06DBB080609D5100693
:1046D00001D4180205D5A96949B32046BDE8F440C4
:1046E0000847480611D550060FD5FFF7CFFE22F038
:1046F000400200F01FF8F8D12020A8620020A86135
:104700002046BDE8F24002F09ABD080206D55000EE
:1047100004D52046BDE8F24002F0AEBDC80148BF56
:10472000002A04D52046BDE8F24002F0A6BDF1BD46
:1047300022F4F07241E80020002870472068816868
:1047400048067047D54B0008074C00080D4C000880
:10475000F8B50446DFF838052168DFF838C50A687F
:10476000DFF834750240A0680243206902436069A3
:104770000243E06902430A6000254A68E06822F4C7
:10478000405202434A60A369DFF8102591421CBFE2
:10479000206A03438E68DFF80805064033438B60C8
:1047A0000FF2A416CB6A606A1B0940EA0313CB62BE
:1047B0006145DFF8F0044FF4004339D13F6807F05A
:1047C0000307032F4DD8DFE807F0024643494FF0B7
:1047D000010CE169B1F5004F4FF6F07740F08080B1
:1047E000BCF1010F09D0BCF1020F0AD0BCF1040FDB
:1047F00071D0BCF1080F71D099E0FFF792FB00284F
:1048000015D0626A616836F81230B0FBF3F04A08DE
:1048100002EB4002B2FBF1F080B2A0F11001B9420C
:10482000EAD20740C0F3420007432068C7607FE038
:10483000914216D13F6817F4406723D0B7F5806FD7
:1048400009D0B7F5006F03D0B7F5406F06D008E088
:104850004FF0020C07E04FF0040C04E04FF0080C9E
:1048600001E04FF0100C9142B3D1BCF1000F09D020
:10487000BCF1020F0AD0BCF1040F15D0BCF1080F37
:1048800015D054E0FFF745FB002851D0616A36F897
:104890001120B0FBF2F6626802EB42018E4246D371
:1048A0001103B14205D242E0FFF7E9FAECE71846FE
:1048B000ECE75008002110EB062051EB16610023B5
:1048C00002F0DCFCA0F54071DFF8DC2391422ED22F
:1048D0002268D0602CE0FFF7D2FA90E7184690E704
:1048E000BCF1010F09D0BCF1020F09D0BCF1040FDB
:1048F00018D0BCF1080F18D019E0FFF712FBB8B1BF
:10490000626A36F812306168B0FBF3F000EB5100D8
:10491000B0FBF1F080B2A0F11001B94207D22168DA
:10492000C86005E0FFF7ABFAE9E71846E8E70125BC
:1049300004F1680001214180018000218160C16093
:104940002846F2BDFEFFFFEF010002000400060052
:1049500008000A000C001000200040008000000148
:1049600090F82810CA0706D502685368C16A23F474
:1049700000330B43536090F828108A0706D502686D
:104980005368016B23F480330B43536090F8281075
:104990004A0706D502685368416B23F480230B4312
:1049A000536090F828100A0706D502685368816B97
:1049B00023F400430B43536090F82810CA0606D531
:1049C00002689368C16B23F480530B43936090F8A3
:1049D00028108A0606D502689368016C23F40053F8
:1049E0000B43936090F828104A0610D5026853686C
:1049F000416C23F480130B435360416CB1F5801F6D
:104A000005D15368816C23F4C0030B43536090F8C5
:104A100028100A0606D501684A68C06C22F40022F4
:104A200002434A607047F8B5044604F1800500204F
:104A3000E8606FF07E4702F0F5F9064620680168ED
:104A40000A0708D50097334600224FF4001120468C
:104A500000F017F860B9206801684A070AD5009786
:104A6000334600224FF48001204600F00AF808B1D6
:104A70000320F2BD20206860A8600020E066287056
:104A8000F2BD2DE9F041069C05460E4690461F46B4
:104A90002868C1693140B1420CBF01200020404567
:104AA00026D114F1010FF3D002F0BCF9C01B8442EF
:104AB00000D33CB900F025F800F02DF8FCD100F04F
:104AC0001AF811E0286801684A07E1D5C1690A05AA
:104AD000DED54FF40062026200F013F800F01BF81C
:104AE000FCD100F008F8C16000210170032000E053
:104AF0000020BDE8F08105F1800020214160816047
:104B00007047296851E8002F22F4D07241E8002054
:104B10000028F6D17047286800F1080151E8001F0D
:104B2000490800F10802490042E8001000287047D7
:104B3000DFF87801014042E80010002870470000CB
:104B4000026852E8003F23F0C00342E80031002928
:104B5000F6D1016801F1080252E8002F01F10803C3
:104B600022F4000243E800210029F2D12021C0F8FC
:104B700084107047026852E8003F23F4907342E8C3
:104B800000310029F6D1016801F1080201F10803A2
:104B900052E8002F0E490A4043E800210029F2D1D3
:104BA000C16E012908D1026852E8003F23F01003CA
:104BB00042E800310029F6D12021C0F888100021F8
:104BC000C166016770470000010000102001000469
:104BD000FEFFFFEF0146886A09680A68930610D451
:104BE0000021A0F85610016801F1080252E8002FD8
:104BF00001F1080322F0800243E800210029F2D1EC
:104C00003BE002F01CBB806A02F0BBBBF8B5846AD3
:104C100004F1840504F1560728686E6821688A68E3
:104C2000110606D5212804D1002038802046FFF740
:104C300087FFFFF783FD06D5222E04D1002038819F
:104C40002046FFF797FFA86840F01000A8602046B4
:104C5000BDE8F24002F0C8BA806A00F156010022B5
:104C60000A810A8002F0C0BA026852E8003F23F0CD
:104C7000800342E800310029F6D1026852E8003F83
:104C800043F0400342E800310029F6D170470000AC
:104C9000F369FFCF003801408800005800800040D1
:104CA000FFF4FF110024F40000FD0F00FEFF7FEF72
:104CB00010B500F180010A78012A01D1022010BD4F
:104CC00001230B7024224A60026813681468640888
:104CD000640014600022426623F000530068036001
:104CE000202048600020087010BD70B500F01EF84C
:104CF00001D1022070BD00F01FF822F0604209E0EF
:104D000070B500F013F801D1022070BD00F014F866
:104D100022F0606211438160204600F01AF820689A
:104D20000660202068600020287070BD044604F1F1
:104D3000800528780128704701222A7024206860A5
:104D40002068066802685208520002602068826883
:104D5000704730B5416E11B90121012214E001689C
:104D60000FF230048A6889680FF23003520E02F0A5
:104D70000702490F655CA45C595C9A5CED00E40095
:104D800095FBF1F194FBF2F268304180028030BD76
:104D900000000000010101030701000008040204F3
:104DA00008010101704770477047704770477047AE
:104DB000704770477047704770477047704770473B
:104DC000704770477047704738B5024686B05078D4
:104DD0000024FF285AD1B2F80310DFF81C0440F673
:104DE0000143C91A02D012392ED04FE08388B2F89D
:104DF00007109B1C994209D1507B012410B1012856
:104E000002D043E003210CE002210AE003899B1C4D
:104E100099420BD1507B012410B1012804D035E018
:104E200005218DF8081026E0042022E04088401C6F
:104E300081422BD101248DF80840B2F80B108DF877
:104E400010100D32039216E08089B2F80710401C52
:104E500081421BD1957AB2F80500537A0124012DC5
:104E60000DD10A320192009300220023FDF7B0FB1E
:104E700007208DF8080002A8FCF7C2FE06E00A32FF
:104E80000192009301228023FDF7A2FB204607B088
:104E900030BD70B58AB0D948D74CD94DFCF702FE69
:104EA0008F218DF81810E522B3218DF819208DF887
:104EB0001A10D5222E218DF81B208DF81C107F2270
:104EC0004A218DF81D208DF81E1098222A218DF878
:104ED0001F208DF8201048227A218DF821208DF88E
:104EE0002210CC2240218DF823208DF82410FE22A0
:104EF00000218DF82520ADF826100094062301220C
:104F000006A90220FDF78FFA010003D02846FCF71E
:104F100063FE03E005F14800FCF75EFE00F007F9D0
:104F20008DF81A108DF81920ED218DF81C10AE2285
:104F30004C218DF81B208DF81E10212241218DF867
:104F40001D208DF820109D2222218DF81F208DF824
:104F50002210452241218DF821208DF824108E2227
:104F600000218DF82320ADF82610A01CFE2205900C
:104F700001218DF82520049102910020A14E01907D
:104F80001022062103920091337800F0CBF828B16B
:104F9000014605F17C00FCF71FFE03E005F1C000AF
:104FA000FCF71AFE00F0C3F88DF819208DF81A10DE
:104FB000AE22ED218DF81B208DF81C1021224C21F2
:104FC0008DF81D208DF81E109D2241218DF81F2087
:104FD0008DF82010452222218DF821208DF82210F5
:104FE0008E2242218DF823208DF82410201DFE22D0
:104FF000002105908DF82520ADF826100020012114
:10500000102201900491039202910092737800F0B3
:1050100089F828B1014605F1F400FCF7DDFD03E055
:1050200005F59E70FCF7D8FD41F60D00A11DADF809
:10503000180000910823012206A90120FDF7F3F9C9
:1050400028B1014605F5BA70FCF7C6FD03E005F589
:10505000DE70FCF7C1FD42F63720ADF8180004F110
:10506000080110200591039000900023B078F1789A
:105070000293091801220193049206AA30790B18B1
:10508000E0889BB20121FDF71DFA28B1014605F524
:10509000F870FCF7A1FD03E005F50D70FCF79CFD31
:1050A00042F63820ADF818000022049202920192D4
:1050B000102004F10A010390022205910092F37876
:1050C00000F02BF828B1014605F51A70FCF784FDB5
:1050D00003E005F52C70FCF77FFD42F63920ADF8B2
:1050E00018000022049201921020022304F10C0106
:1050F00003900293082205910092337900F00DF895
:1051000028B1014605F53970FCF766FD03E005F5A9
:105110004B70FCF761FD0AB070BDE08806AA012162
:10512000FDF7D0B9208806AA0221FDF7CBB91921D5
:105130008DF81810ED22822170470000F8B5314E2D
:10514000314DF37832792C4F9224042852D8DFE87D
:1051500000F003101E303F0000913378798800F092
:1051600055F8040002D0214628463CE005F14800ED
:105170003EE000917378B98800F048F8040003D04D
:10518000214605F180002EE005F1CC0030E0B0783A
:1051900000911B18D3183989F888DBB200F037F872
:1051A000040003D0214605F584701CE005F5A870C5
:1051B0001EE0009100227989F888FDF7DDF90400EE
:1051C00003D0214605F5C4700DE005F5E8700FE049
:1051D00000911346B989F88800F019F8040005D049
:1051E000214605F50270FCF7F7FC03E005F51570A4
:1051F000FCF7F2FC2046F2BD702E0020C94D0008DD
:10520000D080000804260020148700083888002277
:10521000FDF7B2B910B50446FCF7A2F8204610BD60
:1052200010B5044610460A460146204602F0AAF888
:10523000204610BD2DE9F04F0FF2A41CA1B0DCE90F
:105240000089CDE900892A9DDFF8DC9B04910024C8
:105250008DF843500D944FF0FF38824616461F4696
:105260000FE0B3462C461BF8011B0498D0470028DA
:10527000049000F0A2800D98401C641E0D90F2D1A5
:1052800076193078252808D100210022079108924C
:1052900009910A920B910C920DE06A464146304604
:1052A00002F0ACF8050001D10D98A1E0D9D5012597
:1052B000E6E741F0010116F8010F2028F9D0232874
:1052C0000CD02B2804D02D2805D0302809D076E02A
:1052D00041F00201EFE741F00401ECE741F0080181
:1052E000E9E741F01001E6E70F9209E00F98484521
:1052F00005DA00EB800402EB4402303A0F92761C90
:105300003278A2F130000A28F0D330782E2818BF66
:10531000CDF8388022D116F8010F2A2807D1386835
:105320003860761C50F8042B38600E9216E02D2859
:105330000CBF761C002000220E920AE040B90E9AA3
:105340004A4505DA02EB820403EB4403303B0E933B
:10535000761C3378A3F130020A2AEFD3ADF840105F
:1053600021A0317802F054F808B116F8010B8DF83D
:1053700042009DF84200682804D1307868280AD19C
:10538000622105E06C2804BF30786C2803D17121BC
:105390008DF84210761C12A806903A4616F8013B8A
:1053A00002A9504600F064F838B912AA02A9504682
:1053B00000F0C8F900287FF564AF404618E02A28BD
:1053C00092D13A683A6052F8040B3A6000280F9084
:1053D00003D540420F9041F00401761C95E7000090
:1053E0000000000000000000686A6C747A4C000045
:1053F00021B0BDE8F08F622820D0682811D06A283B
:1054000003D06C2827D0712825D10868C01D20F052
:1054100007000860D0E900230830086019461046EC
:105420007047002A0A680A60106803D0121D0A60DB
:1054300000B217E0121D0A6080B217E0002A0A6865
:105440000A60106803D0121D0A6040B20AE0121D03
:105450000A60C0B20AE0002A0A680A60106803D035
:10546000121D0A60C1177047121D0A6000217047A3
:105470007CB50D4611461C462E69B4F1250200F09C
:105480004F811C3A00F08480121F022A40F2808073
:105490000E3A00F00981521F59D0093A78D0921E75
:1054A00016D0521E35D0521E022A71D9121F30D08A
:1054B000521F00F09880521E49D0521E00F0E28028
:1054C000D21E00F0FF80921E41D0D21E3FD02DE1AF
:1054D00095F83A406C2C09D06869421C6A610A68E8
:1054E0000A6052F8043B0A60335429E10A680A60F2
:1054F00052F8043B0A600093002201924FF0FF3300
:105500002B636A46294600F098F9002840F118817B
:1055100003E195F83A000122FFF76DFFC5E90001AC
:10552000002904D56869411C69612D220DE0288F8E
:10553000810704D56869411C69612B2205E0C00719
:1055400021D56869411C6961202232541BE095F81D
:105550003A000022FFF74FFFC5E9000195F8380037
:10556000010710D5D5E90023002B08BF002A0AD077
:1055700044F02000782806D1686930213154401C5D
:10558000421C6A613454214668693044E86087E00F
:105590000868C01D20F007000860D0E9002308302B
:1055A0000860C5E90023D5E90001C80F04D0686987
:1055B000411C69612D220DE0288F810704D568699F
:1055C000411C69612B2205E0C00704D56869411CB4
:1055D00069612022325468693044E86021462846D7
:1055E00000F036FAACE005F13A02507820B14FF005
:1055F000FF340FF6043074E01078622808D0682871
:1056000024D06A2812D06C282ED071280ED02BE01E
:105610000A680A6052F8040B0A6020B94FF0FF34A0
:105620000FF6EC205DE0E96A017089E00A680A6023
:1056300052F8040B0A6020B94FF0FF340FF6D02067
:105640004FE0EA6AD317C0E9002379E00A680A60EC
:1056500052F8040B0A6020B94FF0FF340FF6B02067
:105660003FE0E96A01806BE00A680A6052F8040BC7
:105670000A6020B94FF0FF340FF6942031E0E96A58
:1056800001605DE00A680A6052F8040B0A600021BC
:1056900020F0000221F0FF33C5E90023EE607821FD
:1056A000284600F02DF94BE06C2285F83A200B6873
:1056B0000B6053F8042B0B6052BB4FF0FF340FF616
:1056C00084200EE095F83A206C2AF0D00868086033
:1056D00050F8044B0860EC603CB94FF0FF340FF613
:1056E000482001F0A1FE201A76BD2E6B002E04D5B5
:1056F000204601F0B9FE044608E03246002120466B
:1057000001F0CEFE002814BF041B3446AC6117E044
:10571000294600F092F8002812D54FF0FF3076BDF0
:105720006869411C69612522325409E06969481C95
:10573000686125227254210002D0431C6B613454ED
:10574000002076BD2DE9F0410E4605469046726B6D
:105750007069316AB46A121AB069521A716A121AFF
:10576000F069521A121A96F83800141B41070DD42A
:10577000002C0BDD2746B0682021A8470028B06028
:1057800057D0F06A401C7F1EF062F4D17369424624
:105790003146284600F098FC00284AD1376A002F8D
:1057A0000ADDB0683021A8470028B06041D0F06A17
:1057B000401C7F1EF062F4D1B369F268314628467E
:1057C00000F082FCA8BB776A002F09DDB0683021A9
:1057D000A847B06068B3F06A401C7F1EF062F5D144
:1057E000F068B169F36942183146284600F06CFC54
:1057F000F8B9B76A002F09DDB0683021A847B0605A
:10580000B8B1F06A401C7F1EF062F5D196F83800FE
:1058100041070BD5002C09DDB0682021A847B060F6
:1058200038B1F06A401C641EF062F5D10020BDE87A
:10583000F0814FF0FF30BDE8F0812DE9F8470D46CB
:10584000A3B02F6B002F0646904648BF6FF000476D
:105850000FF60C1401F050FED4E90023696B4018D8
:10586000CDE90123812828BF4FF0FF3042D2002428
:10587000002F33DDD8F8001001AA684601F0C0FD02
:105880008146B9F1000F38D4D8F8000010B9B9F149
:10589000010932D44F4521DB6869484481280AD385
:1058A0000021696303AA29463046FFF74BFF040035
:1058B00014D40020686103ABD5F814A04A466946A9
:1058C00003EB0A00FBF74CFDCA44C5F814A058F8D6
:1058D000040B002818BFA7EB0907C9D14CB903AACC
:1058E00029463046FFF72EFF044614B900206861B0
:1058F0006863204624B0BDE8F0874FF0FF34F8E736
:105900002DE9FC4307466F293E6908BF082405D0EE
:1059100041F02000782814BF0A2410243C25D7E940
:105920000023642918BF69299046994605D1002BA8
:1059300003D5D8F1000869EB4909B9F1000F08BF98
:10594000B8F1000F1FD1386BE8B9082C4CD197F88B
:105950003800010748D530203B2586F83B0043E05E
:1059600000280ED597F8380000F01400102808D150
:105970007B6B7969386A5B1A1B1A9A1A002AC8BFAE
:105980003A62BDE8F3838DF800104046494622464E
:10599000E31701F073FC3032D0B26D1E3A28019546
:1059A00004DB9DF80000A0F151018A1872554046B1
:1059B00049462246E31701F061FC80465FEA01098F
:1059C00008BFB8F1000F03D0F86871198842DCD322
:1059D000082C09D197F83800010705D5705D3028EB
:1059E00002D06D1E30207055C5F13C02BA617119AC
:1059F000F960386B8242B3DA821A3A624FF6EF707E
:105A0000398F01403987BDE8F3832DE9D04306463D
:105A10000F4614464FF00008DFF8109412E0E0073C
:105A200007D542464B4630463946FCF71BFA064638
:105A30000F464046494642464B46FCF713FA64106F
:105A400080468946002CEAD130463946BDE8D083ED
:105A50002DE9F84F05468A464AF020048EB0D5E974
:105A60000089612C02AE09D0286B002848BF0620AF
:105A700003D408BF672C01D101202863D5E90001B8
:105A80004A005215521C0DD10B030BD0AAF1610133
:105A900003201A29A86102D20FF2CC6110E00FF2A4
:105AA000CC610DE04A005215521C0ED10B030CD1F3
:105AB000AAF1610103201A29A86116D30FF2B4617B
:105AC000E8680322FBF74CFCC0E1CDE90C01DDE9FD
:105AD0000C2323F00043B3F5801F0DD20027002BC9
