:020000040800F2
:1000000008100020D5960008659400086794000841
:10001000699400086B9400086D94000800000000CB
:100020000000000000000000000000006F940008C5
:100030007194000800000000739400087594000893
:10004000F7960008FB960008FF96000879940008D0
:1000500003970008079700087D9400088394000820
:100060000B9700080F970008899400081397000861
:10007000179700081B9700088F9400081F97000827
:1000800023970008279700082B9700082F97000850
:1000900033970008379700083B9700083F97000800
:1000A00043970008479700084B9700084F970008B0
:1000B00053970008579700085B9700085F97000860
:1000C00063970008679700086B9700086F97000810
:1000D000959400089B940008739700087797000890
:1000E0007B9700087F970008839700088797000890
:1000F000A1940008A5940008A99400088B97000813
:100100008F97000893970008979700089B9700081F
:100110009F970008A3970008A7970008AB970008CF
:10012000AF970008B3970008AD940008B797000890
:10013000BB970008BF970008C397000810B590B0A0
:1001400002A80FF2A801DFF80C46382201F068F986
:100150000FF281600190009469460FF2616001F036
:10016000B1F90121022001F096FADFF8EC25002117
:10017000042001F00EFB02A801F094FB08B101F08D
:1001800026FD00F03DF901F023FDDFF8D0450FF228
:100190001D52002084F8800000214FF6FF70E0829D
:1001A000012001F0F6FA0FF23D520021022001F089
:1001B000F0FA062001F07CFD28B101460FF228601C
:1001C00001F0A8FD03E00FF2646001F0A3FDDFF889
:1001D0009005002101700121417001F02BFE0020EB
:1001E0002083012000F030FA10B010BD00000000A4
:1001F00000000000000000000000000000000000FF
:10020000440008004005020112279C00F401000090
:10021000FFFFFFFF480101000020000000037206FD
:10022000000000002DE9F0412DED028B044684B062
:100230006078DFF82C65DFF82455052804D03E28C7
:100240001BD0FF286FD0CBE0A088E98A88420DD16F
:100250000020E88285F880000FF2086001F05AFD66
:10026000A279A1880FF2286001F054FD012000F06E
:10027000EBF901203071E88A50E0E0780FF28068F5
:100280000A2701289FED5C8B17D0032814D10FF2A9
:100290003C6001F03FFDB4F80B0047430197B4F810
:1002A00009000090B4F8070001F038FF53EC182B58
:1002B00001F042FF00F09AF892E0B4F805100FF256
:1002C000AC6001F027FD607A0290A07A0190E07A9C
:1002D0000090237B627BA17B0FF2D86001F01AFDB6
:1002E000B4F8130047430197B4F811000090B4F834
:1002F0000F0001F013FF53EC182B01F01DFF00F06D
:1003000075F895F8800004280CBF0620052085F8B4
:1003100080000021B4F80500E8823171F080301DC2
:1003200001F087FD5CE0B4F8030040F20141401A9F
:1003300043D0401E12D0401F0AD0801E1FD0401E46
:1003400009D040F2F631401A4AD10120707047E0DE
:100350000FF2B06042E00FF2D4603FE00FF2FC60B9
:1003600001F0D8FCE88ADFF8FC1302F05DF8010028
:1003700018BF0FF210701AD10FF23C702EE00FF27E
:10038000607001F0C7FCD4F807100FF2887001F01C
:10039000C1FCD4F807100FF2987001F0BBFCE88A9A
:1003A000012102F009F928B101460FF29C7001F019
:1003B000B1FC15E00FF2E07010E00FF6240001F040
:1003C000A9FCE17929B1227A0FF6400001F0A2FCE4
:1003D00003E00FF6740001F09DFCC1A001F09AFC4F
:1003E00004B00120BDEC028BBDE8F08102460B4653
:1003F000404601F08FBC0000000000000000F43F08
:1004000018B587B00020ADF81A000FF6540001F0BF
:1004100081FC02F0FCF8010004D00FF6700001F03E
:1004200079FC03E00FF6940001F074FCCE480168FB
:1004300011F1010F0DD0CD4C42682170120A090A4A
:1004400061704068A070E270100A120C2071627135
:1004500006E0002002F02CF9040008BF0FF2C014DF
:1004600022460621002001F0EEFB28B101460FF6DE
:100470006C0001F04FFC10E00FF6BC0001F04AFCEC
:100480002078029060780190A0780090E37822793B
:1004900061790FF6F00001F03DFC0FF28C12102193
:1004A000182001F0D0FB28B101460FF6141001F01E
:1004B00031FC03E00FF6601001F02CFC0FF2781213
:1004C0001021082001F0BFFB28B101460FF6901063
:1004D00001F020FC03E00FF6E01001F01BFC1921F5
:1004E000012001F0D7FB28B101460FF6142001F0DE
:1004F00011FC03E00FF6482001F00CFC02F0EAF8D2
:1005000028B101460FF6682001F004FC03E00FF665
:10051000942001F0FFFB0DF1160006A90190009157
:1005200005AB09220021012001F09BFF28B1014603
:100530000FF6A02001F0EEFB03E00FF6C82001F05B
:10054000E9FB0FF68420BDF8181000900923BDF8D0
:100550001400002202F07EF90DF11A00009002232F
:10056000BDF81610BDF81400002202F073F9022243
:100570000221002002F06BF828B101460FF6A820F6
:1005800001F0C8FB03E00FF6DC2001F0C3FB734C65
:100590000120207001F0FCFE28B101460FF6F0208A
:1005A00001F0B8FB03E00FF6283001F0B3FB0120A7
:1005B0006070002108202071A170102060710491EA
:1005C0000020E07010216748A060039008220020FE
:1005D00001910092029000230122012101F0F1FE1D
:1005E00028B101460FF6183001F094FB03E00FF636
:1005F0005C3001F08FFBA07860B101F075FF28B18D
:1006000001460FF6843001F085FB03E00FF6B830A9
:1006100001F080FB0FF6E03001F07CFB08B010BD6C
:100620006C7AD8AC57720000123456789ABCDEF05F
:10063000123456789ABCDEF0FEDCBA098765432195
:10064000FEDCBA0987654321444900B581F8800082
:1006500087B0002000230690059004900393029039
:1006600001900090A022802101F049FE010004D0F9
:100670000FF6B03001F04EFB03E00FF6E03001F072
:1006800049FB3B49132001F01CFF010006D007B0D5
:100690005DF804EB0FF6F03001F03CBB07B05DF8FD
:1006A00004EB0FF6184001F035BB000010B52B4CE1
:1006B00094F88000052812D001F00FFE002184F884
:1006C000801010B10FF61C4005E00FF63C4001F021
:1006D00021FB0FF63C40BDE8104001F01BBB10BDF4
:1006E0000A0000001CB51D4C94F88000012818BFBA
:1006F00000282DD01A484178012929D100220178FB
:100700004270491C01EBD1725210A1EB4201017001
:10071000F7EE040A017800EB81004FF4FA7190EDD6
:10072000020AE08A0091C0EE200AFDEEE00A10EE17
:10073000902A92B20023114602F0F7F8BDE8164065
:10074000002814BF0FF6E4300FF6084001F0E2BABB
:1007500013BD0000AC08032003150008CC280020BE
:10076000E025002007B201008075FF1FD02C00207B
:10077000CC25002001F09ABB80B501F0C7FE28B15E
:1007800001460FF6004001F0C5FA03E00FF62840DD
:1007900001F0C0FABDE802400FF6484001F0BABAD5
:1007A0000021022001F002B80021042000F0FEBF69
:1007B000012001F021B8012001F026B810B504464F
:1007C000616801F1080002F0E3F800B10120207037
:1007D00010BD000010B1012803D070473F2000F089
:1007E000F9BF3F2000F0FEBF20204661696C202049
:1007F000203A206163695F68616C5F7365745F7242
:100800006164696F5F61637469766974795F6D6152
:10081000736B20636F6D6D616E642C2072657375F0
:100820006C743A2030782578200A0D00202053750A
:1008300063636573733A206163695F68616C5F73BA
:1008400065745F726164696F5F616374697669740E
:10085000795F6D61736B20636F6D6D616E640A0DFE
:10086000000000003E3E3D3D204843495F4449535F
:10087000434F4E4E454354494F4E5F434F4D504CAE
:100880004554455F4556545F434F44450A000000B8
:1008900020202020202D20436F6E6E656374696FC9
:1008A0006E2048616E646C653A202020307825788F
:1008B0000A20202020202D20526561736F6E3A207F
:1008C000202020307825780A0D0000003E3E3D3D76
:1008D000204843495F4C455F434F4E4E4543544982
:1008E0004F4E5F5550444154455F434F4D504C452A
:1008F00054455F5355424556545F434F44450A00A3
:1009000020202020202D20436F6E6E656374696F58
:100910006E20496E74657276616C3A202020252E17
:100920003266206D730A20202020202D20436F6E18
:100930006E656374696F6E206C6174656E63793A7D
:100940002020202025640A20202020202D205375DF
:10095000706572766973696F6E2054696D656F7525
:10096000743A202564206D730A0D00003E3E3D3D23
:10097000204843495F4C455F434F4E4E45435449E1
:100980004F4E5F434F4D504C4554455F5355424584
:1009900056545F434F4445202D20436F6E6E656370
:1009A00074696F6E2068616E646C653A20307825DA
:1009B000780A000020202020202D20436F6E6E65D5
:1009C0006374696F6E2065737461626C69736865C6
:1009D0006420776974682043656E7472616C3A2094
:1009E000403A253032783A253032783A253032781C
:1009F0003A253032783A253032783A253032780A42
:100A0000000000003E3E3D3D204143495F474150CC
:100A10005F50524F435F434F4D504C4554455F56D6
:100A2000534556545F434F4445200D003E3E3D3DE7
:100A3000204143495F4741505F4B45595052455310
:100A4000535F4E4F54494649434154494F4E5F56B8
:100A5000534556545F434F44450A00003E3E3D3DDA
:100A6000204143495F4741505F504153535F4B45DD
:100A7000595F5245515F56534556545F434F444565
:100A8000200A00003D3D3E3E206163695F67617062
:100A90005F706173735F6B65795F72657370203A25
:100AA000204661696C2C20726561736F6E3A20304C
:100AB0007825780A000000003D3D3E3E20616369D4
:100AC0005F6761705F706173735F6B65795F72659B
:100AD0007370203A2053756363657373200A0000B6
:100AE0003E3E3D3D204143495F4741505F4E554D9D
:100AF000455249435F434F4D50415249534F4E5F1A
:100B000056414C55455F56534556545F434F4445F7
:100B10000A00000020202020202D206E756D6572B7
:100B200069635F76616C7565203D20256C640A0001
:100B300020202020202D204865785F76616C756527
:100B4000203D20256C780A003D3D3E3E20616369D2
:100B50005F6761705F6E756D657269635F636F6D0E
:100B600070617269736F6E5F76616C75655F636FDC
:100B70006E6669726D5F7965736E6F2D2D3E594596
:100B800053203A204661696C2C20726561736F6E48
:100B90003A20307825780A003D3D3E3E2061636969
:100BA0005F6761705F6E756D657269635F636F6DBE
:100BB00070617269736F6E5F76616C75655F636F8C
:100BC0006E6669726D5F7965736E6F2D2D3E594546
:100BD00053203A2053756363657373200A00000045
:100BE0003E3E3D3D204143495F4741505F504149B2
:100BF00052494E475F434F4D504C4554455F565305
:100C00004556545F434F44450A00000020202020F1
:100C1000202D2050616972696E67204B4F200A2099
:100C2000202020202D205374617475733A20307871
:100C300025780A20202020202D20526561736F6EB8
:100C40003A20307825780A0020202020202D2050BE
:100C5000616972696E6720537563636573730A0017
:100C60003D3D3E3E20537461727420426C655F4886
:100C700063695F4761705F476174745F496E69744F
:100C80002066756E6374696F6E0A000020204661ED
:100C9000696C2020203A206863695F72657365740F
:100CA00020636F6D6D616E642C20726573756C745A
:100CB0003A2030782578200A000000002020537563
:100CC00063636573733A206863695F726573657403
:100CD00020636F6D6D616E640A0000002020466124
:100CE000696C2020203A206163695F68616C5F77DE
:100CF000726974655F636F6E6669675F6461746172
:100D000020636F6D6D616E64202D20434F4E464908
:100D1000475F444154415F505542414444525F4F04
:100D200046465345542C20726573756C743A2030D6
:100D3000782578200A0000002020537563636573CE
:100D4000733A206163695F68616C5F77726974658B
:100D50005F636F6E6669675F6461746120636F6D66
:100D60006D616E64202D20434F4E4649475F4441DC
:100D700054415F505542414444525F4F46465345AB
:100D8000540A000020205075626C696320426C7523
:100D900065746F6F746820416464726573733A2080
:100DA000253032783A253032783A253032783A2573
:100DB0003032783A253032783A253032780A0000DD
:100DC00020204661696C2020203A206163695F68B9
:100DD000616C5F77726974655F636F6E6669675F88
:100DE0006461746120636F6D6D616E64202D2043BA
:100DF0004F4E4649475F444154415F49525F4F4619
:100E0000465345542C20726573756C743A203078C3
:100E10002578200A00000000202053756363657365
:100E2000733A206163695F68616C5F7772697465AA
:100E30005F636F6E6669675F6461746120636F6D85
:100E40006D616E64202D20434F4E4649475F4441FB
:100E500054415F49525F4F46465345540A000000D3
:100E600020204661696C2020203A206163695F6818
:100E7000616C5F77726974655F636F6E6669675FE7
:100E80006461746120636F6D6D616E64202D204319
:100E90004F4E4649475F444154415F45525F4F467C
:100EA000465345542C20726573756C743A20307823
:100EB0002578200A000000002020537563636573C5
:100EC000733A206163695F68616C5F77726974650A
:100ED0005F636F6E6669675F6461746120636F6DE5
:100EE0006D616E64202D20434F4E4649475F44415B
:100EF00054415F45525F4F46465345540A00000037
:100F000020204661696C2020203A206163695F6877
:100F1000616C5F7365745F74785F706F7765725F23
:100F20006C6576656C20636F6D6D616E642C2072EC
:100F30006573756C743A2030782578200A000000BB
:100F40002020537563636573733A206163695F683A
:100F5000616C5F7365745F74785F706F7765725FE3
:100F60006C6576656C20636F6D6D616E640A000060
:100F700020204661696C2020203A206163695F6708
:100F80006174745F696E697420636F6D6D616E6406
:100F90002C20726573756C743A2030782578200A9D
:100FA000000000002020537563636573733A20616D
:100FB00063695F676174745F696E697420636F6DE4
:100FC0006D616E640A0000004D595F435553544FE4
:100FD0004D00000020204661696C2020203A2061ED
:100FE00063695F6761705F696E697420636F6D6DBF
:100FF000616E642C20726573756C743A20307825AC
:1010000078200A002020537563636573733A20616A
:1010100063695F6761705F696E697420636F6D6D8E
:10102000616E640A0000000020204661696C202087
:10103000203A206863695F6C655F7365745F6465FF
:101040006661756C745F70687920636F6D6D616E39
:10105000642C20726573756C743A20307825782082
:101060000A0000002020537563636573733A20689B
:1010700063695F6C655F7365745F64656661756CF9
:10108000745F70687920636F6D6D616E640A000033
:1010900020204661696C2020203A206163695F67E7
:1010A00061705F7365745F696F5F636170616269CE
:1010B0006C69747920636F6D6D616E642C2072654C
:1010C00073756C743A2030782578200A000000008F
:1010D0002020537563636573733A206163695F67AA
:1010E00061705F7365745F696F5F6361706162698E
:1010F0006C69747920636F6D6D616E640A00000025
:1011000020204661696C2020203A206163695F6776
:1011100061705F7365745F61757468656E7469632F
:101120006174696F6E5F726571756972656D656E08
:101130007420636F6D6D616E642C20726573756CC5
:10114000743A2030782578200A000000202053755A
:1011500063636573733A206163695F6761705F738E
:1011600065745F61757468656E7469636174696FD5
:101170006E5F726571756972656D656E7420636FFF
:101180006D6D616E640A000020204661696C20204C
:10119000203A206163695F6761705F636F6E6669A3
:1011A000677572655F77686974656C6973742063CD
:1011B0006F6D6D616E642C20726573756C743A206E
:1011C00030782578200A000020205375636365730A
:1011D000733A206163695F6761705F636F6E666910
:1011E000677572655F77686974656C69737420638D
:1011F0006F6D6D616E640A003D3D3E3E20456E643C
:1012000020426C655F4863695F4761705F47617446
:10121000745F496E69742066756E6374696F6E0AD7
:101220000D0000003D3D3E3E206163695F676170D7
:101230005F7365745F646973636F76657261626C16
:1012400065202D206661696C2C20726573756C7445
:101250003A2030782578200A000000003D3D3E3ECF
:10126000206163695F6761705F7365745F64697350
:10127000636F76657261626C65202D2053756363C0
:101280006573730A000000003D3D3E3E20537461CB
:101290007274204661737420416476657274697358
:1012A000696E67204661696C6564202C20726573E5
:1012B000756C743A202564200A0D00003D3D3E3EC9
:1012C00020537563636573733A205374617274209D
:1012D00046617374204164766572746973696E67E0
:1012E000200A0D002A2A2053544F502041445645CD
:1012F00052544953494E47202A2A20204661696C9E
:101300006564200D0A0D000020200D0A0D0000006C
:101310002A2A2053544F5020414456455254495391
:10132000494E47202A2A20200D0A0D00424C455FD5
:101330005356435F4C324341505F436F6E6E5F556F
:10134000706461746528292C204661696C6564208D
:101350000D0A0D00424C455F5356435F4C324341EA
:10136000505F436F6E6E5F55706461746528292C01
:10137000205375636365737366756C6C79200D0A11
:101380000D0000003D3D3E3E206163695F67617076
:101390005F636C6561725F73656375726974795FB1
:1013A0006462202D204661696C2C20726573756C17
:1013B000743A202564200A003D3D3E3E2061636969
:1013C0005F6761705F636C6561725F73656375729F
:1013D0006974795F6462202D20537563636573734C
:1013E0000A0000004150505F424C455F4B65795FF9
:1013F000427574746F6E325F416374696F6E0A0078
:1014000062B38B0708D0521E11F8013B00F8013B74
:1014100000F024808B07F6D1830740F0208000BFC6
:10142000103A07D330B4B1E83810103AA0E83810B9
:10143000F9D230BC530724BFB1E80810A0E8081067
:1014400044BF51F8043B40F8043BD20724BF31F8B5
:10145000022B20F8022B44BF0B7803707047121F39
:1014600017D35B0009D151F8043B20F8023B1B0C59
:10147000121F20F8023BF6D20BE051F8043B00F8B3
:10148000013B1B0A20F8023B1B0C121F00F8013B1A
:10149000F3D238BF121D521E24BF11F8013B00F8D1
:1014A000013BF8D87047B1F5807F02D34FF0FF3091
:1014B00070470170012070470078401E8041C04392
:1014C000C00F70477FB50C466D4D61686D4EE86189
:1014D0002962284601F086FA246805F1240001F00B
:1014E0008BFA746006F1080001F086FA0120307072
:1014F000296829B10FF25510009002946846884778
:101500007FBD1FB55F4C04F1080001F078FA00BB05
:101510002178F1B1694604F1080001F099FA5848C0
:10152000C16949B10098029001228DF8042001A8F8
:1015300088479DF8040000E001202070207818B151
:10154000009801F03AFB04E0009904F1080001F072
:101550005FFA04F1080001F052FA28B9207818B1B6
:1015600004F10800FFF720F91FBD2DE9F8430646F6
:10157000002000F05FF874883088B268DFF80081DE
:10158000C4F3090444EA8024F068A4B2C1B220463E
:1015900000F03CF8002748F2E8094846FFF70BF94D
:1015A00008E06888A04202D131692878087068781C
:1015B00000B1012708F1240001F021FAF0B96946D1
:1015C00008F1240001F044FA009800F10B05407A7C
:1015D0000F28E6D0B5F80110A1420DD10098817A0C
:1015E000C81E7169C0B28842C8BF08467061024611
:1015F0003069E91CFFF704FF2878D9E73800CCD020
:10160000012000F017F80020BDE8F28310B5134662
:101610001C4A5468A4F80900E1720A46194604F10C
:101620000C00FFF7EDFE164A1369BDE810400021DB
:10163000002018471249096A82B008B921B101E0B7
:1016400011B1012002B0084702B0704710B5014641
:10165000487A0F2818BF0E2807D10B4801F0E2F98D
:10166000BDE810400020FFF7A3B8064C04F10800C5
:1016700001F0D8F904F10800BDE81040FFF794B874
:10168000242C0020A42C0020482C00200C480021F1
:1016900001604160704710B500F00CF85C6819B14A
:1016A000012904D1204301E024EA0000586082F3BC
:1016B000108810BDEFF3108272B6014B7047000026
:1016C000E02C00202DE9FC47604CDFF88491A569EF
:1016D0002840A0614FF0FF3A21694FF0010834E043
:1016E000521C54F83200616919400142F8D0616916
:1016F00004EBC206084071681840014208BFC6F8F2
:1017000004A07768384000F0A5F8606208FA00F09D
:1017100087437760EFF3108172B6626A206908FA36
:1017200002F2D24310402061022004EBC00353F8C0
:10173000086C1640401E43F8086CF6D181F31088FF
:10174000606A59F8201088472169A36960690140DF
:10175000194205D0E069216A084208BF0022C0D0C2
:10176000C4F824A001F077FAEFF3108972B621696A
:1017700060690140A069014201BFE169206A01423C
:1017800001F0F9FB89F3108801F0A2FDA561BDE825
:10179000F38738B51446EFF3108572B600F05AF8A7
:1017A0002B4941F8204085F3108831BD10B500F079
:1017B0000BF804431C6153F83140204343F83100D7
:1017C000FFE782F3108810BDEFF3108272B61F4B53
:1017D0001C697047EFF3108172B61C4A536923EA03
:1017E000000005E0EFF3108172B6184A5369184300
:1017F000506181F310887047EFF3108172B6134A7D
:10180000D3691843D061F4E7F8B5104C666A256ACD
:10181000374616F1010F0EBF0026012101FA06F628
:10182000206202E0304601F0A7FB216AE06908422D
:10183000F8D06762EFF3108172B6E269206A8243E2
:10184000E26181F310882562F1BD0000842500204B
:101850005029002002460020110C090404BF10206A
:10186000120412F07F4F04BF083012020FF2180169
:1018700012F0704F04BF001D1201120FC0F11F00C3
:10188000895C401AC0B270470403020201010101E1
:10189000000000000000000001F071FD9DF80E0046
:1018A00005B000BDF8B500F10C026B462C214FF6D7
:1018B0006640F1E7F8B500F10C026B460F214FF6D8
:1018C0006840E9E7F8B502466B460E214FF67540D1
:1018D000E2E770B51B491C4B0A681C49C2F30D02B4
:1018E00001EB82010C6822689A4205D16569A16901
:1018F000E269E368246904E025696169A2696368B3
:10190000A4682E0E067001722E0C467042722E0ACA
:101910008670C473C5F3031605F00F050571C67014
:101920000D0E45710D0C85710D0A190E8172C57170
:10193000190CC1721B0A210E41730373210C8173B0
:10194000002070BD3C400058B95646A90000032055
:101950008B4900E08B4981B00A6802430A6009683C
:1019600008400090009801B0704778B585B001F04C
:1019700055FD01F071F900F093F800F0D0F8824CB9
:101980008248834DA0634FF4881604F1380001F0BB
:1019900073FD6846142101F0A7FD0420FFF7DAFF6C
:1019A0000120FFF7D7FF0820FFF7D4FF0220FFF741
:1019B000D1FF00222021284601F05EFE102000F019
:1019C00069F8744801F094FD032000F063F8724850
:1019D00001F08EFD202001210090019100200221C4
:1019E000029003912846694601F082FD0022002101
:1019F000062001F07DFE062001F098FE0022002165
:101A0000072001F075FE072001F090FE0022002162
:101A10000A2001F06DFE0A2001F088FE0420FFF785
:101A200097FF0120FFF794FF0220FFF791FF0022AC
:101A30000F210E2001F05CFE0E2001F077FE002247
:101A40000F213A2001F054FE3A2001F06FFE534876
:101A50002060002060600F20A06047F6FF70E0600B
:101A600000202061A061E0616061204601F0B4FEC9
:101A700000220021204601F053FF49486062002007
:101A8000A06204F1240001F0DBFF01F00DF901F088
:101A900071FAFCE7009001960120029069467047B8
:101AA00080B59AB008A8482101F01EFD01A81C21AC
:101AB00001F01AFD01F0E4FF3A48016821F0180135
:101AC000016047213848026822F4C06242F4007283
:101AD00002604FF48032006800F4C060009000980B
:101AE000089101200A904FF4807112900B91002010
:101AF0004021139009920C9108A801F0D2FF6F20A9
:101B0000019002210020029103900490059006901C
:101B10000790012101A802F076FA1BB000BD10B5B4
:101B200094B06846502101F0DFFC4FF480401190E2
:101B30000221102013904FF44054129100946846F3
:101B400002F03AFC14B010BD10B5184C184800F063
:101B500031F84FF40040E061002020626062A06232
:101B6000204602F0A7FD0021204603F062FA002182
:101B7000204603F069FA2046BDE8104003F03CBA65
:101B8000480000584C000058502A0020000C005813
:101B90000004004800080048000C004800280040ED
:101BA000001000589000005800040058AC27002096
:101BB0000038014020604FF4E13060600020A060F8
:101BC000E06020610C2060610020A06170477047D8
:101BD00007490020087700220648027000F00CB880
:101BE00003490A7F41F82200087F401C08777047AC
:101BF000742C0020242D002080B503F078FA03F027
:101C000077FA03F076FA03F075FA03F074FA03F04A
:101C100073FA03F072FA03F071FA03F070FA03F04A
:101C20006FFA03F06EFA03F06DFA03F06CFA03F04A
:101C30006BFA03F06AFA03F069FA03F068FABDE898
:101C4000014003F0CBBA18B50C46C7B011460022CC
:101C50008DF800208DF81C008DF81D4022460DF1F6
:101C60001E0003F05FFF00F03FF83F200C21ADF8AD
:101C70000400ADF8061007A8012103900691A41CEA
:101C8000049400F041F800284CBFFF209DF80000AC
:101C900048B010BD00B5C7B000F01FF80F2000F02D
:101CA00028F800284CBFFF209DF8000047B000BD79
:101CB00000B5C7B00021ADF81C008DF80010182247
:101CC00001A803F035FF182000F013F800284CBFDE
:101CD000FF209DF8000047B000BD00228DF80020D5
:101CE0008DF81C008DF81D101822002101A803F0AA
:101CF0001FBFADF8060007A9022004903F22012073
:101D000003910690ADF80420CDF814D0002101A86D
:101D1000FFF72BBC0EB4C0B5024603A8002101900A
:101D2000009101AB0121044878440C3003F00AFF14
:101D300006BC5DF810FB00BF7B79000070B505465E
:101D4000564E2878564C072872D8DFE800F0040A6F
:101D50002A303764716BBDE870400FF25810FFF7FE
:101D6000D9BF0FF28C104F4CFFF7D4FF6868427850
:101D700001780FF2A810FFF7CDFF686841780129BC
:101D800004D101222021204601F076FC69684878C0
:101D900000284DD12046BDE870400022202101F0EE
:101DA0006BBC0FF29810FFF7B5FF012004E00FF2B3
:101DB000BC10FFF7AFFF0020307070BD0FF2DC10D9
:101DC000FFF7A8FF012070704FF480736288A1882C
:101DD000A2F14400062808D22078521C002811BF26
:101DE000491C19460123237001E0442219466280F0
:101DF000A180A28861880FF2F010FFF78BFF2A48BC
:101E00000921017061884170090A8170A188C1703F
:101E1000090A017170BD0FF2F010FFF77BFF00207F
:101E2000707070BD0FF22C20FFF774FF002020703F
:101E300070BD704780B502208DF800006946032010
:101E400003F014FB0FF2150200210820FFF7A1FC9C
:101E5000124800210170817001BD000010B50F49CA
:101E60000878012814D188780F4C20B9012000226D
:101E70002270607001E00020208088700FF2142032
:101E8000FFF748FF2146BDE81040012003F0EEBAFD
:101E9000BDE810400FF23C20FFF73CBF082D0020AA
:101EA00014260020000400482426002000210820D9
:101EB000FFF77CBC4143495F474154545F41545450
:101EC0005249425554455F4D4F4449464945445F48
:101ED00056534556545F434F4445204D795F4C65FA
:101EE000645F4368617220526561640A000000000B
:101EF0000D0A0D2A2A20435553544F4D5F53544D1C
:101F00005F4C45445F435F57524954455F4E4F5FB6
:101F1000524553505F455654200A00000D0A0D2AC1
:101F20002A20577269746520446174613A203078C0
:101F3000253032582025303258200A000D0A0D2A4B
:101F40002A20435553544F4D5F53544D5F425554CF
:101F5000544F4E5F435F4E4F544946595F454E4183
:101F6000424C45445F455654200A00000D0A0D2A94
:101F70002A20435553544F4D5F53544D5F4255549F
:101F8000544F4E5F435F4E4F544946595F44495347
:101F900041424C45445F455654200A004143495F45
:101FA000474154545F4154545249425554455F4D42
:101FB0004F4449464945445F56534556545F434F45
:101FC0004445204D795F4852535F4D656173204E03
:101FD0004F54494649434154494F4E5F454E414253
:101FE0004C45440A0000000068725F76616C7565BC
:101FF000203A2025642C2068725F656E65726779CF
:10200000203A2025640A00004143495F4741545467
:102010005F4154545249425554455F4D4F444946DF
:102020004945445F56534556545F434F4445204D00
:10203000795F4852535F4D656173204E4F54494656
:1020400049434154494F4E5F44495341424C4544F2
:102050000A0000004143495F474154545F575249C9
:1020600054455F5045524D49545F5245515F565358
:102070004556545F434F4445204D795F4852535F66
:102080004354524C5F506F696E7420577269746587
:102090000A0000002D2D20435553544F4D20415030
:1020A000504C49434154494F4E2053455256455296
:1020B00020203A20494E464F524D20434C49454E30
:1020C0005420425554544F4E2031205055534845CA
:1020D00044200A002D2D20435553544F4D2041508C
:1020E000504C49434154494F4E203A2043414E27DA
:1020F0005420494E464F524D20434C49454E5420A2
:102100002D20204E4F54494649434154494F4E20BB
:1021100044495341424C45440A000000014648B13D
:10212000B0FA80F18840C91CC1F58461090501EB52
:10213000D021400570477047B0B581EA030C0CF020
:10214000004C40F2FF7515EA11541DBF15EA1357F4
:10215000AC42AF4239E0E41923EA455343F480131B
:10216000C90241F0004141EA505EC7021100A7FBDD
:10217000020200284FF00000EEFB01204FF00001AA
:10218000E3FB072118BF42F001024018002149413A
:10219000E3FB0E01A4F580640F0302D2520040411C
:1021A000494154F101046CDD470872F1004250F1DD
:1021B000000051EB0451A1F580115CBF41EA0C0114
:1021C000B0BD4CEA05510020B0BD05EA1357AC4242
:1021D00014BFAF4241E050EA410E1CBF52EA430E29
:1021E00002E061460020B0BD24423C441BD15FEABE
:1021F000070EF6D0090302BF01460020AEF1140E0F
:10220000B1FA81F7AEEB070401FA07FE0C37C7F10C
:10221000200100FA07F7C8404EEA000E23EA4553B2
:1022200043F48013A2E733F00043B3FA83F704BF0B
:10223000B2FA82FE77440B3FE41BB7F1200E2FBFAA
:1022400002FA0EF3BB40C7F1200E22FA0EFE38BF91
:1022500043EA0E03BA40641C82E750EA410E14BF01
:1022600052EA430E6FF000014FF4001717EB430FD3
:102270008ABF194617EB410FB5E74CEA055100201C
:10228000B0BDD4F10104B4F120070FDAC4F1200786
:10229000520828BF42F0010210FA07F501FA07F7C9
:1022A000E1BF2A43E0403843E1400FE0352C98DCA1
:1022B000C7F1200452EA400220FA07F218BF42F0A8
:1022C000010231FA07F0A1400A43002172F10042F5
:1022D00050F1000051EB0C01B0BD00B587B000F02B
:1022E0007CF900F064F9812000F022F900F02DF96A
:1022F00000284CBFFF209DF8000007B000BD2DE96D
:10230000F84DC7B09446DDF840E1519A559D569E70
:10231000DDF84CA1ADF81D108DF81C004FF0000B3E
:10232000ADF81FC08DF821308DF822E000F024F8C0
:1023300000F017F824F8095F668000F038F93F20B4
:10234000832100F025F9574406910D37049700F0DA
:10235000FFF800284CBFFF209DF8000048B0BDE802
:10236000F08D88F800A007AC5499E419524608F1A2
:102370000100544403F0D6BB8DF823201746529930
:102380008DF800B00DF1240809A8B84403F0CABBC9
:1023900000B5C7B000F00CF8852000F0DFF800F0C1
:1023A000D4F800284CBFFF209DF8000047B000BDC6
:1023B00000218DF81C008DF80010182201A803F0F0
:1023C000B7BB2DE9F841C7B04FF0000800F026F880
:1023D0000DF12300DDF844E14E9F4F9E509D529C2D
:1023E0008DF81F30C0F800E08DF800808DF8207067
:1023F0008DF821608DF822508DF8274000F0D7F835
:102400008620ADF8060007A90C2000F09AF80028F5
:102410004CBFFF209DF8000000F0DCB88DF81C00D8
:1024200007A841708270704700B5C7B00022ADF8B0
:102430001C008DF800200DF11E001822016001A87B
:10244000002103F075FB8820ADF8060007A90620DF
:1024500000F077F800284CBFFF209DF8000047B03F
:1024600000BDF8B5C8B005460E4617461C4600F03C
:1024700023F808A8467087708DF8205000F083F884
:102480008A21ADF80A103F20032100F06FF80028E0
:1024900048BFFF200ED49DF8000058B94F994E98C0
:1024A000BDF801202280BDF803200280BDF80500A0
:1024B0000880002049B0F0BD07220021684603F0E3
:1024C00037BB18B5C7B000F097F800F070F83F20A0
:1024D0008E2100F086F800F03BF800284CBFFF206A
:1024E0009DF8000048B010BD00B587B000F075F849
:1024F00000F05DF8922000F01BF800F026F80028AC
:102500004CBFFF209DF8000007B000BD00B587B0AC
:1025100000F063F800F04BF8942000F009F800F0A8
:1025200014F800284CBFFF209DF8000007B000BD44
:10253000ADF806003F2201207047ADF8060007A95C
:10254000032004903F22012003910690ADF804205F
:10255000CDF814D0002101A8FFF707B8ADF80600A8
:1025600007A901203F22039104907047ADF80800AD
:10257000059108A8072104900791CDF818D00021F3
:1025800002A8FEF7F2BF1822002102A803F0D0BA79
:10259000ADF80400ADF8061007A8012103907047BC
:1025A00000228DF80020ADF81C008DF81E101822B6
:1025B000002101A803F0BCBA00B5C7B0FFF7F0FFD7
:1025C000A520FFF7BAFF00284CBFFF209DF80000B0
:1025D00047B000BD48B0BDE8F08100208DF8000094
:1025E0007047ADF80400ADF8061007A8012103906C
:1025F0000691641C04947047044600208DF8000086
:102600008DF81C4022460DF11D0003F08BBA00B579
:1026100087B000F014F8012003220690ADF80420E2
:10262000ADF8062000F03DF800284CBFFF209DF8D3
:10263000000007B000BD182201A803F079BA0020FD
:102640008DF800001822002101A803F071BA00B52E
:10265000C7B000F00EF8FFF7EEFF312000F013F8DE
:1026600000F01FF800284CBFFF209DF8000047B085
:1026700000BD00238DF81C008DF8003007A84170C4
:10268000827000217047ADF8060007A9032004906E
:102690000822012003910690ADF8042070470390B2
:1026A0000691CDF814D0002101A8FEF75EBF704757
:1026B00001460648064AC3798B4218BF904218BFAC
:1026C0000838F8D18B4218BF00207047F873FF1FFD
:1026D0000070FF1F00B587B000208DF8000000F0EB
:1026E000E0F840F20110ADF806003F22012006900C
:1026F00000F013F900284CBFFF209DF8000007B040
:1027000000BD2DE9F84107460128C7B088461546A7
:102710001E4608BF022003D002280CBF1020002054
:102720000DF11D010C1800F036F8012F8DF81C700A
:1027300002D0022F18D019E002273A4641460DF187
:102740001D0003F0EFF92570667000F0AAF83F2035
:102750004FF4817100F016F8FF1C049700F0DFF8C9
:10276000002805D5FF2009E01027E6E7972005E0BF
:102770009DF8000010B94E9800F067F8FFE748B0E8
:10278000BDE8F081ADF80400ADF8061007A80321FC
:1027900003900691704703220021684603F0C8B9F0
:1027A0002DE9F64F0C460546012CC7B09B4608BFE5
:1027B000022003D0022C0CBF102000200DF11F01BD
:1027C0000E18FFF7E8FF012CADF81C508DF81E40E5
:1027D00002D0022C2CD02DE00227569C559DDDF80E
:1027E0005091DDF84CA1DDF8488148993A4600F057
:1027F00054F8A6F800B086F8028086F803A086F8A0
:1028000004907571B47100F04CF83F20ADF80400ED
:102810004FF4827107A8ADF80610039003210A3720
:102820000497069100F07BF8002805D5FF2009E009
:102830001027D2E7972005E09DF8000010B95798BF
:1028400000F003F849B0BDE8F08FBDF80110018039
:102850000020704730B5C7B01C464A9B00F049F8CD
:1028600000258DF800508DF82140224619460DF1C3
:10287000220003F057F900F014F83F204FF4837161
:1028800000F042F8A41D049400F049F800284CBF61
:10289000FF209DF8000047B030BD0DF11F0003F090
:1028A00041B91822002101A803F042B978B5C7B098
:1028B0004C9C4D9D00F01DF800268DF821308DF8C0
:1028C00000608DF822402246294600F019F8FFF7F3
:1028D000E8FF3F204FF4937100F016F8E41D0494D4
:1028E00000F01DF800284CBFFF209DF8000048B004
:1028F00070BDADF81C00ADF81E108DF8202070479B
:102900000DF1230003F00EB9ADF80400ADF8061088
:1029100007A80121039006917047ADF80420CDF877
:1029200014D0002101A8FEF720BE30B5C7B00025A5
:10293000ADF81C0007A84A9C41808280ADF8223087
:1029400004818DF8005000F01EF80F21029140F232
:1029500081100A21ADF80600049107A801213F2249
:102960000390069100F007F800284CBFFF209DF867
:10297000000047B030BDADF80420CDF814D00021E0
:1029800001A8FEF7F2BD1822002101A803F0D0B87B
:1029900070B504466078FF2802BFB4F8031001F454
:1029A0007F41B1F5406F12D100260D4D00E0761C3D
:1029B000297FF0B288420AD2F1B255F821102046A0
:1029C00088470100F3D002D0022805D006E0204657
:1029D000BDE87040FDF726BC002070BD012070BD31
:1029E000742C00200249016002490161704700BF58
:1029F000B72A0008DD2A0008006040607047EFF346
:102A0000108172B6026882420CBF012000201CE0D7
:102A1000EFF3108272B603680B60486001600868CB
:102A2000416023E0EFF3108272B6086043684B60A8
:102A300041604868016019E0EFF3108172B64268A6
:102A40000368136002684368536081F3108870471D
:102A500010B5EFF3108472B602680A600068FFE7F1
:102A6000FFF7EAFF84F3108810BD0B6082F3108833
:102A70007047000004F0A5B86C486D49016001F191
:102A80002002426001F13002826001F140020262E4
:102A900001F14802426201F15002C26001F15802A4
:102AA000026101F17402426101F1780282618431B4
:102AB000C16104F0A4B838B504465E4D2846FFF75E
:102AC0009BFF5A484068A1680160E168C160856069
:102AD0005949416004F0AFF858482AE080B553489E
:102AE0004268136801211972406804F0AAF80020B6
:102AF00002BD38B5514C4F4D04E000F041F800984C
:102B0000216888472846FFF77AFF0028F5D031BDB5
:102B10004A484168084738B50446494D2846FFF7FA
:102B20006BFF4248C068A1680160456004F08EF800
:102B300044482168016061684160002032BD80B571
:102B40003A48C268136810211972C06804F084F80A
:102B5000002002BD35483B4AC168C1681368086857
:102B6000184738B5374C364D04E000F009F80098A6
:102B7000616888472846FFF742FF0028F5D031BD3D
:102B800069462846FFF764BF38B504462E4D2846EF
:102B9000FFF732FF2D48FFF72FFF24480069A16897
:102BA0008160E168C1600561216801606168416020
:102BB000216941616169816131BD80B50146234868
:102BC000FFF730FFBDE802400FF2050004F04DB8FA
:102BD00038B5164C1D4D06E0FFF7D2FF009920696D
:102BE0000069FFF71FFF2846FFF709FF0028F3D011
:102BF00031BD10B5164C2046FFF7FEFE0B4841696B
:102C00000C60BDE8104004F044B81CB5104C06E060
:102C100069462046FFF71CFF009800F01BF820468D
:102C2000FFF7EDFE0028F3D013BD000000000320E5
:102C3000B8090320580A03209C080320F02C002028
:102C4000600A0320F82C0020480A0320E82C00200A
:102C5000500A03207047704710B5B849B84C4FF47C
:102C600000400860606840010ED56068C0000BD469
:102C700000F006FF00F004FF206840F48030206080
:102C8000216821F48031216000F074F80020FFF702
:102C90000FFD40B18079AB49E160E16821F47C51DE
:102CA00041EA0021E16010BD10B5A748A74C88B0EB
:102CB000016841F050010160CA22A548C261532158
:102CC000C161FF220168C908C9000160C261A14851
:102CD000016841F400410160FEF7D8FC9E4801689C
:102CE000C908C90041F00401016000209B4904F0BB
:102CF0005EF904F082FA01210120FEF7CCFC0020ED
:102D000004F0C3FB012004F0C0FB022004F0BDFB73
:102D1000012004F0E2FB0121002004F0E8FB012186
:102D2000012004F0E4FB0121022004F0E0FBFFF7A6
:102D3000A3FE8B4A00214020FEF72BFD04F23C50FD
:102D40000FF275010090019169460FF2710000F0D9
:102D5000C1FA04F25470029004F5C96140F23C508B
:102D600005900391049402A8FFF70EFFFFF782FE7F
:102D700008B010BD7B4881B0016841F4801101604A
:102D80003F21006800F48010009000987648416070
:102D90004161016841F47C110160026942F47C12D6
:102DA0000261016841F03F010160026942F03F02A7
:102DB000026101B0704700007047000038B504465A
:102DC00088B0616801F10B054FF412422888801A1F
:102DD00010D0401E63D0401E75D0801E00F0808051
:102DE000401E00F08280401E00F08280401E00F0F5
:102DF000868088E06846FEF76CFD9DF802309DF8FD
:102E000001209DF800100FF2A810FEF783FF9DF837
:102E100004100FF2C010FEF77DFF9DF80C309DF8F6
:102E20000B209DF80A100FF2C810FEF773FF0FF287
:102E3000D810FEF76FFF04A8102100F055FB606862
:102E40000D300078F8B90FF2E030FEF763FF04F0C0
:102E5000E3F90D208DF810007F2144488DF8121001
:102E600004680FF2E030240C2146FEF753FFADF862
:102E70001C4004A8FEF726FDFDF760F900210120A3
:102E8000FEF709FC3FE0012806D10FF2DC30FEF727
:102E900041FF0020207036E00FF2004031E00FF2D9
:102EA0008810FEF737FF606800F10D040FF2D420A0
:102EB0002178FEF72FFF2078002814BF0FF2303062
:102EC0000FF2F0201DE00FF28410FEF723FFD5F87B
:102ED0000620D5F802100FF2C410FEF71BFF12E017
:102EE000D5F802100FF2DC1006E00FF2142008E013
:102EF000D5F802100FF22C20FEF70CFF03E00FF2C2
:102F00006020FEF707FF09B030BD38B5044604F075
:102F100041FB14F1010F054609D000F096FA241880
:102F200005E01348016821F00401016030BF04F09E
:102F300031FB401BA042F4D331BD000010400058CB
:102F400090000058FECAFECA900800583C000320BA
:102F5000082800400800005880040058502A00202B
:102F60001733000850000058040C0058002004E0FB
:102F700010ED00E001E0704700BF4FF0FF30FEF7BA
:102F8000A1BB00214020FEF711BC0220FEF734BC9B
:102F90000220FEF739BC012805D0022805D01028F0
:102FA00005D1FDF7E7BBFDF7E7BBFDF7F9BB7047C0
:102FB000576972656C657373204669726D776172CB
:102FC000652076657273696F6E2025642E25642EE8
:102FD00025640A00576972656C65737320466972CF
:102FE0006D77617265206275696C642025640A00E2
:102FF0004655532076657273696F6E2025642E25C1
:10300000642E25640A0000003E3E3D3D20534843A7
:10301000495F5355425F4556545F434F44455F52A5
:10302000454144590A0D00003E3E3D3D2053484372
:10303000495F5355425F4556545F4552524F525F68
:103040004E4F544946200A0D000000003E3E3D3DD3
:1030500020534843495F5355425F4556545F424CA5
:10306000455F4E564D5F52414D5F5550444154456A
:10307000202D2D20424C45204E564D2052414D20B2
:10308000484153204245454E205550444154454403
:103090002042592043505532200A00002020202091
:1030A000202D2053746172744164647265737320BF
:1030B0003D20256C78202C2053697A65203D202501
:1030C0006C640A003D3D3E3E20534843495F5355E2
:1030D000425F4556545F4E564D5F53544152545FC4
:1030E0005752495445203A204E756D6265724F66BD
:1030F000576F726473203D20256C640A0000000045
:103100003E3E3D3D20534843495F5355425F45563F
:10311000545F4E564D5F454E445F57524954450AE1
:103120000D0000003D3D3E3E534843495F5355422C
:103130005F4556545F4E564D5F53544152545F4560
:1031400052415345203A204E756D6265724F665369
:103150006563746F7273203D20256C640A00000063
:103160003E3E3D3D20534843495F5355425F4556DF
:10317000545F4E564D5F454E445F45524153450A9C
:103180000D0000003E3E3D3D20534843495F5355EE
:10319000425F4556545F4552524F525F4E4F54491D
:1031A00046205749544820524541534F4E202578D8
:1031B000200A0D003E3E3D3D20534843495F535594
:1031C000425F4556545F4552524F525F4E4F5449ED
:1031D00046205749544820524541534F4E202D20F8
:1031E0004552525F424C455F494E4954200A000007
:1031F0003E3E3D3D20534843495F5355425F45564F
:10320000545F4552524F525F4E4F544946205749E2
:10321000544820524541534F4E202D20424C4520CA
:103220004552524F52200A003E3E3D3D20574952E2
:10323000454C4553535F46575F52554E4E494E4796
:10324000200A00003E3E3D3D204442474D43555F2D
:103250004765745265766973696F6E49443D2025F0
:103260006C78200A0D0000003E3E3D3D205348434F
:10327000495F5355425F4556545F434F44455F5243
:1032800045414459202D204655535F46575F5255BE
:103290004E4E494E47200A0D000000003E3E3D3D87
:1032A00020534843495F5355425F4556545F434F4F
:1032B00044455F5245414459202D20554E455850B4
:1032C00045435445442043415345200A0D00000026
:1032D000704700007FB50C464D4D61684D4EE8616A
:1032E0002962284604F05CF92468746006F108003D
:1032F000FFF782FB012000F068F801203070296898
:1033000041B10FF2E9000FF2ED0200900192029438
:10331000684688477FBD1FB53E4C04F10800FFF7A3
:103320006EFB00BB2178F1B1694604F10800FFF79C
:103330008FFB3748C16949B10098029001228DF88E
:10334000042001A888479DF8040000E001202070B7
:10335000207818B10098FFF730FC04E0009904F1E0
:103360000800FFF755FB04F10800FFF748FB28B9F8
:10337000207818B104F10800FFF703FE1FBD2DE906
:10338000F04105460E4690461C46002000F01DF810
:10339000204F7868A0F80950C672324641460C307A
:1033A000FEF72EF81A4A136900210020984748F2C8
:1033B000E800FFF7EDFD79688A78D21C04F1080077
:1033C000FEF71EF8BDE8F04101201CB51049124C73
:1033D000096A20B901B188470020207013BD01207F
:1033E000207011B1BDE81C40084713BD0020FFF755
:1033F000CCBD000010B50146064C04F10800FFF7F3
:1034000011FB04F10800BDE81040FFF7BABD000051
:10341000502C0020B42C0020252D0020134810B57E
:10342000016841F480710160032000F054F900202C
:1034300004F0C0F80024002814BF012404F0E9F8C7
:10344000204610BD0A4880687047094800787047D8
:10345000084805E00748016841F002010160704733
:10346000016841F001010160704700000040005810
:10347000F0250020042004E0F8B504460025ACB196
:1034800004F13406307910B9204604F0D1F80F4F1A
:10349000384600F021F8386840F0011038602046C6
:1034A00000F007F835600120307100E00125284662
:1034B000F2BD10B50021064A064B00EB8104491C01
:1034C00006296360E261F8D310BD0000000C0058CB
:1034D000AF26000837210008002101604FF03F119E
:1034E00041603F2181607047002204F0C7B90000AD
:1034F0002DE9F84F4FF00009674A684B4FF00F086D
:1035000005460E4633E0664FBD4214BF0727042729
:103510008F4027434CF82E70C1431C6801EA040C0D
:103520007468E40248BF40EA0C0CC3F800C05C6851
:1035300001EA040C7468A40248BF40EA0C0CC3F80A
:1035400004C0146801EA040C7468E40348BF40EA4C
:103550000C0CC2F800C0546801EA040C71688903BD
:1035600048BF40EA0C0CC2F804C009F101093168F7
:1035700031FA09F000F07E80012404FA09F414EA1B
:103580000100F2D04FEA490C032101FA0CF16FEA75
:10359000010E716801F00307012F1CBF01F0030148
:1035A000022911D1A968F7680EEA010107FA0CF7A0
:1035B0003943A960696821EA04047168C1F3001104
:1035C00001FA09F10C436C604FEA8901347904F087
:1035D0000304032C1FD0EC68B7680EEA040407FA52
:1035E0000CF73C43EC60347904F00304022C12D154
:1035F0004FEAD90705EB870401F01C07D4F820A097
:1036000008FA07FB2AEA0B0AD6F810B00BFA07F7FC
:1036100047EA0A0727622C680EEA0407347904F0A7
:10362000030404FA0CF43C432C60746814F4403F27
:103630009BD0DFF870C04FEA990E5CF82E7001F055
:103640000C0108FA01F427EA0404B5F1904F08BF11
:1036500000270ED0144FBD4208BF012709D0134FD9
:10366000BD4208BF022704D0114FBD427FF44BAFCB
:1036700003274DE7BDE8F18F81B0002A14BF8161B7
:10368000816201B070470B4A136803421CBF10608F
:10369000FFF781BC70470000800800580008005800
:1036A00000100048080001400004004800080048DD
:1036B000000C00480C0800580901020081B002D437
:1036C0003C48815405E03C4802F00F02104400F8E9
:1036D000041C01B07047394A13684FF6FF0100021D
:1036E0000B4000F4E0601843354908431060704710
:1036F00038B5324B1C68C4F30223C3F10704052C10
:1037000028BF04241D1D072D34BF0023DB1E012507
:1037100005FA04F4641E2140994005FA03F35B1E88
:103720001A401143BDE83440C6E70000010007D449
:10373000012200F01F01234B8A40400943F820205A
:10374000704701000BD4012200F01F011E4B8A407C
:10375000400943F82020BFF34F8FBFF36F8F7047AE
:1037600010B5401EB0F1807F01D3012010BD174C71
:1037700060600F214FF0FF30FFF79EFF0022A26034
:1037800007202060002010BD010007D4012200F0B6
:103790001F010F4B8A40400943F820207047010069
:1037A00007D4012200F01F010A4B8A40400943F868
:1037B0002020704700E400E018ED00E00CED00E090
:1037C0000000FA0500E100E080E100E010E000E028
:1037D00000E200E080E200E038B5040044D094F854
:1037E000210028B9002184F82010204603F0FBFFB7
:1037F00000F049F8FF2510B100F03FF834E02168EF
:10380000DFF8B0008A6802408A6021688A686368CD
:1038100020690343A06903431A438A602168E06872
:10382000086120680169A26841EA024101612068DB
:10383000C16821F08001C1602068C16C89088900DD
:10384000C1642168CA6CE369606903431A43CA64AE
:1038500020688168880609D400F020F830B120681B
:103860004562042100F01FF8012032BD2068456246
:10387000012184F82110002032BD20684562042116
:1038800084F821107047022084F82100CA202168A2
:103890004862532022685062204626E020460BE012
:1038A0002068C0F8248084F82110002084F82000CB
:1038B00070470000BFFF8FFF70B5044640F2E93645
:1038C0002068C16821F0A001C16003F063FE0546D5
:1038D0002068C168880606D403F05CFE401BB04235
:1038E000F6D3032070BD002070BD70B5044620687B
:1038F000C1684A0612D44FF0FF32C26040F2E93686
:1039000003F048FE05462068C168480606D403F067
:1039100041FE401BB042F6D3032070BD002070BDB5
:103920002DE9F84300F065F808BF022038D000F018
:1039300067F814D503F02EFE07462068C1684807D3
:103940000DD503F027FEC01B4845F6D300F039F82B
:1039500026E003F01FFEC01B484507D3F6E700F042
:103960002AF800F065F803F015FE07462068C168E4
:103970004A07EED5C0F81480206800F013F82A48F2
:10398000016841F4002101602848026842F40022E5
:1039900002602068816841F48041816000F01BF87A
:1039A000BDE8F2838168C908C90081602068816828
:1039B0000D43856070472068816821F480618160D3
:1039C000704720684662032184F82110002084F8A3
:1039D0002000032070472068816841F48061816085
:1039E00001212068466284F82110002084F820001C
:1039F00070470446884694F8200001281546704711
:103A0000012184F82010022084F82100CA202168B6
:103A10004862532022685062FF262068816848056A
:103A200040F2E9397047000080080058000800584B
:103A30002068C16801F0800161F49061C160704745
:103A400010B5040001D1012010BD607A20B9002119
:103A50002172204603F0AAFE0220607221680A68E3
:103A6000606822F0200202430A602068016841F089
:103A700004010160012060720020E06010BD0000C0
:103A80000248016841F480710160704700040058E9
:103A90004FF0B040006800F0F000B02888BFB020C0
:103AA00070472DE9F041040054D0207881064FF092
:103AB000B04538D5A868E96810F00C0001F00301A2
:103AC00003D00C2808BF012946D12868800702D5F9
:103AD000E06900283ED0FFF7DBFF616A884207D229
:103AE000084600F0D3FB002834D100F075FA0FE04F
:103AF000286820F0F000014329606968206A21F4F9
:103B00007F4141EA00216960606A00F0BFFB08BBA9
:103B100000F095FBDFF810180860DFF81008006867
:103B200003F048FDB0B92078C1070DD5A868E96851
:103B300000F00C00082801F0030103D00C2808BF96
:103B400003292DD12868800340F13981606800285D
:103B500040F03581012038E2E06980B1296841F008
:103B6000010100F047FA06462868800700F1248129
:103B700003F010FD801B0328F6D3032025E22868FC
:103B800040084000286003F005FD0646286800F064
:103B90001FFAC8D003F0FEFC801B0328F6D3ECE725
:103BA0006068B0F5803F04D1296841F48031296014
:103BB00003E02A6822F480322A60606860B103F072
:103BC000E9FC06462868800300F1F98003F0E2FC76
:103BD000801B6528F6D3D0E703F0DCFC0646286896
:103BE000400C10F0010000F0EA8003F0D3FC801BD1
:103BF0006528F4D3C1E703F0CDFCC01B0328C0F057
:103C00001281BAE7E06878B1296841F4807100F068
:103C1000F1F906462868400500F1188103F0BAFC66
:103C2000801B0328F6D3A8E7286820F4807028605A
:103C300003F0B0FC06462868800A10F0010000F08E
:103C4000DC8003F0A7FC801B0328F4D395E703F086
:103C5000A1FCC01B0328C0F00B818EE740F00100DF
:103C600000F0CEF907467068800700F11C8103F070
:103C700091FCC01B0328F6D37FE7706820F0040096
:103C800000F0BEF907467068C00810F0010000F0AF
:103C9000198103F07FFCC01B0428F4D36DE70528CD
:103CA000306806D140F004003060316841F0010115
:103CB00005E0400840003060316821F004013160C7
:103CC000A06841F2893768B103F064FC804630682F
:103CD000800700F10C8103F05DFCA0EB0800B84206
:103CE000F5D34AE703F056FC8046306800F070F9DF
:103CF00000F0FD8003F04EFCA0EB0800B842F4D3C6
:103D00003BE703F047FCC01B0328C0F0FE8034E70C
:103D1000B06840084000B06003F03CFC0746B06863
:103D200000F056F900F0F58003F034FCC01B0328C6
:103D3000F5D322E703F02EFC801B0328C0F01F817F
:103D40001BE703F027FC001B0328C0F0398114E7B0
:103D5000286881010CD4296841F080712960E868E5
:103D600040F08050E86003F015FC044628688101AB
:103D700000F12A8103F00EFC001B0328F6D3FCE6B9
:103D80000C2931D0286820F080702860E968DFF8BD
:103D9000A00589088900E960E9680140E96003F04D
:103DA000F9FB04462868810140F10E8103F0F2FB23
:103DB000001B0328F6D3E0E600F00EF9B3E6207806
:103DC00081071AD5A868E96800F00C00042801F002
:103DD000030104D00C2808BF02297FF413AF286820
:103DE000400503D5E06800283FF4B4AE6968206957
:103DF00021F0FE4141EA006169602168DFF8346525
:103E000011F0180F38D0606900283FF436AFC906AA
:103E100070687FF523AF800709D4706840F0010017
:103E200000F0EEF80746706880077FF5E4AE706832
:103E300040F0040000F0E4F80746706800070DD475
:103E400003F0A8FBC01B0428F7D396E66868216935
:103E500020F0FE4040EA01606860CEE77068A1692A
:103E600020F4706040EA0120706000F0C6F8074658
:103E700000F0ADF87FF4EBAE2078410737D5DFF8DE
:103E8000B8743868C10529D4FFF7FAFD03F082FB46
:103E900080463868C10521D403F07CFBA0EB080004
:103EA0000328F6D369E6706820F00400706070683B
:103EB000C00810F00100DFD003F06CFBC01B042829
:103EC000F5D35AE600F099F8074600F080F8D3D011
:103ED00003F060FBC01B0328F7D34EE6A06801285F
:103EE0007FF4DDAE306840F001003060E8E6217814
:103EF00048060ED5A06A00283FF40AAFB16841F029
:103F00000101B16003F046FB0746B06880077FF50A
:103F1000F8AEE06A002857D0A968EA68022801F0E4
:103F20000C017FF42DAF236B02F00300984202BF17
:103F300002F07000636B984214D1A36BC2F30620A9
:103F4000984202BF02F47810E36B98420AD1236CC6
:103F500002F06060984202BF02F06042606C8242F0
:103F60003FF4F6AE0C293FF4F5AD286841013FF56A
:103F7000F1AD296821F0807100F03CF80646286810
:103F800081013FF5D7AEE968DFF8B003A26B0140CD
:103F9000206B0143606B0143E06B41EA0221014366
:103FA000206C0143606C0143E960286840F0807038
:103FB0002860E96841F08051E96003F0EBFA0446BB
:103FC000286881017FF5BDAE0020BDE8F0817068F2
:103FD000400810F0010070472968606A21F0F00184
:103FE000014329606868216A20F47F4040EA01208B
:103FF00068607047296003F0CDBA706840084000DF
:10400000706003F0C7BA2DE9F8430400884644D035
:10401000DFF82C6300F0CBF847D200F0CDF807466C
:1040200000F0C5F841D003F0B5FAC01B0228F7D95B
:104030000320BAE003F0AEFA401B022843D9F7E7A9
:1040400003F0A8FAA0EB090002284CD9F0E703F02E
:10405000A1FAA0EB0900022854D9E9E703F09AFA83
:10406000401B02285DD9E3E703F094FA401B0228C5
:1040700067D9DDE703F08EFA401B484577D3D7E7D1
:10408000032802D13968890103E00028396802D188
:10409000890762D401E049055FD4012085E003F07F
:1040A00079FAC01B022872D9C2E7207881074FF045
:1040B000B0470BD5B968A06821F0F0010143B960A1
:1040C00003F068FA0546B868C003B3D52078DFF876
:1040D000545281060AD52968606921F0F001014334
:1040E000FFF788FF814628688003A9D5207841061C
:1040F0000BD52968A0690909090141EA1011FFF7E8
:1041000079FF81462868C003A1D5207841070BD5E7
:10411000B968E06821F4E0610143B96003F03AFA5C
:104120000546B868800399D5207801070CD5B86892
:10413000216920F4605040EAC100B86003F02AFA17
:104140000546B86840038FD52078C10717D5606849
:10415000022895D1396889039FD5B968890840EA52
:104160008100B86041F2893903F014FA0546B86855
:10417000616800F00C00B0EB810F7FF47BAF30681A
:1041800000F00700804505D200F016F8074600F061
:104190000EF884D100F053F8DFF88C110860FFF7B7
:1041A00051F9BDE8F24303F005BABDE8F283306887
:1041B00000F00700404570473168C90848EAC1016E
:1041C000316003F0E7B938B54FF0B0445E4DA168F7
:1041D00011F00C0106D1FFF75BFCC0F3031055F89A
:1041E000200032BD0429594A05D00829584804D175
:1041F0002168C90222D5104632BDE16801F00301F1
:10420000022904D0032904D12168C90207D5104628
:1042100005E0FFF73DFCC0F3031055F82000E1680E
:10422000E268E368C1F306214843C2F30211491C66
:104230005B0FB0FBF1F05B1CB0FBF3F032BD80B55F
:10424000FFF7C1FF3F49FFE7424A0968C1F3031185
:1042500052F82110B0FBF1F002BD80B5FFF7EFFF7F
:1042600000F010F8C1F3022106E080B5FFF7E7FF88
:1042700000F008F8C1F3C22112F8211001F01F016B
:10428000C84002BD2F49344A0968704770B52E49AD
:10429000B1282EBFCC6AC0F3031051F8204021484A
:1042A000056803F005FB2B492C4A05F00F0551F872
:1042B0002510B4FBF1F10024B1FBF2F1B0F5007F61
:1042C0000FF2B802204609D10FF2940353F82050A0
:1042D0008D4214D2401C0328F8D912E00FF290034B
:1042E00053F820508D420AD2401C0328F8D308E02E
:1042F00003F050F9801B03280CD3032070BD52F843
:1043000020400F4D2868C00844EAC000286003F030
:1043100041F90646296801F00701A142E8D10020D1
:1043200070BD00000801005820260020F82500205C
:10433000FFFFFEEE90000058000400588C80C11171
:104340000040005808000058DC8E00080024F400EB
:104350000048E8019C8E00085C96000840420F006F
:1043600012000000240000003600000040000000A1
:10437000060000000C00000010000000000000001B
:10438000010000000200000003000000DFF820131D
:104390000A68030903F47F2300019A4300F47F2095
:1043A00000F082B9DFF808231368010C23EA014307
:1043B00043EA0043136070472DE9F84305460024A3
:1043C0002878DFF8EC624106A0464FF0B0472DD5C3
:1043D000286B70B1B0F5800F06D0B0F5000F18BF94
:1043E000B0F5400F17D01FE0F86840F48030F86057
:1043F000EDE0386820F08060386003F0CBF881464B
:104400003868000140F1D08003F0C4F8A0EB090047
:104410000228F5D90324D7E003F0BCF8A0EB09008B
:10442000022840F2C980F5E70124A046286801056A
:1044300031D5B06800F44078286C80452AD0FFF769
:104440001FFBB8F1000FB16805D1286C21F4407151
:104450000143B1601EE0B06840F48030B06021F4E8
:104460004071B06820F48030B060286C0143B160C6
:10447000B068C0070ED503F08DF8804641F2893947
:10448000B068800706D403F085F8A0EB0800484523
:10449000F6D30324A0462878C10705D53168A8695A
:1044A000890840EA810131602878810705D53168A3
:1044B000E86921F44061014331602878C10644BFB6
:1044C000A86AFFF76FFF2878810644BFE86AFFF704
:1044D00069FF2878410744BF286AFFF757FF28780B
:1044E000010744BF686AFFF751FF2868C1051BD563
:1044F0003168686B21F0406101433160686BB0F155
:10450000006F00F0BDF8686BB0F1806F75D100F0FE
:10451000BDF804463868000160D503F03BF8001B85
:104520000228F7D94FF0030867E003F033F8001BC7
:1045300002285BD9F6E7316821F04041316020F074
:104540008050326822F0406210433060A86BB0F1B6
:10455000C05F00F095F8286841056DD53168E86BBB
:1045600021F0405101433160E86BB0F1005F03D1AD
:10457000F96841F48031F960E86BB0F1805F5BD19C
:1045800000F084F804463868000146D503F002F8CC
:10459000001B0228F7D94FF003084DE002F0FAFFA4
:1045A000001B022841D9F6E700F061F8A86821F461
:1045B000781100F071F88146386800017FF52CAF62
:1045C0003969686901433961002C7FF42EAF316885
:1045D000286B21F440010143316027E700F047F8E0
:1045E000E86821F0606100F057F80446386800017F
:1045F0009BD5396968690143396128688105AAD565
:10460000A86BB0F1804F1CBFB0F1004F002892D1D1
:10461000316821F04041084397E700F028F8286905
:1046200021F0604100F038F8044638680001B5D543
:1046300039696869014339612868C10405D5F168A1
:10464000686C21F440410143F160286881040BD576
:10465000796AE86C21F0300101437962796AA86CCB
:10466000890840EA810179624046BDE8F2833869F1
:10467000696820F4FE4040EA0120386139697047DA
:1046800003D1F96841F08071F9607047396821F011
:104690008061396002F07EBF01433961386840F0C3
:1046A0008060386002F076BF1043086070470000F9
:1046B0008800005838B5040009D004F18005686806
:1046C00008B900F01EF800F021F8012801D10120FE
:1046D00032BDA06A08B100F02AF800F00AF821F013
:1046E0002A01FFE7816000F01BF8BDE8324000F0CE
:1046F0003EBB2068416821F4904141602068816898
:10470000704700212970204602F0AEBF2420686067
:1047100020680168490849000160204600F0BCB9E2
:104720002068016841F00101016020467047204681
:1047300000F0BABA70B5044604F180051346686803
:1047400020283DD169B318002BD02878012837D014
:1047500001222A7004F15406216533807380002001
:10476000E86021206860706AE8B1DFF82013C16258
:10477000DFF81C03716A0863716ADFF81803486385
:104780000020716A88632068216D00F12802706A38
:1047900003F0FFF838B11020E860002028702020D6
:1047A0006860012070BD21684020086200202870E8
:1047B00000F008F841F0800100F061FBF8D170BD15
:1047C000022070BD206800F1080151E8001F00F1CF
:1047D00008027047216851E8002F7047206800F1F7
:1047E000080151E8001F00F1080221F0400142E8F1
:1047F000001000287047F8B5044640F60F00266800
:10480000F1693268B368084004F15C050ED188068E
:1048100002D5900602D4D80040F181806969002950
:1048200000F029812046BDE8F4400847DFF8E006A3
:10483000034204BFDFF8DC763A4270D0CF0707D5D9
:10484000D70505D5012737622E6B46F001062E638A
:104850008E0708D5DE0706D5276802263E622E6B36
:1048600046F004062E634E0708D5DE0706D52768F6
:1048700004263E622E6B46F002062E630E070AD512
:10488000960601D4034206D0266808203062286BC1
:1048900040F008002863080509D5500107D52668AF
:1048A0004FF400603062286B40F020002863286BD2
:1048B000002833D0890607D5900601D4D80003D547
:1048C000696909B120468847286B21688A685106C2
:1048D00002D410F0280F1CD0204600F0EFFA00F0B0
:1048E000D1F811D5FFF77AFFFCD1286A60B10FF239
:1048F000B1618163286A03F0C5F800280ED0286AE8
:10490000816BBDE8F44008472046BDE8F24003F063
:10491000ABB9204603F0A8F900202863F1BD28694F
:1049200001286AD1CF0668D5D00666D5102030623E
:1049300000F0A8F82DD5296A0868406880B20028E0
:10494000ECD02A889042E9DA6880086801688A0613
:104950001BD4FFF73FFF22F4807200F08FF8F8D1EC
:10496000206800F07DFAFBD1FFF738FFFCD1202052
:10497000E86200202861FFF72DFF22F0100200F00E
:104980007DF8F8D1286A03F047F829886888091A61
:104990002DE028886988411A688800281CBF88B2E1
:1049A000002868D0226852E8003F23F4907342E860
:1049B00000300028F6D1206800F1080200F1080359
:1049C00052E8002FDFF8C402024043E8002000282C
:1049D000F1D12020E862002028616861226852E855
:1049E000003F23F0100342E800300028F6D12046B3
:1049F000BDE8F44089B203F038B9C80209D55802BD
:104A000007D54FF4801030622046BDE8F24000F038
:104A10006DBB080609D5100601D4180205D5A96991
:104A200049B32046BDE8F4400847480611D5500672
:104A30000FD5FFF7CFFE22F0400200F01FF8F8D1AB
:104A40002020A8620020A8612046BDE8F24003F0C3
:104A500036B9080206D5500004D52046BDE8F2401C
:104A600003F04AB9C80148BF002A04D52046BDE872
:104A7000F24003F042B9F1BD22F4F07241E80020A7
:104A80000028704720688168480670471D4F00085D
:104A90004F4F0008554F0008F8B50446DFF83805B9
:104AA0002168DFF838C50A68DFF834750240A0686D
:104AB00002432069024360690243E06902430A60DD
:104AC00000254A68E06822F4405202434A60A36924
:104AD000DFF8102591421CBF206A03438E68DFF87F
:104AE0000805064033438B600FF2A416CB6A606A58
:104AF0001B0940EA0313CB626145DFF8F0044FF471
:104B0000004339D13F6807F00307032F4DD8DFE892
:104B100007F0024643494FF0010CE169B1F5004F3F
:104B20004FF6F07740F08080BCF1010F09D0BCF166
:104B3000020F0AD0BCF1040F71D0BCF1080F71D084
:104B400099E0FFF792FB002815D0626A616836F899
:104B50001230B0FBF3F04A0802EB4002B2FBF1F076
:104B600080B2A0F11001B942EAD20740C0F342007E
:104B700007432068C7607FE0914216D13F6817F471
:104B8000406723D0B7F5806F09D0B7F5006F03D029
:104B9000B7F5406F06D008E04FF0020C07E04FF089
:104BA000040C04E04FF0080C01E04FF0100C9142AF
:104BB000B3D1BCF1000F09D0BCF1020F0AD0BCF197
:104BC000040F15D0BCF1080F15D054E0FFF745FBDA
:104BD000002851D0616A36F81120B0FBF2F6626805
:104BE00002EB42018E4246D31103B14205D242E0AC
:104BF000FFF7E9FAECE71846ECE75008002110EB64
:104C0000062051EB1661002303F078F8A0F54071FF
:104C1000DFF8DC2391422ED22268D0602CE0FFF72F
:104C2000D2FA90E7184690E7BCF1010F09D0BCF129
:104C3000020F09D0BCF1040F18D0BCF1080F18D036
:104C400019E0FFF712FBB8B1626A36F812306168FA
:104C5000B0FBF3F000EB5100B0FBF1F080B2A0F13B
:104C60001001B94207D22168C86005E0FFF7ABFA2E
:104C7000E9E71846E8E7012504F1680001214180D1
:104C8000018000218160C1602846F2BDFEFFFFEF78
:104C9000010002000400060008000A000C001000D9
:104CA000200040008000000190F82810CA0706D5B7
:104CB00002685368C16A23F400330B43536090F8D1
:104CC00028108A0706D502685368016B23F48033E5
:104CD0000B43536090F828104A0706D502685368C2
:104CE000416B23F480230B43536090F828100A078C
:104CF00006D502685368816B23F400430B4353606D
:104D000090F82810CA0606D502689368C16B23F490
:104D100080530B43936090F828108A0606D50268EA
:104D20009368016C23F400530B43936090F82810B0
:104D30004A0610D502685368416C23F480130B4374
:104D40005360416CB1F5801F05D15368816C23F429
:104D5000C0030B43536090F828100A0606D501687B
:104D60004A68C06C22F4002202434A607047F8B5DA
:104D7000044604F180050020E8606FF07E4702F0F1
:104D800009FC0646206801680A0708D500973346E3
:104D900000224FF40011204600F017F860B9206897
:104DA00001684A070AD50097334600224FF4800174
:104DB000204600F00AF808B10320F2BD2020686008
:104DC000A8600020E0662870F2BD2DE9F041069C45
:104DD00005460E4690461F462868C1693140B142DB
:104DE0000CBF01200020404526D114F1010FF3D063
:104DF00002F0D0FBC01B844200D33CB900F025F880
:104E000000F02DF8FCD100F01AF811E028680168D4
:104E10004A07E1D5C1690A05DED54FF40062026296
:104E200000F013F800F01BF8FCD100F008F8C160A6
:104E300000210170032000E00020BDE8F08105F1B1
:104E400080002021416081607047296851E8002F6F
:104E500022F4D07241E800200028F6D1704728687B
:104E600000F1080151E8001F490800F1080249005B
:104E700042E8001000287047DFF87801014042E85E
:104E80000010002870470000026852E8003F23F03D
:104E9000C00342E800310029F6D1016801F108029F
:104EA00052E8002F01F1080322F4000243E8002138
:104EB0000029F2D12021C0F884107047026852E81E
:104EC000003F23F4907342E800310029F6D10168D5
:104ED00001F1080201F1080352E8002F0E490A40CF
:104EE00043E800210029F2D1C16E012908D10268EE
:104EF00052E8003F23F0100342E800310029F6D1C8
:104F00002021C0F888100021C166016770470000A9
:104F10000100001020010004FEFFFFEF0146886A37
:104F200009680A68930610D40021A0F85610016899
:104F300001F1080252E8002F01F1080322F080027B
:104F400043E800210029F2D13BE002F0B8BE806ABC
:104F500002F0EBBFF8B5846A04F1840504F156074A
:104F600028686E6821688A68110606D5212804D150
:104F7000002038802046FFF787FFFFF783FD06D526
:104F8000222E04D1002038812046FFF797FFA86821
:104F900040F01000A8602046BDE8F24002F064BE78
:104FA000806A00F1560100220A810A8002F05CBE8C
:104FB000026852E8003F23F0800342E800310029F4
:104FC000F6D1026852E8003F43F0400342E8003166
:104FD0000029F6D170470000F369FFCF0038014087
:104FE0008800005800800040FFF4FF110024F40006
:104FF00000FD0F00FEFF7FEF10B500F180010A7881
:10500000012A01D1022010BD01230B7024224A6025
:105010000268136814686408640014600022426621
:1050200023F00053006803602020486000200870CF
:1050300010BD70B500F01EF801D1022070BD00F067
:105040001FF822F0604209E070B500F013F801D1BA
:10505000022070BD00F014F822F0606211438160FC
:10506000204600F01AF820680660202068600020C2
:10507000287070BD044604F1800528780128704727
:1050800001222A702420686020680668026852089D
:105090005200026020688268704730B5416E11B9D5
:1050A0000121012214E001680FF230048A68896846
:1050B0000FF23003520E02F00702490F655CA45C48
:1050C000595C9A5CED00E40095FBF1F194FBF2F27F
:1050D00068304180028030BD000000000101010302
:1050E000070100000804020408010101704770472D
:1050F00070477047704770477047704770477047F8
:1051000070477047704770477047704770477047E7
:1051100038B5024686B050780024FF285BD1B2F83B
:105120000310DFF8F80340F60143C91A02D0123920
:105130002FD050E08388B2F807109B1C99420BD106
:10514000507B012410B1012802D044E0032100E08B
:1051500002218DF8081033E003899B1C994209D184
:10516000507B012410B1012802D034E0052025E055
:10517000042023E04088401C81422CD101248DF87A
:10518000084002F10D01B2F80B008DF810000391F8
:1051900016E08089B2F80710401C81421BD1957A35
:1051A000B2F80500537A0124012D0DD10A32019283
:1051B000009300220023FDF779FB07208DF80800FB
:1051C00002A8FCF7BBFD06E00A320192009301221F
:1051D0008023FDF76BFB204607B030BD38B58AB0A1
:1051E000CF48CE4CFCF7FCFC8F218DF81810E52041
:1051F000B3218DF819008DF81A10D5202E218DF8C5
:105200001B008DF81C107F204A218DF81D008DF8A1
:105210001E1098202A218DF81F008DF8201048209C
:105220007A218DF821008DF82210CC2040218DF8B4
:1052300023008DF82410FE2000218DF82500ADF804
:10524000261000940623012206A90220FDF759FA30
:10525000010004D00FF2D820FCF75CFD03E00FF250
:105260001830FCF757FD00F0F5F8AE218DF81C0062
:105270008DF81B104C2021218DF81E008DF81D107B
:1052800041209D218DF820008DF81F1022204521FE
:105290008DF822008DF8211041208E218DF82400F8
:1052A0008DF823100020FE21ADF826008DF8251082
:1052B000A01C05900121049102910020994D0190BC
:1052C00010220621039200912B7800F0B9F828B142
:1052D00001460FF2D820FCF71DFD03E00FF210305D
:1052E000FCF718FD00F0B6F88DF81C00AE214C203C
:1052F0008DF81E008DF81B10412021218DF8200013
:105300008DF81D1022209D218DF822008DF81F1090
:10531000422045218DF824008DF8211000208E2197
:10532000ADF826008DF82310201DFE2105908DF884
:105330002510002001211022019004910392029176
:1053400000926B7800F07CF828B101460FF2D4206F
:10535000FCF7E0FC03E00FF21430FCF7DBFC41F655
:105360000D00A11DADF8180000910823012206A927
:105370000120FDF7C6F928B101460FF22830FCF7ED
:10538000C9FC03E00FF26430FCF7C4FC42F637209E
:10539000ADF818000023102004F108010122039049
:1053A00002930193009005910492AB7800F04DF8C0
:1053B00028B101460FF26830FCF7ACFC03E00FF2B5
:1053C000A430FCF7A7FC42F63820ADF81800002204
:1053D000049202920192102004F10A010390022229
:1053E00005910092EB7800F030F828B101460FF2F9
:1053F000A830FCF78FFC03E00FF2E430FCF78AFCE6
:1054000042F63920ADF818000022049201921020D3
:10541000022304F10C0103900293082205910092EB
:105420002B7900F012F828B101460FF2E830FCF7B2
:1054300071FC03E00FF22440FCF76CFC0BB030BDB4
:10544000208806AA0221FDF7ABB9E08806AA01214F
:10545000FDF7A6B919208DF81800ED2182208DF8EE
:105460001A008DF81910ED207047000038B592240D
:1054700004282A4D2B4A4FD8DFE800F00312212FD1
:105480003D00009113786988288800F04EF80400E8
:1054900003D021460FF2FC3037E00FF2404039E0F4
:1054A00000915378A988288800F03FF8040003D0C1
:1054B00021460FF2604028E00FF2A4402AE000915C
:1054C0009378298900F030F8040003D021460FF2C8
:1054D000CC401AE00FF20C501CE00091D37869899F
:1054E00000F022F8040003D021460FF230500CE007
:1054F0000FF270500EE000911379A98900F014F8B2
:10550000040005D021460FF29450FCF703FC03E0A1
:105510000FF2D450FCF7FEFB204632BD942C002045
:10552000115100081A260020E8880022FDF792B9E0
:1055300020204661696C2020203A206163695F6702
:105540006174745F6164645F73657276696365201A
:10555000636F6D6D616E643A204D795F50325053C8
:105560002C206572726F7220636F64653A20307808
:105570002578200A0D0000002020537563636573B1
:10558000733A206163695F676174745F6164645F2B
:105590007365727669636520636F6D6D616E643AE1
:1055A000204D795F50325053200A0D002020466173
:1055B000696C2020203A206163695F676174745FC1
:1055C0006164645F6368617220636F6D6D616E64B6
:1055D0002020203A204C45445F432C206572726F96
:1055E0007220636F64653A2030782578200A0D00B8
:1055F0002020537563636573733A206163695F6745
:105600006174745F6164645F6368617220636F6D6D
:105610006D616E642020203A204C45445F43200A8F
:105620000D00000020204661696C2020203A206196
:1056300063695F676174745F6164645F636861720A
:1056400020636F6D6D616E642020203A20535749AE
:105650005443485F432C206572726F7220636F64FD
:10566000653A2030782578200A0D000020205375F7
:1056700063636573733A206163695F676174745F24
:105680006164645F6368617220636F6D6D616E64F5
:105690002020203A205357495443485F43200A0DA5
:1056A0000000000020204661696C2020203A206123
:1056B00063695F676174745F6164645F7365727668
:1056C00069636520636F6D6D616E643A204D795F2B
:1056D0004852532C206572726F7220636F64653A72
:1056E0002030782578200A0D000000002020537516
:1056F00063636573733A206163695F676174745FA4
:105700006164645F7365727669636520636F6D6D54
:10571000616E643A204D795F485253200A0D0000B3
:1057200020204661696C2020203A206163695F6710
:105730006174745F6164645F6368617220636F6D3C
:105740006D616E642020203A204852535F4D2C201A
:105750006572726F7220636F64653A2030782578C5
:10576000200A0D002020537563636573733A20612E
:1057700063695F676174745F6164645F63686172C9
:1057800020636F6D6D616E642020203A2048525373
:105790005F4D200A0D00000020204661696C20202A
:1057A000203A206163695F676174745F6164645F5C
:1057B0006368617220636F6D6D616E642020203AB2
:1057C000204852535F534C2C206572726F722063D5
:1057D0006F64653A2030782578200A0D00000000BB
:1057E0002020537563636573733A206163695F6753
:1057F0006174745F6164645F6368617220636F6D7C
:105800006D616E642020203A204852535F534C2033
:105810000A0D000020204661696C2020203A20619A
:1058200063695F676174745F6164645F6368617218
:1058300020636F6D6D616E642020203A20485253C2
:105840005F4354524C502C206572726F7220636F0C
:1058500064653A2030782578200A0D0020205375A1
:1058600063636573733A206163695F676174745F32
:105870006164645F6368617220636F6D6D616E6403
:105880002020203A204852535F4354524C50200A63
:105890000D00000020204661696C2020203A206124
:1058A00063695F676174745F7570646174655F6379
:1058B0006861725F76616C7565204C45445F43207A
:1058C000636F6D6D616E642C20726573756C7420EE
:1058D0003A2030782578200A0D00000020205375EA
:1058E00063636573733A206163695F676174745FB2
:1058F0007570646174655F636861725F76616C7511
:1059000065204C45445F4320636F6D6D616E640A92
:105910000D00000020204661696C2020203A2061A3
:1059200063695F676174745F7570646174655F63F8
:105930006861725F76616C756520535749544348BE
:105940005F4320636F6D6D616E642C2072657375AB
:105950006C74203A2030782578200A0D0000000071
:105960002020537563636573733A206163695F67D1
:105970006174745F7570646174655F636861725FA0
:1059800076616C7565205357495443485F432063E3
:105990006F6D6D616E640A0D00000000202046618D
:1059A000696C2020203A206163695F676174745FCD
:1059B0007570646174655F636861725F76616C7550
:1059C00065204852535F4D20636F6D6D616E642C8E
:1059D00020726573756C74203A2030782578200A1F
:1059E0000D0000002020537563636573733A2061D6
:1059F00063695F676174745F7570646174655F6328
:105A00006861725F76616C7565204852535F4D2006
:105A1000636F6D6D616E640A0D00000020204661A9
:105A2000696C2020203A206163695F676174745F4C
:105A30007570646174655F636861725F76616C75CF
:105A400065204852535F534C20636F6D6D616E64E7
:105A50002C20726573756C74203A2030782578207C
:105A60000A0D00002020537563636573733A20614B
:105A700063695F676174745F7570646174655F63A7
:105A80006861725F76616C7565204852535F534C54
:105A900020636F6D6D616E640A0D00002020466109
:105AA000696C2020203A206163695F676174745FCC
:105AB0007570646174655F636861725F76616C754F
:105AC00065204852535F4354524C5020636F6D6DB4
:105AD000616E642C20726573756C74203A20307886
